:0200000001fffe
:0200010001fffd
:0200020001fffc
:0200030001fffb
:0200040001fefb
:0200050001fefa
:0200060001fef9
:0200070001fdf9
:0200080001fdf8
:0200090001fcf8
:02000a0001fbf8
:02000b0001faf8
:02000c0001f9f8
:02000d0001f9f7
:02000e0001f7f8
:02000f0001f6f8
:0200100001f5f8
:0200110001f4f8
:0200120001f3f8
:0200130001f1f9
:0200140001f0f9
:0200150001eefa
:0200160001ecfb
:0200170001ebfb
:0200180001e9fc
:0200190001e7fd
:02001a0001e5fe
:02001b0001e3ff
:02001c0001e100
:02001d0001df01
:02001e0001dd02
:02001f0001da04
:0200200001d805
:0200210001d606
:0200220001d308
:0200230001d109
:0200240001ce0b
:0200250001cb0d
:0200260001c80f
:0200270001c610
:0200280001c312
:0200290001c014
:02002a0001bd16
:02002b0001b919
:02002c0001b61b
:02002d0001b31d
:02002e0001b01f
:02002f0001ac22
:0200300001a924
:0200310001a527
:0200320001a229
:02003300019e2c
:02003400019a2f
:02003500019731
:02003600019334
:02003700018f37
:02003800018b3a
:0200390001873d
:02003a00018340
:02003b00017f43
:02003c00017b46
:02003d0001764a
:02003e0001724d
:02003f00016e50
:02004000016954
:02004100016557
:0200420001605b
:02004300015c5e
:02004400015762
:02004500015266
:02004600014e69
:0200470001496d
:02004800014471
:02004900013f75
:02004a00013a79
:02004b0001357d
:02004c00013081
:02004d00012b85
:02004e00012689
:02004f0001218d
:02005000011c91
:02005100011795
:0200520001119a
:02005300010c9e
:020054000107a2
:020055000101a7
:0200560000fcac
:0200570000f6b1
:0200580000f1b5
:0200590000ebba
:02005a0000e6be
:02005b0000e0c3
:02005c0000dac8
:02005d0000d5cc
:02005e0000cfd1
:02005f0000c9d6
:0200600000c4da
:0200610000bedf
:0200620000b8e4
:0200630000b2e9
:0200640000acee
:0200650000a6f3
:0200660000a0f8
:02006700009afd
:02006800009402
:02006900008e07
:02006a0000880c
:02006b00008211
:02006c00007c16
:02006d0000761b
:02006e00007020
:02006f00006a25
:0200700000642a
:02007100005e2f
:02007200005735
:0200730000513a
:02007400004b3f
:02007500004544
:02007600003f49
:0200770000384f
:02007800003254
:02007900002c59
:02007a0000265e
:02007b00001f64
:02007c00001969
:02007d0000136e
:02007e00000d73
:02007f00000679
:0200800000007e
:0200810003fa80
:0200820003f386
:0200830003ed8b
:0200840003e790
:0200850003e195
:0200860003da9b
:0200870003d4a0
:0200880003cea5
:0200890003c8aa
:02008a0003c1b0
:02008b0003bbb5
:02008c0003b5ba
:02008d0003afbf
:02008e0003a9c4
:02008f0003a2ca
:02009000039ccf
:020091000396d4
:020092000390d9
:02009300038ade
:020094000384e3
:02009500037ee8
:020096000378ed
:020097000372f2
:02009800036cf7
:020099000366fc
:02009a00036001
:02009b00035a06
:02009c0003540b
:02009d00034e10
:02009e00034815
:02009f0003421a
:0200a000033c1f
:0200a100033723
:0200a200033128
:0200a300032b2d
:0200a400032631
:0200a500032036
:0200a600031a3b
:0200a70003153f
:0200a800030f44
:0200a900030a48
:0200aa0003044d
:0200ab0002ff52
:0200ac0002f957
:0200ad0002f45b
:0200ae0002ef5f
:0200af0002e964
:0200b00002e468
:0200b10002df6c
:0200b20002da70
:0200b30002d574
:0200b40002d078
:0200b50002cb7c
:0200b60002c680
:0200b70002c184
:0200b80002bc88
:0200b90002b78c
:0200ba0002b290
:0200bb0002ae93
:0200bc0002a997
:0200bd0002a49b
:0200be0002a09e
:0200bf00029ba2
:0200c0000297a5
:0200c1000292a9
:0200c200028eac
:0200c300028aaf
:0200c4000285b3
:0200c5000281b6
:0200c600027db9
:0200c7000279bc
:0200c8000275bf
:0200c9000271c2
:0200ca00026dc5
:0200cb000269c8
:0200cc000266ca
:0200cd000262cd
:0200ce00025ed0
:0200cf00025bd2
:0200d0000257d5
:0200d1000254d7
:0200d2000250da
:0200d300024ddc
:0200d400024ade
:0200d5000247e0
:0200d6000243e3
:0200d7000240e5
:0200d800023de7
:0200d900023ae9
:0200da000238ea
:0200db000235ec
:0200dc000232ee
:0200dd00022ff0
:0200de00022df1
:0200df00022af3
:0200e0000228f4
:0200e1000226f5
:0200e2000223f7
:0200e3000221f8
:0200e400021ff9
:0200e500021dfa
:0200e600021bfb
:0200e7000219fc
:0200e8000217fd
:0200e9000215fe
:0200ea000214fe
:0200eb000212ff
:0200ec00021000
:0200ed00020f00
:0200ee00020d01
:0200ef00020c01
:0200f000020b01
:0200f100020a01
:0200f200020901
:0200f300020702
:0200f400020701
:0200f500020601
:0200f600020501
:0200f700020401
:0200f800020301
:0200f900020300
:0200fa00020200
:0200fb000202ff
:0200fc000202fe
:0200fd000201fe
:0200fe000201fd
:0200ff000201fc
:00000001FF
