:0200000001fffe
:0200010001fffd
:0200020001fffc
:0200030001fffb
:0200040001fffa
:0200050001fff9
:0200060001fff8
:0200070001fff7
:0200080001fef7
:0200090001fef6
:02000a0001fef5
:02000b0001fef4
:02000c0001fef3
:02000d0001fdf3
:02000e0001fdf2
:02000f0001fdf1
:0200100001fdf0
:0200110001fcf0
:0200120001fcef
:0200130001fcee
:0200140001fbee
:0200150001fbed
:0200160001faed
:0200170001faec
:0200180001f9ec
:0200190001f9eb
:02001a0001f9ea
:02001b0001f8ea
:02001c0001f7ea
:02001d0001f7e9
:02001e0001f6e9
:02001f0001f6e8
:0200200001f5e8
:0200210001f5e7
:0200220001f4e7
:0200230001f3e7
:0200240001f3e6
:0200250001f2e6
:0200260001f1e6
:0200270001f0e6
:0200280001f0e5
:0200290001efe5
:02002a0001eee5
:02002b0001ede5
:02002c0001ece5
:02002d0001ece4
:02002e0001ebe4
:02002f0001eae4
:0200300001e9e4
:0200310001e8e4
:0200320001e7e4
:0200330001e6e4
:0200340001e5e4
:0200350001e4e4
:0200360001e3e4
:0200370001e2e4
:0200380001e1e4
:0200390001e0e4
:02003a0001dfe4
:02003b0001dee4
:02003c0001dde4
:02003d0001dce4
:02003e0001dae5
:02003f0001d9e5
:0200400001d8e5
:0200410001d7e5
:0200420001d6e5
:0200430001d4e6
:0200440001d3e6
:0200450001d2e6
:0200460001d1e6
:0200470001cfe7
:0200480001cee7
:0200490001cde7
:02004a0001cbe8
:02004b0001cae8
:02004c0001c8e9
:02004d0001c7e9
:02004e0001c6e9
:02004f0001c4ea
:0200500001c3ea
:0200510001c1eb
:0200520001c0eb
:0200530001beec
:0200540001bdec
:0200550001bbed
:0200560001b9ee
:0200570001b8ee
:0200580001b6ef
:0200590001b5ef
:02005a0001b3f0
:02005b0001b1f1
:02005c0001b0f1
:02005d0001aef2
:02005e0001acf3
:02005f0001abf3
:0200600001a9f4
:0200610001a7f5
:0200620001a5f6
:0200630001a4f6
:0200640001a2f7
:0200650001a0f8
:02006600019ef9
:02006700019cfa
:02006800019afb
:020069000199fb
:02006a000197fc
:02006b000195fd
:02006c000193fe
:02006d000191ff
:02006e00018f00
:02006f00018d01
:02007000018b02
:02007100018903
:02007200018704
:02007300018505
:02007400018306
:02007500018107
:02007600017f08
:02007700017d09
:02007800017b0a
:0200790001790b
:02007a0001760d
:02007b0001740e
:02007c0001720f
:02007d00017010
:02007e00016e11
:02007f00016c12
:02008000016914
:02008100016715
:02008200016516
:02008300016317
:02008400016019
:02008500015e1a
:02008600015c1b
:0200870001591d
:0200880001571e
:0200890001551f
:02008a00015221
:02008b00015022
:02008c00014e23
:02008d00014b25
:02008e00014926
:02008f00014727
:02009000014429
:0200910001422a
:02009200013f2c
:02009300013d2d
:02009400013a2f
:02009500013830
:02009600013532
:02009700013333
:02009800013035
:02009900012e36
:02009a00012b38
:02009b00012939
:02009c0001263b
:02009d0001243c
:02009e0001213e
:02009f00011e40
:0200a000011c41
:0200a100011943
:0200a200011744
:0200a300011446
:0200a400011148
:0200a500010f49
:0200a600010c4b
:0200a70001094d
:0200a80001074e
:0200a900010450
:0200aa00010152
:0200ab0000ff54
:0200ac0000fc56
:0200ad0000f958
:0200ae0000f65a
:0200af0000f45b
:0200b00000f15d
:0200b10000ee5f
:0200b20000eb61
:0200b30000e962
:0200b40000e664
:0200b50000e366
:0200b60000e068
:0200b70000dd6a
:0200b80000da6c
:0200b90000d86d
:0200ba0000d56f
:0200bb0000d271
:0200bc0000cf73
:0200bd0000cc75
:0200be0000c977
:0200bf0000c679
:0200c00000c47a
:0200c10000c17c
:0200c20000be7e
:0200c30000bb80
:0200c40000b882
:0200c50000b584
:0200c60000b286
:0200c70000af88
:0200c80000ac8a
:0200c90000a98c
:0200ca0000a68e
:0200cb0000a390
:0200cc0000a092
:0200cd00009d94
:0200ce00009a96
:0200cf00009798
:0200d00000949a
:0200d10000919c
:0200d200008e9e
:0200d300008ba0
:0200d4000088a2
:0200d5000085a4
:0200d6000082a6
:0200d700007fa8
:0200d800007caa
:0200d9000079ac
:0200da000076ae
:0200db000073b0
:0200dc000070b2
:0200dd00006db4
:0200de00006ab6
:0200df000067b8
:0200e0000064ba
:0200e1000061bc
:0200e200005ebe
:0200e300005ac1
:0200e4000057c3
:0200e5000054c5
:0200e6000051c7
:0200e700004ec9
:0200e800004bcb
:0200e9000048cd
:0200ea000045cf
:0200eb000042d1
:0200ec00003fd3
:0200ed00003bd6
:0200ee000038d8
:0200ef000035da
:0200f0000032dc
:0200f100002fde
:0200f200002ce0
:0200f3000029e2
:0200f4000026e4
:0200f5000022e7
:0200f600001fe9
:0200f700001ceb
:0200f8000019ed
:0200f9000016ef
:0200fa000013f1
:0200fb000010f3
:0200fc00000df5
:0200fd000009f8
:0200fe000006fa
:0200ff000003fc
:00000001FF
