:0200000001fffe
:0200010001fffd
:0200020001fffc
:0200030001fefc
:0200040001fefb
:0200050001fdfb
:0200060001fcfb
:0200070001fbfb
:0200080001f9fc
:0200090001f8fc
:02000a0001f6fd
:02000b0001f5fd
:02000c0001f3fe
:02000d0001f000
:02000e0001ee01
:02000f0001ec02
:0200100001e904
:0200110001e606
:0200120001e308
:0200130001e00a
:0200140001dd0c
:0200150001d90f
:0200160001d611
:0200170001d214
:0200180001ce17
:0200190001ca1a
:02001a0001c61d
:02001b0001c121
:02001c0001bd24
:02001d0001b828
:02001e0001b32c
:02001f0001ae30
:0200200001a934
:0200210001a438
:02002200019e3d
:02002300019941
:02002400019346
:02002500018d4b
:02002600018750
:02002700018155
:02002800017b5a
:02002900017460
:02002a00016e65
:02002b0001676b
:02002c00016071
:02002d00015977
:02002e0001527d
:02002f00014b83
:02003000014489
:02003100013d8f
:02003200013596
:02003300012e9c
:020034000126a3
:02003500011eaa
:020036000117b0
:02003700010fb7
:020038000107be
:0200390000ffc6
:02003a0000f6ce
:02003b0000eed5
:02003c0000e6dc
:02003d0000dde4
:02003e0000d5eb
:02003f0000ccf3
:0200400000c4fa
:0200410000bb02
:0200420000b20a
:0200430000a912
:0200440000a01a
:02004500009722
:02004600008e2a
:02004700008532
:02004800007c3a
:02004900007342
:02004a00006a4a
:02004b00006152
:02004c0000575b
:02004d00004e63
:02004e0000456b
:02004f00003b74
:0200500000327c
:02005100002984
:02005200001f8d
:02005300001695
:02005400000d9d
:020055000003a6
:0200560003faab
:0200570003f0b4
:0200580003e7bc
:0200590003dec4
:02005a0003d4cd
:02005b0003cbd5
:02005c0003c1de
:02005d0003b8e6
:02005e0003afee
:02005f0003a6f6
:02006000039cff
:02006100039307
:02006200038a0f
:02006300038117
:0200640003781f
:02006500036f27
:0200660003662f
:02006700035d37
:0200680003543f
:02006900034b47
:02006a0003424f
:02006b00033a56
:02006c0003315e
:02006d00032866
:02006e0003206d
:02006f00031775
:02007000030f7c
:02007100030783
:0200720002ff8b
:0200730002f792
:0200740002ef99
:0200750002e7a0
:0200760002dfa7
:0200770002d7ae
:0200780002d0b4
:0200790002c8bb
:02007a0002c1c1
:02007b0002b9c8
:02007c0002b2ce
:02007d0002abd4
:02007e0002a4da
:02007f00029de0
:020080000297e5
:020081000290eb
:02008200028af0
:020083000283f6
:02008400027dfb
:02008500027700
:02008600027105
:02008700026b0a
:0200880002660e
:02008900026013
:02008a00025b17
:02008b0002551c
:02008c00025020
:02008d00024b24
:02008e00024727
:02008f0002422b
:02009000023d2f
:02009100023932
:02009200023535
:02009300023138
:02009400022d3b
:0200950002293e
:02009600022640
:02009700022243
:02009800021f45
:02009900021c47
:02009a00021949
:02009b0002164b
:02009c0002144c
:02009d0002114e
:02009e00020f4f
:02009f00020d50
:0200a000020b51
:0200a100020952
:0200a200020753
:0200a300020653
:0200a400020553
:0200a500020453
:0200a600020353
:0200a700020253
:0200a800020252
:0200a900020152
:0200aa00020151
:0200ab00020150
:0200ac0002014f
:0200ad0002014e
:0200ae0002024c
:0200af0002034a
:0200b000020349
:0200b100020447
:0200b200020644
:0200b300020742
:0200b40002093f
:0200b500020a3d
:0200b600020c3a
:0200b700020e37
:0200b800021034
:0200b900021330
:0200ba0002152d
:0200bb00021829
:0200bc00021b25
:0200bd00021e21
:0200be0002211d
:0200bf00022419
:0200c000022814
:0200c100022c0f
:0200c200022f0b
:0200c300023306
:0200c400023800
:0200c500023cfb
:0200c6000240f6
:0200c7000245f0
:0200c800024aea
:0200c900024fe4
:0200ca000254de
:0200cb000259d8
:0200cc00025ed2
:0200cd000264cb
:0200ce000269c5
:0200cf00026fbe
:0200d0000275b7
:0200d100027bb0
:0200d2000281a9
:0200d3000287a2
:0200d400028e9a
:0200d500029493
:0200d600029b8b
:0200d70002a283
:0200d80002a97b
:0200d90002b073
:0200da0002b76b
:0200db0002be63
:0200dc0002c65a
:0200dd0002cd52
:0200de0002d549
:0200df0002dc41
:0200e00002e438
:0200e10002ec2f
:0200e20002f426
:0200e30002fc1d
:0200e400030413
:0200e500030c0a
:0200e600031500
:0200e700031df7
:0200e8000326ed
:0200e900032ee4
:0200ea000337da
:0200eb00033fd1
:0200ec000348c7
:0200ed000351bd
:0200ee00035ab3
:0200ef000363a9
:0200f000036c9f
:0200f100037595
:0200f200037e8b
:0200f300038781
:0200f400039077
:0200f50003996d
:0200f60003a263
:0200f70003ac58
:0200f80003b54e
:0200f90003be44
:0200fa0003c839
:0200fb0003d12f
:0200fc0003da25
:0200fd0003e41a
:0200fe0003ed10
:0200ff0003f705
:00000001FF
