:020000000000fe
:020001000006f7
:02000200000def
:020003000013e8
:020004000019e1
:02000500001fda
:020006000026d2
:02000700002ccb
:020008000032c4
:020009000038bd
:02000a00003fb5
:02000b000045ae
:02000c00004ba7
:02000d000051a0
:02000e00005799
:02000f00005e91
:0200100000648a
:02001100006a83
:0200120000707c
:02001300007675
:02001400007c6e
:02001500008267
:02001600008860
:02001700008e59
:02001800009452
:02001900009a4b
:02001a0000a044
:02001b0000a63d
:02001c0000ac36
:02001d0000b22f
:02001e0000b828
:02001f0000be21
:0200200000c41a
:0200210000c914
:0200220000cf0d
:0200230000d506
:0200240000da00
:0200250000e0f9
:0200260000e6f2
:0200270000ebec
:0200280000f1e5
:0200290000f6df
:02002a0000fcd8
:02002b000101d1
:02002c000107ca
:02002d00010cc4
:02002e000111be
:02002f000117b7
:02003000011cb1
:020031000121ab
:020032000126a5
:02003300012b9f
:02003400013099
:02003500013593
:02003600013a8d
:02003700013f87
:02003800014481
:0200390001497b
:02003a00014e75
:02003b00015270
:02003c0001576a
:02003d00015c64
:02003e0001605f
:02003f00016559
:02004000016954
:02004100016e4e
:02004200017249
:02004300017644
:02004400017b3e
:02004500017f39
:02004600018334
:0200470001872f
:02004800018b2a
:02004900018f25
:02004a00019320
:02004b0001971b
:02004c00019a17
:02004d00019e12
:02004e0001a20d
:02004f0001a509
:0200500001a904
:0200510001ac00
:0200520001b0fb
:0200530001b3f7
:0200540001b6f3
:0200550001b9ef
:0200560001bdea
:0200570001c0e6
:0200580001c3e2
:0200590001c6de
:02005a0001c8db
:02005b0001cbd7
:02005c0001ced3
:02005d0001d1cf
:02005e0001d3cc
:02005f0001d6c8
:0200600001d8c5
:0200610001dac2
:0200620001ddbe
:0200630001dfbb
:0200640001e1b8
:0200650001e3b5
:0200660001e5b2
:0200670001e7af
:0200680001e9ac
:0200690001eba9
:02006a0001eca7
:02006b0001eea4
:02006c0001f0a1
:02006d0001f19f
:02006e0001f39c
:02006f0001f49a
:0200700001f598
:0200710001f696
:0200720001f794
:0200730001f991
:0200740001f990
:0200750001fa8e
:0200760001fb8c
:0200770001fc8a
:0200780001fd88
:0200790001fd87
:02007a0001fe85
:02007b0001fe84
:02007c0001fe83
:02007d0001ff81
:02007e0001ff80
:02007f0001ff7f
:0200800001ff7e
:0200810001ff7d
:0200820001ff7c
:0200830001ff7b
:0200840001fe7b
:0200850001fe7a
:0200860001fe79
:0200870001fd79
:0200880001fd78
:0200890001fc78
:02008a0001fb78
:02008b0001fa78
:02008c0001f978
:02008d0001f977
:02008e0001f778
:02008f0001f678
:0200900001f578
:0200910001f478
:0200920001f378
:0200930001f179
:0200940001f079
:0200950001ee7a
:0200960001ec7b
:0200970001eb7b
:0200980001e97c
:0200990001e77d
:02009a0001e57e
:02009b0001e37f
:02009c0001e180
:02009d0001df81
:02009e0001dd82
:02009f0001da84
:0200a00001d885
:0200a10001d686
:0200a20001d388
:0200a30001d189
:0200a40001ce8b
:0200a50001cb8d
:0200a60001c88f
:0200a70001c690
:0200a80001c392
:0200a90001c094
:0200aa0001bd96
:0200ab0001b999
:0200ac0001b69b
:0200ad0001b39d
:0200ae0001b09f
:0200af0001aca2
:0200b00001a9a4
:0200b10001a5a7
:0200b20001a2a9
:0200b300019eac
:0200b400019aaf
:0200b5000197b1
:0200b6000193b4
:0200b700018fb7
:0200b800018bba
:0200b9000187bd
:0200ba000183c0
:0200bb00017fc3
:0200bc00017bc6
:0200bd000176ca
:0200be000172cd
:0200bf00016ed0
:0200c0000169d4
:0200c1000165d7
:0200c2000160db
:0200c300015cde
:0200c4000157e2
:0200c5000152e6
:0200c600014ee9
:0200c7000149ed
:0200c8000144f1
:0200c900013ff5
:0200ca00013af9
:0200cb000135fd
:0200cc00013001
:0200cd00012b05
:0200ce00012609
:0200cf0001210d
:0200d000011c11
:0200d100011715
:0200d20001111a
:0200d300010c1e
:0200d400010722
:0200d500010127
:0200d60000fc2c
:0200d70000f631
:0200d80000f135
:0200d90000eb3a
:0200da0000e63e
:0200db0000e043
:0200dc0000da48
:0200dd0000d54c
:0200de0000cf51
:0200df0000c956
:0200e00000c45a
:0200e10000be5f
:0200e20000b864
:0200e30000b269
:0200e40000ac6e
:0200e50000a673
:0200e60000a078
:0200e700009a7d
:0200e800009482
:0200e900008e87
:0200ea0000888c
:0200eb00008291
:0200ec00007c96
:0200ed0000769b
:0200ee000070a0
:0200ef00006aa5
:0200f0000064aa
:0200f100005eaf
:0200f2000057b5
:0200f3000051ba
:0200f400004bbf
:0200f5000045c4
:0200f600003fc9
:0200f7000038cf
:0200f8000032d4
:0200f900002cd9
:0200fa000026de
:0200fb00001fe4
:0200fc000019e9
:0200fd000013ee
:0200fe00000df3
:0200ff000006f9
:00000001FF
