:020000000000fe
:020001000009f4
:020002000013e9
:02000300001cdf
:020004000026d4
:02000500002fca
:020006000038c0
:020007000042b5
:02000800004bab
:020009000054a1
:02000a00005e96
:02000b0000678c
:02000c00007082
:02000d00007978
:02000e0000826e
:02000f00008b64
:0200100000945a
:02001100009d50
:0200120000a646
:0200130000af3c
:0200140000b832
:0200150000c128
:0200160000c91f
:0200170000d215
:0200180000da0c
:0200190000e302
:02001a0000ebf9
:02001b0000f4ef
:02001c0000fce6
:02001d000104dc
:02001e00010cd3
:02001f000114ca
:02002000011cc1
:020021000124b8
:02002200012bb0
:020023000133a7
:02002400013a9f
:02002500014296
:0200260001498e
:02002700015086
:0200280001577e
:02002900015e76
:02002a0001656e
:02002b00016c66
:02002c0001725f
:02002d00017957
:02002e00017f50
:02002f00018549
:02003000018b42
:0200310001913b
:02003200019734
:02003300019c2e
:0200340001a227
:0200350001a721
:0200360001ac1b
:0200370001b115
:0200380001b60f
:0200390001bb09
:02003a0001c003
:02003b0001c4fe
:02003c0001c8f9
:02003d0001cdf3
:02003e0001d1ee
:02003f0001d4ea
:0200400001d8e5
:0200410001dce0
:0200420001dfdc
:0200430001e2d8
:0200440001e5d4
:0200450001e8d0
:0200460001ebcc
:0200470001edc9
:0200480001f0c5
:0200490001f2c2
:02004a0001f4bf
:02004b0001f6bc
:02004c0001f7ba
:02004d0001f9b7
:02004e0001fab5
:02004f0001fcb2
:0200500001fdb0
:0200510001fdaf
:0200520001fead
:0200530001ffab
:0200540001ffaa
:0200550001ffa9
:0200560001ffa8
:0200570001ffa7
:0200580001fea7
:0200590001fea6
:02005a0001fda6
:02005b0001fca6
:02005c0001fba6
:02005d0001faa6
:02005e0001f9a6
:02005f0001f7a7
:0200600001f5a8
:0200610001f3a9
:0200620001f1aa
:0200630001efab
:0200640001ecad
:0200650001eaae
:0200660001e7b0
:0200670001e4b2
:0200680001e1b4
:0200690001deb6
:02006a0001dab9
:02006b0001d7bb
:02006c0001d3be
:02006d0001cfc1
:02006e0001cbc4
:02006f0001c7c7
:0200700001c3ca
:0200710001bece
:0200720001b9d2
:0200730001b5d5
:0200740001b0d9
:0200750001abdd
:0200760001a5e2
:0200770001a0e6
:02007800019aeb
:020079000195ef
:02007a00018ff4
:02007b000189f9
:02007c000183fe
:02007d00017d03
:02007e00017609
:02007f0001700e
:02008000016914
:02008100016319
:02008200015c1f
:02008300015525
:02008400014e2b
:02008500014731
:02008600013f38
:0200870001383e
:02008800013045
:0200890001294b
:02008a00012152
:02008b00011959
:02008c00011160
:02008d00010967
:02008e0001016e
:02008f0000f976
:0200900000f17d
:0200910000e984
:0200920000e08c
:0200930000d893
:0200940000cf9b
:0200950000c6a3
:0200960000beaa
:0200970000b5b2
:0200980000acba
:0200990000a3c2
:02009a00009aca
:02009b000091d2
:02009c000088da
:02009d00007fe2
:02009e000076ea
:02009f00006df2
:0200a0000064fa
:0200a100005a03
:0200a20000510b
:0200a300004813
:0200a400003f1b
:0200a500003524
:0200a600002c2c
:0200a700002235
:0200a80000193d
:0200a900001045
:0200aa0000064e
:0200ab0003fd53
:0200ac0003f35c
:0200ad0003ea64
:0200ae0003e16c
:0200af0003d775
:0200b00003ce7d
:0200b10003c585
:0200b20003bb8e
:0200b30003b296
:0200b40003a99e
:0200b500039fa7
:0200b6000396af
:0200b700038db7
:0200b8000384bf
:0200b900037bc7
:0200ba000372cf
:0200bb000369d7
:0200bc000360df
:0200bd000357e7
:0200be00034eef
:0200bf000345f7
:0200c000033cff
:0200c100033406
:0200c200032b0e
:0200c300032315
:0200c400031a1d
:0200c500031224
:0200c600030a2b
:0200c700030133
:0200c80002f93b
:0200c90002f142
:0200ca0002e949
:0200cb0002e24f
:0200cc0002da56
:0200cd0002d25d
:0200ce0002cb63
:0200cf0002c36a
:0200d00002bc70
:0200d10002b576
:0200d20002ae7c
:0200d30002a782
:0200d40002a088
:0200d50002998e
:0200d600029294
:0200d700028c99
:0200d80002859f
:0200d900027fa4
:0200da000279a9
:0200db000273ae
:0200dc00026db3
:0200dd000267b8
:0200de000262bc
:0200df00025cc1
:0200e0000257c5
:0200e1000252c9
:0200e200024dcd
:0200e3000248d1
:0200e4000243d5
:0200e500023fd8
:0200e600023adc
:0200e7000236df
:0200e8000232e2
:0200e900022ee5
:0200ea00022ae8
:0200eb000227ea
:0200ec000223ed
:0200ed000220ef
:0200ee00021df1
:0200ef00021af3
:0200f0000217f5
:0200f1000214f7
:0200f2000212f8
:0200f3000210f9
:0200f400020dfb
:0200f500020bfc
:0200f600020afc
:0200f7000208fd
:0200f8000207fd
:0200f9000205fe
:0200fa000204fe
:0200fb000203fe
:0200fc000202fe
:0200fd000202fd
:0200fe000201fd
:0200ff000201fc
:00000001FF
