:020000040800F2
:10000000E00D002049010008B34000086912000813
:10001000B1400008CD07000823410008000000009F
:10002000000000000000000000000000BB400008CD
:10003000CF07000800000000B9400008BD400008DC
:100040006301000863010008630100086301000800
:1000500063010008630100086301000863010008F0
:1000600063010008D1070008D707000863010008F2
:1000700063010008630100086301000863010008D0
:1000800063010008630100086301000863010008C0
:1000900063010008630100086301000863010008B0
:1000A00063010008630100086301000863010008A0
:1000B0006301000863010008630100086301000890
:1000C0006301000863010008630100086301000880
:1000D0006301000863010008630100086301000870
:1000E0006301000863010008630100086301000860
:1000F0006301000863010008630100086301000850
:10010000630100086301000863010008630100083F
:10011000630100086301000863010008630100082F
:10012000630100086301000863010008630100081F
:10013000DFF810D000F038FB0048004765410008A8
:10014000AFF30080E00D00200648804706480047D6
:10015000FEE7FEE7FEE7FEE7FEE7FEE7FEE7FEE777
:10016000FEE7FEE72141000831010008202A04DBF8
:10017000203A21FA02F00021704721FA02F3D04020
:10018000C2F120029140084319467047D2B201E003
:1001900000F8012B491EFBD270470022F6E710B58C
:1001A00013460A4604461946FFF7F0FF204610BDE5
:1001B000F0B480EA0102D40F4200B2EB410F02D248
:1001C0000246084611464A0042D0C30DDDB2C1F3D3
:1001D000C752AD1A202D35DAC1F3160141F40002E1
:1001E00004B15242C5F1200602FA06F12A41104438
:1001F000B3EBD05F23D0C4B1012DA0EBC35009DC19
:10020000F0BC4FF0004202EAC352DBB200F500003E
:1002100000F03EBA400000F1807000EBC350A0F146
:10022000807040EAD170490009E0490841EAC07194
:10023000A0EBC35000F50000400800EBC350F0BC39
:1002400000F01DBA6142012202EB4101001BF6E7FA
:10025000F0BC704781F00041AAE780F00040A7E7BA
:1002600080EA010210B502F00043400022D04A00AB
:100270001FD0010E01EB1261C0F35600C2F356020B
:1002800040F4000042F40002A0FB022000047F3989
:10029000140400D0401C50EA124001D44000491E12
:1002A000C2B20C0604EBD010401C4008802A02D0D9
:1002B00003E0002010BD20F00100002900DA00203A
:1002C000184310BD30B480EA010202F0004530F05E
:1002D000004221F0004013D090B1C30DD40DC2F301
:1002E0001601C0F31600E41A41F4000140F40002C4
:1002F0007D34914201D3641C00E04900002C02DAF5
:1003000030BC002070474FF400000023914201D31D
:10031000891A034340084FEA4101F7D151B1914294
:1003200002D14FF0004105E002D24FF0010101E09F
:100330006FF0010103EBC450284430BC00F09FB9BA
:100340002DE9FE4F804681EA0300C00F0C46009065
:1003500021F0004123F00045B8EB0200A94105D28D
:100360004046214690461C460B46024623F000407C
:10037000104347D0270DC7F30A00C3F30A51029078
:10038000401A019040286BDAC3F3130040F4801B3D
:100390000098924620B10023D2EB030A63EB0B0BCB
:1003A00001985946C0F14002504600F047F9064610
:1003B0000D4650465946019A00F04FF910EB0800DF
:1003C0006141002487EA115284EAE7731A4340D05E
:1003D000009A62B3019A012A4FEA075215DC001B0A
:1003E00061EB02014FF0004202EA0752CDE9004200
:1003F000001C41F5801132462B4600F086F903B00F
:10040000BDE8F08F40462146F9E7001B61EB020191
:10041000001C41F5801300185B412018A2F500175D
:1004200047EB030140EAD570B6196D4111E06D0844
:100430004FEA360645EAC0754FEA0752001B61EBEA
:100440000201001C41F5801149084FEA30000019F3
:10045000514132462B4603B0BDE8F04F00F046B99B
:100460000098012240000023D0EB020263EBE0730E
:10047000009821464FEAE074B8EB000061EB0401FC
:10048000E9E783F000435BE781F0004158E72DE99D
:10049000FE4F81EA030404F0004421F0004100947F
:1004A0004FF0000B23F0004350EA01045ED052EA03
:1004B00003045BD0C3F30A54C1F30A552C44A4F2DD
:1004C000F3340194A0FB0254C1F3130141F48011F1
:1004D000C3F3130343F4801301FB024400FB034EF8
:1004E000840A970A44EA815447EA8357A4FB0768C1
:1004F00002958D0A05FB07854FEA932C04FB0C54EB
:100500002705029D4FEA065847EA1637B5EB08055E
:100510006EEB070C870E920E47EA811742EA8312B0
:10052000A7FB0201B6EB0B0164EB00042B0D43EAC1
:100530000C335E1844EB1C50DA465146E7FB0201CF
:10054000C5F313044FEA0B3343EA14534FEA043262
:10055000019C43EA0603A4F10C040294009CCDE93B
:1005600000B400F0D2F803B0BDE8F08F00200146DF
:10057000F9E796230022114600F08AB80EB5C10FA4
:1005800080EAE0700844CA07002140F233438DE856
:100590000E000A460B4600F0B8F803B000BD0EB5D9
:1005A00040F2334102910021CDE900110A460B4689
:1005B00000F0ABF803B000BD20F00040C10DC0F367
:1005C000160040F400007F2901DA002070479629C8
:1005D00003DCC1F19601C8407047963988407047E6
:1005E000C1F30A5210B5C1F3130140F2FF3341F4D5
:1005F00080119A4201DA002010BD40F233439A4242
:10060000A2F2334203DC5242FFF7B0FD10BD90402E
:1006100010BD0000002801DBC0F10040002901DB13
:10062000C1F1004181427047002801DBC0F1004068
:10063000002901DBC1F1004188427047202A04DB18
:10064000203A00FA02F1002070479140C2F12003E5
:1006500020FA03F3194390407047202A06DBCB179A
:10066000203A41FA02F043EAE07306E041FA02F36D
:10067000D040C2F12002914008431946704700293A
:10068000A8BF7047401C490008BF20F00100704718
:1006900010B4B0FA80FC00FA0CF050EA010404BF78
:1006A00010BC704749B1CCF1200421FA04F411FACE
:1006B0000CF118BF012121430843A3EB0C01CB1D12
:1006C0004FEA00614FEA102042BF002010BC704783
:1006D00000EBC35010440029A4BF10BC7047401C5D
:1006E000490008BF20F0010010BC704710B5141E6F
:1006F00073F1000408DA401C41F1000192185B41DB
:100700001A4301D120F0010010BD2DE9F04D9246B1
:100710009B4611B1B1FA81F202E0B0FA80F22032C8
:100720009046FFF78BFF04460F4640EA0A0041EA75
:100730000B0153465A46084313D0114653EA0100B1
:1007400019D0C8F140025046FFF710FD05460E468D
:10075000504659464246FFF771FF084305D0012035
:1007600004E020463946BDE8F08D0020054346EA06
:10077000E0762C4337430A986305E40AA0EB0800AF
:100780000022FD0A44EA47540A3002D500200146FF
:10079000E9E7010510196941DDE9084500196941DA
:1007A000BDE8F04DA2E70000064C074D06E0E0680A
:1007B00040F0010394E8070098471034AC42F6D3A8
:1007C000FFF7BAFC7865000898650008FEE77047F7
:1007D000082000F0F1B8102000F0EEB872B6FEE785
:1007E00030B5B3F5804F05D06FF0704140F822105E
:1007F000002030BD8C690B688D6823434C68898963
:10080000240144EA0524234343EA014150F82230FD
:10081000014C23401943E9E70000F0CF10B50A6806
:1008200050F8223023F0010340F822308C68082C65
:1008300023D000234A682243CC681C430B6922431F
:100840001A434B690E4C1A43CB691A430B6A1A437D
:100850004B6A1A438B6A1A43CB6A1A430B6B1A43CF
:100860008B6913434A6B09681A4350F82130A3433C
:10087000134340F82130002010BD4023DAE7000088
:100880007FFF0F0030B5D1E9003443EA04138C68D0
:100890008D89240244EA054423430C8A094D00EB68
:1008A000820005EB045423430C7D6D0105EB0464C9
:1008B000896923430B43416801F040410B43436086
:1008C000002030BD0000F0FF70B5044600F086F94E
:1008D0000546601C02D004480078044400F07EF90C
:1008E000401BA042FAD370BD1800002030B585B07F
:1008F00000200090019002900390174801680029A1
:1009000027D1012101601548416941F4807141619D
:100910004069022400F48070049041F20100CDE9A6
:1009200000040325694603950D4800F051F84FF681
:100930008070CDE90004694603950A4800F048F844
:100940004CF23370CDE9000469460395064800F087
:100950003FF805B030BD0000040000200010024048
:1009600000200140001801400014014070B500252E
:10097000104C10280FD008280CD10520FFF7A4FF39
:100980000520FFF7A1FF6088401C80B2608002282C
:1009900000D1658070BD0520FFF796FF0520FFF7A9
:1009A00093FF2088401C80B220800228F2D125804D
:1009B00070BD000000000020044910B50A68024222
:1009C00002D00860FFF7D2FF10BD00001404014000
:1009D0002DE9F84FDFF8C8910024A9F1040B234654
:1009E0000F2709F1040AABF1040ED1E00125A5405F
:1009F00006EA0502AA4276D1DFF8A8C14E68A6EB46
:100A00000C0866452BD00DDC032E34D005DC36B344
:100A1000012E19D0022E2FD11BE0112E16D0122E2E
:100A20002AD119E0B8F5881F19D006DCB8F5803F47
:100A300015D0B8F5801F1FD111E0B8F5001F0ED0FA
:100A4000B8F5041F18D10AE0CB6815E0CB681B1D70
:100A500012E0CB6808330FE0CB680C330CE08B68F6
:100A60002BB1012B4FF0080303D0456104E00423B0
:100A700002E0056100E00023FF2A01D8064601E0FC
:100A800000F104064FEA840501D9A5F12005D6F846
:100A9000008007FA05FC28EA0C0803FA05F548EA85
:100AA0000508C6F800804D68ED0070D53E4DAE6972
:100AB00046F00106AE61AD6924F0030605F00105BC
:100AC00000953A4D06EB050CDCF80850A607360FEA
:100AD00007FA06F825EA0805DFF8D480404503D177
:100AE0004FF0000825E052E0DFF8C880404502D111
:100AF0004FF001081DE0DFF8C080404502D14FF003
:100B0000020816E0DFF8B480404502D14FF0030838
:100B10000FE0DFF8AC80404502D14FF0040808E058
:100B2000DFF8A080404502D14FF0050801E04FF00A
:100B3000060808FA06F848EA0508CCF808804D6867
:100B4000D9F80060ED024D4601D5164300E096430A
:100B50002E604D68DAF80060AD02554601D51643A7
:100B600000E096432E604D68DBF80060AD035D4603
:100B700001D5164300E096432E604D68DEF8006014
:100B8000ED03754601D5164300E096432E60641CC4
:100B90000A681646E2407FF429AFBDE8F88F0000EE
:100BA0000804014000001110001002400000014044
:100BB00000080140000C01400010014000140140F9
:100BC00000180140001C01408068084000D001204E
:100BD00070470AB1016170470904FBE7014880686A
:100BE0007047000018000020024881680278114414
:100BF0008160704718000020074810B5016841F077
:100C000010010160032000F075F8042000F006F8E0
:100C100000F024F8002010BD0020024070B50D4DFA
:100C200004464FF47A712878B1FBF0F00A4909685C
:100C3000B1FBF0F000F004FB48B9102C07D2002201
:100C40002146501E00F036F800206C6070BD012077
:100C500070BD0000180000200C0000200C4808B5F2
:100C6000816941F001018161816901F00101009117
:100C7000C16941F08051C161C06900F080500090AD
:100C80000448416821F0E06141F00071416008BD15
:100C90000010024000000140002809DB00F01F02A4
:100CA000012191404009800000F1E020C0F80011CE
:100CB00070470000F0B40E4B1B680C46C3F30223D0
:100CC000C3F10705042D00D90425191D072901D2F8
:100CD000002300E0DB1E012606FA05F1491E214033
:100CE00099409E40761E16403143F0BC03F01ABA7C
:100CF0000CED00E0064900F0070208684FF6FF031C
:100D0000184040EA0220034A104308607047000080
:100D10000CED00E00000FA05704700002DE9F047F7
:100D20000F46050061D0434E306800F00700B8421E
:100D300009D2306820F0070038433060306800F096
:100D40000700B84251D128683B4C810712D54007B3
:100D500003D5606840F4E06060602878000703D540
:100D6000606840F4605060606068A96820F0F0003E
:100D7000084360602878C00728D06868012810D030
:100D80002168022810D0890700292EDA616821F035
:100D9000030101436160FFF721FF804641F288397A
:100DA0000DE021688903EFE78901EDE7FFF716FF02
:100DB000A0EB0801494502D90320BDE8F08760682F
:100DC000696800F00C00B0EB810FEFD1306800F0E3
:100DD0000700B8420BD9306820F007003843306074
:100DE000306800F00700B84201D00120E5E728781C
:100DF000400705D56068E96820F4E060084360605A
:100E00002878000706D56068296920F4605040EA18
:100E1000C100606000F01EF86168084AC1F3031168
:100E2000515CC8400649086006480068FFF7F6FEB6
:100E30000020C2E70020024000100240944D00084C
:100E40000C0000201C00002001490120C8647047EC
:100E5000000042420E4A51680E4801F00C03042B78
:100E600011D0082B0FD10C48C1F38343C903C05CD8
:100E70000AD55168084AC1F34041921E515C054AA7
:100E80005043B0FBF1F070470449484370470000FD
:100E90000010024000127A006665000800093D005B
:100EA00010B5044CA068000603D5FFF735FF80207D
:100EB000A07210BD001002402DE9F84F040070D060
:100EC0002078C04DC00749D06868C0F38100012870
:100ED00007D06868C0F38100022809D16868C003A0
:100EE00006D52868800339D560680028E7D035E04A
:100EF0006068B0F5803F0BD010B1B0F5A02F11D0D5
:100F0000286820F480302860286820F4802002E0DF
:100F1000286840F480302860606890B1FFF75EFE7A
:100F200006460AE0286840F480202860F0E700BF09
:100F3000FFF754FE801B642873D828688003F7D518
:100F40000CE0FFF74BFE064605E000BFFFF746FE4C
:100F5000801B6428F0D828688003F7D420789A4E44
:100F600080074FF001094FF0000839D5686810F08C
:100F70000C0F07D06868C0F38100022809D16868A7
:100F8000C00306D42868800714D52069012808D139
:100F900010E02069B0B1C6F80090FFF71FFE0746C9
:100FA00005E00AE1FFF71AFEC01B0228C4D8286832
:100FB0008007F7D52868616920F0F80040EAC10091
:100FC00028600DE0C6F80080FFF708FE074604E041
:100FD000FFF704FEC01B022823D828688007F7D437
:100FE000207800072CD57948A169D9B1C0F80090C4
:100FF000FFF7F4FD074604E0FFF7F0FDC01B0228F1
:101000000FD8686A8007F7D571484FF4FA51006825
:10101000B0FBF1F0009000BF0098411E0091FAD2A1
:101020000EE080E0C0F80080FFF7D8FD074604E03E
:10103000FFF7D4FDC01B022875D8686A8007F7D473
:101040002078400760D5E8690027C00008D4E86927
:1010500040F08050E861E869012700F0805000907E
:101060005C480168C90513D40168834641F4807166
:101070000160FFF7B3FD824606E000BFFFF7AEFD5B
:10108000A0EB0A0064284ED8DBF80000C005F5D5B7
:10109000E06801280AD008B1052813D0286A20F09A
:1010A00001002862286A20F0040002E0286A40F06B
:1010B00001002862E06841F2883B98B1FFF78EFD9D
:1010C00082460BE0286A40F004002862EEE700BF89
:1010D000FFF784FDA0EB0A0159455AD8286A80071A
:1010E000F6D50CE0FFF77AFD824605E0FFF776FDC6
:1010F000A0EB0A0159454CD8286A8007F6D41FB1E5
:10110000E86920F08050E861E06988B36968C1F35C
:101110008101022944D00228C6F8608004D0FFF77C
:101120005DFD044638E034E0FFF758FD074604E073
:10113000FFF754FDC01B02282BD828688001F7D484
:10114000206AB0F5803F05D16868A16820F40030BE
:1011500008436860D4E908010843696821F4741100
:1011600008436860C6F86090FFF738FD044606E063
:1011700025E000BFFFF732FD001B022809D82868D0
:101180008001F7D51BE000BFFFF728FD001B0228F8
:1011900002D90320BDE8F88F28688001F4D40EE05E
:1011A0000128F7D06868226A00F48031914204D1A6
:1011B000616A00F47010884201D00120EAE7002043
:1011C000E8E7000000100240000042428004424272
:1011D0000C0000200070004070B515460E4604005B
:1011E00007D0A069B0F5807F03D094F8410010B11A
:1011F00007E0012070BD002084F84000204600F088
:101200001DF804F108012068FFF708FB3146A268C9
:101210002068FFF737FBD4E901022946236BFFF76B
:10122000DFFAA168206850F8212042F0010240F85E
:101230002120012084F84100002070BDFFF756BB3B
:1012400010B5401EB0F1807F01D3012010BD4FF0DA
:10125000E02460610F21601702F064FF0020A061AC
:1012600007202061002010BDFEE7000070B509498D
:101270000646002408884D8821464543204602F052
:1012800099FC02F001FE044801E00680641CAC42B7
:10129000FBD370BDD00900200008006C2DE9F04F91
:1012A0002B492C260A46887192884FF4305A4FF405
:1012B000285B4FF4487541F6631E2B274FF02A0C2C
:1012C0004FF0F00845F210594FF4A0744FF4F0734A
:1012D000B8B10C80A1F802804A4532D1A1F808A02B
:1012E000A1F80AB0380288810D804B80A2F5A64093
:1012F000103801D10B804C80BDE8F04F002002F087
:1013000099BBA1F800804C804A4507D1A1F808A0FC
:10131000A1F80AB04FF42C50888105E072450E8187
:1013200005D14F81A1F80CC00B804D8002E0A1F8DF
:101330000AC08F81A2F5A6401038DDD10C804B8009
:10134000DAE70E81A1F80AC072458F81CCD0CDE7D3
:10135000D00900202DE9FE4F161ACDE900104FF0FC
:1013600000085D1A47464FF0FF30002E02DD4FF0B7
:10137000010102E003D14FF000018B4602E08346F9
:10138000C6F10006002D02DD4FF0010002E003D19E
:101390004FF00000824602E08246C5F10005AE42F1
:1013A00001DD344600E02C46601C4FF0000902903D
:1013B00018E0009881B2019880B200F019F8B044AA
:1013C0002F44A04504DD0198A8EB0408584401907F
:1013D000A74203DD00983F1B5044009009F1010033
:1013E0001FFA80F902998945E3DDBDE8FE8F000010
:1013F00000B502F0DFFB02F047FD02480249008819
:10140000088000BD100000200008006C2DE9F041AC
:101410009046304A0D460446060A918810462F0A27
:101420004089A1F5AA43103B0FD0A1F5C853633BF7
:1014300024D002F01DFD304602F00EFDE0B202F0B5
:101440000BFD908902F014FD36E002F011FD3046EC
:1014500002F002FD5089401C80B202F009FDE0B2AA
:1014600002F0FAFC908902F003FD384602F0F4FC29
:101470009089401C80B202F0FBFC20E0917919B900
:101480001188091B491E8CB202F0F2FC260A304674
:1014900002F0E2FCE0B202F0DFFC304602F0DCFCDD
:1014A000E0B202F0D9FC908902F0E2FC384602F08A
:1014B000D3FCE8B202F0D0FC384602F0CDFCE8B232
:1014C00002F0CAFC044910890880891CA1F8008038
:1014D000BDE8F081D0090020FE07006C2DE9F04343
:1014E0008146A2EB0900401C1E4685B20C46DFF87F
:1014F0003080079F0FE02146484602F05BFB02F078
:10150000C3FC0020414602E00F80401C80B2A8428C
:10151000FAD3641CA4B2B442EDD9BDE8F083000054
:101520000008006C2DE9F05FD32002F0A1FC02F06E
:1015300051FAFE4CA08002F04DFAA08002F04AFA67
:101540004FF6FF7505EA0020A08002F043FAA1885B
:1015500049F241380843A08041F6631947F2897681
:1015600045F2103A45F210574FF4704B404571D098
:10157000042002F07DFC02F02DFAA08002F02AFA8D
:10158000A08002F027FA05EA0020A08002F022FAEB
:10159000A1880843A0F50541A08052397DD0B04212
:1015A00058D0D42002F064FC02F014FAA08002F0BB
:1015B00011FAA08002F00EFA05EA0020A08002F0E5
:1015C00009FAA1880843A080504543D055215846C8
:1015D00002F064FCAA214FF2010002F05FFC5221EC
:1015E0004FF2020002F05AFC08214FF2030002F011
:1015F00055FC01214FF2040002F050FC4FF445402D
:1016000002F036FC02F0E6F905EA0020A0804CF278
:10161000015002F02DFC02F0DDF9A1880843A08002
:101620000520FFF751F9A088B84213D0A12002F09D
:101630001FFC02F0CFF9A08002F0CCF905EA0020EF
:10164000A08002F0C7F9A1880843A0F5AE41A080B0
:1016500061397DD080B240457BD1CF2002F008FCBB
:10166000002002F0F9FBC12002F0F6FB302002F06E
:10167000F3FBED2002F0FCFB642002F0EDFB032005
:1016800002F0EAFB122002F0E7FB812002F0E4FB0B
:10169000E82002F0EDFB852000E0F5E002F0DCFB45
:1016A000102002F0D9FB7A2002F0D6FBCB2002F00A
:1016B000DFFB392002F0D0FB2C2002F0CDFB002014
:1016C00002F0CAFB342002F0C7FB022002F0C4FB88
:1016D000F72002F0CDFB202002F0BEFBEA2002F052
:1016E000C7FB002002F0B8FB002002F0B5FBC020D1
:1016F00002F0BEFB1B2002F0AFFBC12002F0B8FBE2
:10170000012002F0A9FBC52002F0B2FB302002F05C
:10171000A3FB302002F0A0FBC72002F0A9FBB720FA
:1017200002F09AFB362002F0A3FB482002F094FB63
:101730003A2002F09DFB552002F08EFBB12002F012
:1017400097FB002002F088FB1A2002F085FB01E0E5
:101750009CE09FE0B62002F08BFB0A2002F07CFBAD
:10176000A22002F079FBF22002F082FB002002F0BE
:1017700073FB262002F07CFB012002F06DFBE020D1
:1017800002F076FB0F2002F067FB2A2002F064FBD8
:10179000282002F061FB082002F05EFB0E2002F020
:1017A0005BFB082002F058FB542002F055FBA920F7
:1017B00002F052FB432002F04FFB0A2002F04CFBE8
:1017C0000F2002F049FB002002F046FB002002F04F
:1017D00043FB002002F040FB002002F03DFBE12033
:1017E00002F046FB002002F037FB152002F034FB2C
:1017F000172002F031FB072002F02EFB112002F02F
:101800002BFB062002F028FB2B2002F025FB5620A4
:1018100002F022FB3C2002F01FFB052002F01CFB23
:10182000102002F019FB0F2002F016FB3F2002F0FF
:1018300013FB3F2002F010FB0F2002F00DFB2B20CA
:1018400002F016FB002002F007FB002002F004FB70
:10185000012002F001FB3F2002F0FEFA2A2002F0F4
:1018600007FB002002F0F8FA002002F0F5FA002051
:1018700002F0F2FAEF2002F0EFFA112002F0F8FA8B
:101880007820FFF721F8DBE0A68005E0A4F80490BB
:1018900001F0D8BFB0427CD1112002F0E9FA7820E3
:1018A000FFF712F8362002F0E3FA002002F0D4FA33
:1018B0003A2002F0DDFA052002F0CEFAB22002F062
:1018C000D7FA0C2002F0C8FA0C2002F0C5FA00206A
:1018D00002F0C2FA332002F0BFFA332002F0BCFA61
:1018E000B72002F0C5FA352002F0B6FABB2002F0AC
:1018F000BFFA322002F0B0FAC02002F0B9FA0C2090
:1019000002F0AAFAC22002F0B3FA012002F0A4FA0F
:10191000C32002F0ADFA102002F09EFAC42002F0BB
:10192000A7FA202002F098FAC62001E0D009002092
:1019300002F09EFA0F2002F08FFAD02002F098FAFF
:10194000A42002F089FAA12002F086FAE02002F039
:101950008FFAD02002F080FA002002F07DFA0220F7
:1019600002F07AFA072002F077FA0A2002F074FAFD
:10197000282002F071FA322002F06EFA442002F0C0
:101980006BFA422002F068FA062002F065FA0E2097
:1019900000E058E002F060FA122002F05DFA142034
:1019A00002F05AFA172002F057FAE12002F060FA2A
:1019B000D02002F051FA002002F04EFA022002F08C
:1019C0004BFA072002F048FA0A2002F045FA2820D4
:1019D00002F042FA312002F03FFA542002F03CFAC1
:1019E000472002F039FA0E2002F036FA1C2002F0ED
:1019F00033FA172002F030FA1B2002F02DFA1E20D5
:101A000002F02AFA2A2002F033FA002002F024FA27
:101A1000002002F021FA002002F01EFAEF2002F06E
:101A20001BFA2B2002F024FA002002F015FA002005
:101A300002F012FA012002F00FFA3F2002F00CFA35
:101A4000292001F0FABE50457ED1ED2002F010FAB7
:101A5000012002F001FAFE2002F0FEF9EE2002F071
:101A600007FADE2002F0F8F9212002F0F5F9F12062
:101A700002F0FEF9012002F0EFF9DF2002F0F8F9A0
:101A8000102002F0E9F9C42002F0F2F98F2002F0F0
:101A9000E3F9C62002F0ECF9002002F0DDF9E220C3
:101AA00002F0DAF9E22002F0D7F9E22002F0D4F9EC
:101AB000BF2002F0DDF9AA2002F0CEF9B02002F03A
:101AC000D7F90D2002F0C8F9002002F0C5F90D2069
:101AD00002F0C2F9002002F0BFF9112002F0BCF9B7
:101AE000002002F0B9F9192002F0B6F9002002F046
:101AF000B3F9212002F0B0F9002002F0ADF92D2059
:101B000002F0AAF9002002F0A7F93D2002F0A4F9A2
:101B1000002002F0A1F95D2002F09EF9002002F001
:101B20009BF95D2002F098F9002002F095F9B120B0
:101B300002F09EF9802002F08FF9002002F08CF96B
:101B40008B2002F089F900E0FDE3002002F084F927
:101B5000962002F081F9002002F07EF9B22002F016
:101B600087F9002002F078F9002002F075F90220D0
:101B700002F072F9002002F06FF9032002F06CF914
:101B8000002002F069F9B32002F072F9002002F09F
:101B900063F9002002F060F9002002F05DF90020F6
:101BA00002F05AF9002002F057F9002002F054F92F
:101BB000002002F051F9002002F04EF9002002F05E
:101BC0004BF9002002F048F9002002F045F900200E
:101BD00002F042F9002002F03FF9002002F03CF947
:101BE000002002F039F9002002F036F9002002F05E
:101BF00033F9002002F030F9002002F02DF9002026
:101C000002F02AF9002002F027F9002002F024F95E
:101C1000002002F021F9002002F01EF9B42002F0A9
:101C200027F98B2002F018F9002002F015F9962010
:101C300002F012F9002002F00FF9A12002F00CF9D5
:101C4000002002F009F9B52002F012F9022002F09A
:101C500003F9002002F000F9032002F0FDF8002053
:101C600002F0FAF8042002F0F7F8002002F0F4F88D
:101C7000B62002F0FDF8002002F0EEF8002002F09D
:101C8000EBF8B72002F0F4F8002002F0E5F80020AD
:101C900002F0E2F83F2002F0DFF8002002F0DCF86A
:101CA0005E2002F0D9F8002002F0D6F8642002F09D
:101CB000D3F8002002F0D0F88C2002F0CDF80020FC
:101CC00002F0CAF8AC2002F0C7F8002002F0C4F815
:101CD000DC2002F0C1F8002002F0BEF8702002F013
:101CE000BBF8002002F0B8F8902002F0B5F8002010
:101CF00002F0B2F8EB2002F0AFF8002002F0ACF8EE
:101D0000DC2002F0A9F8002002F0A6F8B82002F0CA
:101D1000AFF8002002F0A0F8002002F09DF80020AB
:101D200002F09AF8002002F097F8002002F094F8F0
:101D3000002002F091F8002002F08EF8002002F05E
:101D40008BF8BA2002F094F8242002F085F80020E5
:101D500002F082F8002002F07FF8002002F07CF808
:101D6000C12002F085F8202002F076F8002002F071
:101D700073F8542002F070F8002002F06DF8FF2094
:101D800002F06AF8002002F067F8C22002F070F852
:101D90000A2002F061F8002002F05EF8042002F050
:101DA0005BF8002002F058F8C32002F061F83C20F4
:101DB00002F052F8002002F04FF83A2002F04CF8FE
:101DC000002002F049F8392002F046F8002002F025
:101DD00043F8372002F040F8002002F03DF83C20A4
:101DE00002F03AF8002002F037F8362002F034F81A
:101DF000002002F031F8322002F02EF8002002F02C
:101E00002BF82F2002F028F8002002F025F82C20D3
:101E100002F022F8002002F01FF8292002F01CF83E
:101E2000002002F019F8262002F016F8002002F037
:101E300013F8242002F010F8002002F00DF82420FE
:101E400002F00AF8002002F007F8232002F004F85C
:101E5000002002F001F83C2001F0FEFF002001F01C
:101E6000FBFF362001F0F8FF002001F0F5FF3220E3
:101E700001F0F2FF002001F0EFFF2F2001F0ECFF56
:101E8000002001F0E9FF2C2001F0E6FF002001F026
:101E9000E3FF292001F0E0FF002001F0DDFF262014
:101EA00001F0DAFF002001F0D7FF242001F0D4FF79
:101EB000002001F0D1FF242001F0CEFF002001F02E
:101EC000CBFF232001F0C8FF002001F0C5FFC42094
:101ED00001F0CEFF622001F0BFFF002001F0BCFF47
:101EE000052001F0B9FF002001F0B6FF842001F0C9
:101EF000B3FF002001F0B0FFF02001F0ADFF0020A3
:101F000001F0AAFF182001F0A7FF002001F0A4FFB4
:101F1000A42001F0A1FF002001F09EFF182001F095
:101F20009BFF002001F098FF502001F095FF00205A
:101F300001F092FF0C2001F08FFF002001F08CFFD8
:101F4000172001F089FF002001F086FF952001F0A5
:101F500083FF002001F080FFF32001F07DFF0020CF
:101F600001F07AFFE62001F077FF002001F074FF16
:101F7000C52001F07DFF322001F06EFF002001F04E
:101F80006BFF442001F068FF002001F065FF652031
:101F900001F062FF002001F05FFF762001F05CFF9E
:101FA000002001F059FF882001F056FF002001F0C9
:101FB00053FFC62001F05CFF202001F04DFF002000
:101FC00001F04AFF172001F047FF002001F044FF15
:101FD000012001F041FF002001F03EFFC72001F089
:101FE00047FF002001F038FF002001F035FF0020FE
:101FF00001F032FF002001F02FFFC82001F038FF70
:10200000002001F029FF002001F026FF002001F050
:1020100023FF002001F020FFC92001F029FF00204C
:1020200001F01AFF002001F017FF002001F014FF5B
:10203000002001F011FF002001F00EFF002001F050
:102040000BFF002001F008FF002001F005FF002039
:1020500001F002FF002001F0FFFE002001F0FCFE75
:10206000002001F0F9FE002001F0F6FE002001F052
:10207000F3FE002001F0F0FE002001F0EDFEE02074
:1020800001F0F6FE162001F0E7FE002001F0E4FE6C
:102090001C2001F0E1FE002001F0DEFE212001F015
:1020A000DBFE002001F0D8FE362001F0D5FE002036
:1020B00001F0D2FE462001F0CFFE002001F0CCFE60
:1020C000522001F0C9FE002001F0C6FE642001F09C
:1020D000C3FE002001F0C0FE7A2001F0BDFE00200A
:1020E00001F0BAFE8B2001F0B7FE002001F0B4FE33
:1020F000992001F0B1FE002001F0AEFEA82001F011
:10210000ABFE002001F0A8FEB92001F0A5FE0020E2
:1021100001F0A2FEC42001F09FFE002001F09CFE11
:10212000CA2001F099FE002001F096FED22001F0B5
:1021300093FE002001F090FED92001F08DFE0020DA
:1021400001F08AFEE02001F087FE002001F084FE0D
:10215000F32001F081FE002001F07EFEE12001F07D
:1021600087FE162001F078FE002001F075FE1C208D
:1021700001F072FE002001F06FFE222001F06CFEE3
:10218000002001F069FE362001F066FE002001F01B
:1021900063FE452001F060FE002001F05DFE52204C
:1021A00001F05AFE002001F057FE642001F054FEB9
:1021B000002001F051FE7A2001F04EFE002001F0D7
:1021C0004BFE8B2001F048FE002001F045FE9920D7
:1021D00001F042FE002001F03FFEA82001F03CFE8D
:1021E000002001F039FEB92001F036FE002001F098
:1021F00033FEC42001F030FE002001F02DFECA2085
:1022000001F02AFE002001F027FED22001F024FE7A
:10221000002001F021FED82001F01EFE002001F078
:102220001BFEE02001F018FE002001F015FEF32057
:1022300001F012FE002001F00FFEE22001F018FE76
:10224000052001F009FE002001F006FE0B2001F040
:1022500003FE002001F000FE1B2001F0FDFD002028
:1022600001F0FAFD342001F0F7FD002001F0F4FD4B
:10227000442001F0F1FD002001F0EEFD4F2001F0BF
:10228000EBFD002001F0E8FD612001F0E5FD0020FC
:1022900001F0E2FD792001F0DFFD002001F0DCFD1E
:1022A000882001F0D9FD002001F0D6FD972001F033
:1022B000D3FD002001F0D0FDA62001F0CDFD0020CF
:1022C00001F0CAFDB72001F0C7FD002001F0C4FDF8
:1022D000C22001F0C1FD002001F0BEFDC72001F0C9
:1022E000BBFD002001F0B8FDD12001F0B5FD0020BC
:1022F00001F0B2FDD62001F0AFFD002001F0ACFDF1
:10230000DD2001F0A9FD002001F0A6FDF32001F081
:10231000A3FD002001F0A0FDE32001F0A9FD0520B0
:1023200001F09AFD002001F097FD0A2001F094FDD4
:10233000002001F091FD1C2001F08EFD002001F035
:102340008BFD332000E0FAE201F086FD002001F071
:1023500083FD442001F080FD002001F07DFD502030
:1023600001F07AFD002001F077FD622001F074FD9C
:10237000002001F071FD782001F06EFD002001F0D9
:102380006BFD882001F068FD002001F065FD9720BD
:1023900001F062FD002001F05FFDA62001F05CFD70
:1023A000002001F059FDB72001F056FD002001F09A
:1023B00053FDC22001F050FD002001F04DFDC7206B
:1023C00001F04AFD002001F047FDD12001F044FD5D
:1023D000002001F041FDD52001F03EFD002001F07C
:1023E0003BFDDD2001F038FD002001F035FDF3203C
:1023F00001F032FD002001F02FFDE42001F038FD56
:10240000012001F029FD002001F026FD012001F04E
:1024100023FD002001F020FD022001F01DFD002021
:1024200001F01AFD2A2001F017FD002001F014FD33
:102430003C2001F011FD002001F00EFD4B2001F0C9
:102440000BFD002001F008FD5D2001F005FD0020DE
:1024500001F002FD742001F0FFFC002001F0FCFC03
:10246000842001F0F9FC002001F0F6FC932001F03B
:10247000F3FC002001F0F0FCA22001F0EDFC0020B4
:1024800001F0EAFCB32001F0E7FC002001F0E4FCDD
:10249000BE2001F0E1FC002001F0DEFCC42001F0D0
:1024A000DBFC002001F0D8FCCD2001F0D5FC0020A1
:1024B00001F0D2FCD32001F0CFFC002001F0CCFCD5
:1024C000DD2001F0C9FC002001F0C6FCF32001F082
:1024D000C3FC002001F0C0FCE52001F0C9FC002095
:1024E00001F0BAFC002001F0B7FC002001F0B4FCC0
:1024F000002001F0B1FC022001F0AEFC002001F050
:10250000ABFC292001F0A8FC002001F0A5FC3C2038
:1025100001F0A2FC002001F09FFC4B2001F09CFC8C
:10252000002001F099FC5D2001F096FC002001F0F4
:1025300093FC742001F090FC002001F08DFC8420BD
:1025400001F08AFC002001F087FC932001F084FC5C
:10255000002001F081FCA22001F07EFC002001F0AF
:102560007BFCB32001F078FC002001F075FCBE205C
:1025700001F072FC002001F06FFCC42001F06CFC43
:10258000002001F069FCCD2001F066FC002001F084
:1025900063FCD32001F060FC002001F05DFCDC2036
:1025A00001F05AFC002001F057FCF32001F054FC2C
:1025B000002001F051FCE62001F05AFC112001F04E
:1025C0004BFC002001F048FC342001F045FC0020C9
:1025D00001F042FC562001F03FFC002001F03CFCE1
:1025E000762001F039FC002001F036FC772001F064
:1025F00033FC002001F030FC662001F02DFC0020AF
:1026000001F02AFC882001F027FC002001F024FCC6
:10261000992001F021FC002001F01EFCBB2001F0FC
:102620001BFC002001F018FC992001F015FC002093
:1026300001F012FC662001F00FFC002001F00CFC00
:10264000552001F009FC002001F006FC552001F0A6
:1026500003FC002001F000FC452001F0FDFB002000
:1026600001F0FAFB432001F0F7FB002001F0F4FB3E
:10267000442001F0F1FB002001F0EEFBE72001F027
:10268000F7FB322001F0E8FB002001F0E5FB5520CC
:1026900001F0E2FB002001F0DFFB762001F0DCFB23
:1026A000002001F0D9FB662001F0D6FB002001F0EC
:1026B000D3FB672001F0D0FB002001F0CDFB6720A9
:1026C00001F0CAFB002001F0C7FB872001F0C4FB2A
:1026D000002001F0C1FB992001F0BEFB002001F0B9
:1026E000BBFBBB2001F0B8FB002001F0B5FB99203B
:1026F00001F0B2FB002001F0AFFB772001F0ACFB52
:10270000002001F0A9FB442001F0A6FB002001F00D
:10271000A3FB562001F0A0FB002001F09DFB23202D
:1027200001F09AFB002001F097FB332001F094FBAD
:10273000002001F091FB452001F08EFB002001F00C
:102740008BFBE82001F094FB002001F085FB0020CA
:1027500001F082FB992001F07FFB002001F07CFB5F
:10276000872001F079FB002001F076FB882001F042
:1027700073FB002001F070FB772001F06DFB00205F
:1027800001F06AFB662001F067FB002001F064FBAA
:10279000882001F061FB002001F05EFBAA2001F01F
:1027A0005BFB002001F058FBBB2001F055FB002033
:1027B00001F052FB992001F04FFB002001F04CFB8F
:1027C000662001F049FB002001F046FB552001F096
:1027D00043FB002001F040FB552001F03DFB0020B1
:1027E00001F03AFB442001F037FB002001F034FBFC
:1027F000442001F031FB002001F02EFB552001F0B8
:102800002BFB002001F028FBE92001F031FBAA207E
:1028100001F022FB002001F01FFB002001F01CFB57
:10282000002001F019FB002001F022FBAA2001F09A
:1028300013FBCF2001F01CFB002001F00DFB00205A
:1028400001F00AFB002001F007FB002001F004FB6F
:10285000002001F001FB002001F0FEFA002001F051
:10286000FBFA002001F0F8FA002001F0F5FA002050
:1028700001F0F2FA002001F0EFFA002001F0ECFA8A
:10288000002001F0E9FA002001F0E6FA002001F052
:10289000E3FA002001F0E0FA002001F0DDFAF02078
:1028A00001F0E6FA002001F0D7FA502001F0D4FA46
:1028B000002001F0D1FA002001F0CEFA002001F052
:1028C000CBFAF32001F0D4FA002001F0C5FAF92088
:1028D00001F0CEFA062001F0BFFA102001F0BCFA98
:1028E000292001F0B9FA002001F0B6FA3A2001F0EF
:1028F000BFFA552001F0B0FA112001F0B9FA6420B6
:10290000FDF7E2FF292001F0B3FA352001F0B0FA1B
:10291000002001F0A1FA512001F0AAFAFF2001F0F5
:102920009BFA532001F0A4FA2C2001F095FA5520CF
:1029300001F09EFA822001F08FFA2C20FDE3B842CC
:102940007DD15521584601F0A9FA4FF20103AA2181
:10295000184601F0A3FA4FF202045221204601F07A
:102960009DFA661C0821304601F098FAA71C012147
:10297000384601F093FA0D214FF4304001F08EFA01
:102980000D214BF2010001F089FA0D214BF20200FA
:1029900001F084FA4FF436483421404601F07EFAC3
:1029A00034214BF2016001F079FA34214BF20260DC
:1029B00001F074FA4FF431490D21484601F06EFAE6
:1029C0004BF2011A0D21504601F068FA0D214BF22D
:1029D000021001F063FA34214FF4374001F05EFA3F
:1029E00034214BF2017001F059FA34214BF202709C
:1029F00001F054FA00214FF4324001F04FFA002167
:102A00004BF2012001F04AFA00214BF2022001F0C2
:102A100045FA24214FF4384001F040FA24214BF6C6
:102A2000010001F03BFA24214BF6020001F036FAD6
:102A300001214FF43F4001F031FA0F2100E0FDE3A6
:102A40004FF4334001F02AFA0F214BF2013001F02C
:102A500025FA0F214BF2023001F020FA34214FF415
:102A6000394001F01BFA34214BF6011001F016FA3F
:102A700034214BF6021001F011FA08214FF43540D1
:102A800001F00CFA08214BF2015001F007FA08217D
:102A90004BF2025001F002FA03214FF4424001F0E0
:102AA000FDF924214FF43A4001F0F8F924214BF6C6
:102AB000012001F0F3F924214BF6022001F0EEF998
:102AC00000214FF43C4001F0E9F978214BF6014038
:102AD00001F0E4F900214BF6024001F0DFF900219A
:102AE0004FF43D4001F0DAF978214BF6015001F046
:102AF000D5F900214BF6025001F0D0F900214FF436
:102B00003E4001F0CBF964214BF6016001F0C6F9BB
:102B100000214FF4514001F0C1F933214DF2011071
:102B200001F0BCF900214DF2021001F0B7F9342197
:102B30004DF2031001F0B2F900214DF2041001F042
:102B4000ADF93A214DF2051001F0A8F900214DF23E
:102B5000061001F0A3F94A214DF2071001F09EF989
:102B600000214DF2081001F099F95C214DF2091095
:102B700001F094F900214DF20A1001F08FF9812142
:102B80004DF20B1001F08AF900214DF20C1001F00A
:102B900085F9A6214DF20D1001F080F900214DF2CA
:102BA0000E1001F07BF9E5214DF20F1001F076F9DE
:102BB00001214DF2101001F071F913214DF21110A5
:102BC00001F06CF901214DF2121001F067F9542166
:102BD0004DF2131001F062F901214DF2141001F0D1
:102BE0005DF982214DF2151001F058F901214DF2E5
:102BF000161001F053F9CA214DF2171001F04EF9E9
:102C000002214DF2181001F049F900214DF219107E
:102C100001F044F902214DF21A1001F03FF90121AF
:102C20004DF21B1001F03AF902214DF21C1001F097
:102C300035F934214DF21D1001F030F902214DF229
:102C40001E1001F02BF967214DF21F1001F026F93B
:102C500002214DF2201001F021F984214DF22110C2
:102C600001F01CF902214DF2221001F017F9A42104
:102C70004DF2231001F012F902214DF2241001F05F
:102C80000DF9B7214DF2251001F008F902214DF29E
:102C9000261001F003F9CF214DF2271001F0FEF8C4
:102CA00002214DF2281001F0F9F8DE214DF2291031
:102CB00001F0F4F802214DF22A1001F0EFF8F221B0
:102CC0004DF22B1001F0EAF802214DF22C1001F028
:102CD000E5F8FE214DF22D1001F0E0F803214DF250
:102CE0002E1001F0DBF810214DF22F1001F0D6F874
:102CF00003214DF2301001F0D1F833214DF23110A3
:102D000001F0CCF803214DF2321001F0C7F86D212B
:102D10004DF2331001F0C2F800214FF4524001F09F
:102D2000BDF833214DF2012001F0B8F800214DF239
:102D3000022001F0B3F834214DF2032001F0AEF887
:102D400000214DF2042001F0A9F83A214DF20520AE
:102D500001F0A4F800214DF2062001F09FF84A216D
:102D60004DF2072001F09AF800214DF2082001F001
:102D700095F85C214DF2092001F090F800214DF208
:102D80000A2001F08BF881214DF20B2001F086F82A
:102D900000214DF20C2001F081F8A6214DF20D200A
:102DA00001F07CF800214DF20E2001F077F8E521CA
:102DB0004DF20F2001F072F801214DF2102001F0C8
:102DC0006DF813214DF2112001F068F801214DF248
:102DD000122001F063F854214DF2132001F05EF847
:102DE00001214DF2142001F059F882214DF21520F5
:102DF00001F054F801214DF2162001F04FF8CA21DC
:102E00004DF2172001F04AF802214DF2182001F08E
:102E100045F800214DF2192001F040F802214DF251
:102E20001A2001F03BF801214DF21B2001F036F889
:102E300002214DF21C2001F031F834214DF21D2009
:102E400001F02CF802214DF21E2001F027F8672135
:102E50004DF21F2001F022F802214DF2202001F056
:102E60001DF884214DF2212001F018F802214DF2C5
:102E7000222001F013F8A4214DF2232001F00EF8D6
:102E800002214DF2242001F009F8B7214DF225204E
:102E900001F004F802214DF2262000F0FFFFCF21BF
:102EA0004DF2272000F0FAFF02214DF2282000F019
:102EB000F5FFDE214DF2292000F0F0FF02214DF256
:102EC0002A2000F0EBFFF2214DF22B2000F0E6FF6C
:102ED00002214DF22C2000F0E1FFFE214DF22D20C9
:102EE00000F0DCFF03214DF22E2000F0D7FF10216F
:102EF0004DF22F2000F0D2FF03214DF2302000F0E0
:102F0000CDFF33214DF2312000F0C8FF03214DF2F7
:102F1000322000F0C3FF6D214DF2332000F0BEFFE0
:102F200000214FF4534000F0B9FF33214DF201303E
:102F300000F0B4FF00214DF2023000F0AFFF342169
:102F40004DF2033000F0AAFF00214DF2043000F0F2
:102F5000A5FF3A214DF2053000F0A0FF00214DF20F
:102F6000063000F09BFF4A214DF2073000F096FF3B
:102F700000214DF2083000F091FF5C214DF2093044
:102F800000F08CFF00214DF20A3000F087FF812114
:102F90004DF20B3000F082FF00214DF20C3000F0BA
:102FA0007DFFA6214DF20D3000F078FF00214DF29B
:102FB0000E3000F073FFE5214DF20F3000F06EFF90
:102FC00001214DF2103000F069FF13214DF2113054
:102FD00000F064FF01214DF2123000F05FFF542138
:102FE0004DF2133000F05AFF01214DF2143000F081
:102FF00055FF82214DF2153000F050FF01214DF2B6
:10300000163000F04BFFCA214DF2173000F046FF9A
:1030100002214DF2183000F041FF00214DF219302D
:1030200000F03CFF02214DF21A3000F037FF012181
:103030004DF21B3000F032FF02214DF21C3000F047
:103040002DFF34214DF21D3000F028FF02214DF2FA
:103050001E3000F023FF67214DF21F3000F01EFFED
:1030600002214DF2203000F019FF84214DF2213071
:1030700000F014FF02214DF2223000F00FFFA421D6
:103080004DF2233000F00AFF02214DF2243000F00F
:1030900005FFB7214DF2253000F000FF02214DF26F
:1030A000263000F0FBFECF214DF2273000F0F6FE77
:1030B00002214DF2283000F0F1FEDE214DF22930E0
:1030C00000F0ECFE02214DF22A3000F0E7FEF22182
:1030D0004DF22B3000F0E2FE02214DF22C3000F0D8
:1030E000DDFEFE214DF22D3000F0D8FE03214DF221
:1030F0002E3000F0D3FE10214DF22F3000F0CEFE26
:1031000003214DF2303000F0C9FE33214DF2313051
:1031100000F0C4FE03214DF2323000F0BFFE6D21FD
:103120004DF2333000F0BAFE00214FF4544000F06D
:10313000B5FE33214DF2014000E07EE300F0AEFE2B
:1031400000214DF2024000F0A9FE34214DF203406F
:1031500000F0A4FE00214DF2044000F09FFE3A2151
:103160004DF2054000F09AFE00214DF2064000F0BD
:1031700095FE4A214DF2074000F090FE00214DF2ED
:10318000084000F08BFE5C214DF2094000F086FE05
:1031900000214DF20A4000F081FE81214DF20B40EA
:1031A00000F07CFE00214DF20C4000F077FEA621DD
:1031B0004DF20D4000F072FE00214DF20E4000F085
:1031C0006DFEE5214DF20F4000F068FE01214DF249
:1031D000104000F063FE13214DF2114000F05EFE3E
:1031E00001214DF2124000F059FE54214DF21340DE
:1031F00000F054FE01214DF2144000F04FFE8221F8
:103200004DF2154000F04AFE01214DF2164000F04B
:1032100045FECA214DF2174000F040FE02214DF25A
:10322000184000F03BFE00214DF2194000F036FE40
:1032300002214DF21A4000F031FE00E000E30121CE
:103240004DF21B4000F02AFE02214DF21C4000F01E
:1032500025FE34214DF21D4000F020FE02214DF2EA
:103260001E4000F01BFE67214DF21F4000F016FECD
:1032700002214DF2204000F011FE84214DF2214048
:1032800000F00CFE02214DF2224000F007FEA421C6
:103290004DF2234000F002FE02214DF2244000F0E6
:1032A000FDFDB7214DF2254000F0F8FD02214DF261
:1032B000264000F0F3FDCF214DF2274000F0EEFD57
:1032C00002214DF2284000F0E9FDDE214DF22940B7
:1032D00000F0E4FD02214DF22A4000F0DFFDF22172
:1032E0004DF22B4000F0DAFD02214DF22C4000F0AF
:1032F000D5FDFE214DF22D4000F0D0FD03214DF211
:103300002E4000F0CBFD10214DF22F4000F0C6FD05
:1033100003214DF2304000F0C1FD33214DF2314028
:1033200000F0BCFD03214DF2324000F0B7FD6D21ED
:103330004DF2334000F0B2FD00214FF4554000F053
:10334000ADFD33214DF2015000F0A8FD00214DF2FA
:10335000025000F0A3FD34214DF2035000F09EFD19
:1033600000214DF2045000F099FD3A214DF2055034
:1033700000F094FD00214DF2065000F08FFD4A212F
:103380004DF2075000F08AFD00214DF2085000F088
:1033900085FD5C214DF2095000F080FD00214DF2C9
:1033A0000A5000F07BFD81214DF20B5000F076FDBC
:1033B00000214DF20C5000F071FDA6214DF20D5090
:1033C00000F06CFD00214DF20E5000F067FDE5218C
:1033D0004DF20F5000F062FD01214DF2105000F04F
:1033E0005DFD13214DF2115000F058FD01214DF209
:1033F000125000F053FD54214DF2135000F04EFDD9
:1034000001214DF2145000F049FD82214DF215507A
:1034100000F044FD01214DF2165000F03FFDCA219D
:103420004DF2175000F03AFD02214DF2185000F015
:1034300035FD00214DF2195000F030FD02214DF212
:103440001A5000F02BFD01214DF21B5000F026FD1B
:1034500002214DF21C5000F021FD34214DF21D508F
:1034600000F01CFD02214DF21E5000F017FD6721F7
:103470004DF21F5000F012FD02214DF2205000F0DD
:103480000DFD84214DF2215000F008FD02214DF286
:10349000225000F003FDA4214DF2235000F0FEFC69
:1034A00002214DF2245000F0F9FCB7214DF22550D5
:1034B00000F0F4FC02214DF2265000F0EFFCCF2189
:1034C0004DF2275000F0EAFC02214DF2285000F0A6
:1034D000E5FCDE214DF2295000F0E0FC02214DF226
:1034E0002A5000F0DBFCF2214DF22B5000F0D6FC0C
:1034F00002214DF22C5000F0D1FCFE214DF22D5056
:1035000000F0CCFC03214DF22E5000F0C7FC10213E
:103510004DF22F5000F0C2FC03214DF2305000F06C
:10352000BDFC33214DF2315000F0B8FC03214DF2C7
:10353000325000F0B3FC6D214DF2335000F0AEFC80
:1035400000214FF4564000F0A9FC33214DF20160F8
:1035500000F0A4FC00214DF2026000F09FFC342139
:103560004DF2036000F09AFC00214DF2046000F07F
:1035700095FC3A214DF2056000F090FC00214DF2DF
:10358000066000F08BFC4A214DF2076000F086FCDB
:1035900000214DF2086000F081FC5C214DF20960D1
:1035A00000F07CFC00214DF20A6000F077FC8121E4
:1035B0004DF20B6000F072FC00214DF20C6000F047
:1035C0006DFCA6214DF20D6000F068FC00214DF26B
:1035D0000E6000F063FCE5214DF20F6000F05EFC30
:1035E00001214DF2106000F059FC13214DF21160E1
:1035F00000F054FC01214DF2126000F04FFC542108
:103600004DF2136000F04AFC01214DF2146000F00D
:1036100045FC82214DF2156000F040FC01214DF285
:10362000166000F03BFCCA214DF2176000F036FC3A
:1036300002214DF2186000F031FC00214DF21960BA
:1036400000F02CFC02214DF21A6000F027FC012151
:103650004DF21B6000F022FC02214DF21C6000F0D4
:103660001DFC34214DF21D6000F018FC02214DF2CA
:103670001E6000F013FC67214DF21F6000F00EFC8D
:1036800002214DF2206000F009FC84214DF22160FE
:1036900000F004FC02214DF2226000F0FFFBA421A7
:1036A0004DF2236000F0FAFB02214DF2246000F09D
:1036B000F5FBB7214DF2256000F0F0FB02214DF241
:1036C000266000F0EBFBCF214DF2276000F0E6FB17
:1036D00002214DF2286000F0E1FBDE214DF229606D
:1036E00000F0DCFB02214DF22A6000F0D7FBF22152
:1036F0004DF22B6000F0D2FB02214DF22C6000F065
:10370000CDFBFE214DF22D6000F0C8FB03214DF2F0
:103710002E6000F0C3FB10214DF22F6000F0BEFBC5
:1037200003214DF2306000F0B9FB33214DF23160DE
:1037300000F0B4FB03214DF2326000F0AFFB6D21CD
:103740004DF2336000F0AAFB5521584600F0A6FB6D
:10375000AA21184600F0A2FB5221204600F09EFB51
:103760000821304600F09AFB0021384600F096FB15
:10377000CC21484600F092FB0021504600F08EFB21
:103780000521404600F08AFB70214FF4374000F0DD
:1037900085FB70214BF2017000F080FB01214FF49A
:1037A000384000F07BFB03214BF6010000F076FB74
:1037B00003214BF6020000F071FB03214BF60300DE
:1037C00000F06CFB02214FF43C4000F067FB00214D
:1037D0004BF6014000F062FB00214BF6024000F086
:1037E0005DFBD0214FF4494000F058FB02214CF61C
:1037F000011000F053FB50214CF6021000F04EFB7C
:1038000050214CF6031000F049FB50214CF60410F7
:1038100000F044FB00214FF4545000F03FFB5521D1
:103820004FF4685000F03AFB4FF4885000F020FB52
:103830000120FDF749F84FF4245000F019FBB9E0DE
:103840004845FCD1E22000F013FB1D2000F004FBF2
:10385000022000F001FB042000F0FEFA0120FDF739
:1038600033F8E02000F004FB012000F0F5FA0A2014
:10387000FDF72AF8E02000F0FBFA032000F0ECFA54
:103880000C20FDF721F8012000F0F2FA0A20FDF7E4
:103890001BF8E62000F0ECFA2F2000F0DDFAFF2004
:1038A00000F0DAFAFF2000F0D7FAB02000F0E0FADA
:1038B000202000F0D1FA002000F0CEFA032000F022
:1038C000CBFA40F21F3000F0C7FA012000F0C4FA32
:1038D00040F2DF1000F0C0FA002000F0BDFAB42082
:1038E00000F0C6FA042000F0B7FA40F21F4000F0E2
:1038F000B3FA002000F0B0FA2E2000F0ADFA00205C
:1039000000F0AAFA002000F0A7FA002000F0A4FAC4
:10391000002000F0A1FAB62000F0AAFA022000F080
:103920009BFA4FF4037000F097FA002000F094FA2D
:10393000172000F091FA152000F08EFA002000F018
:103940008BFA002000F088FAF02000F091FA0320B2
:1039500000F082FA292000F08BFAD02000F088FADB
:10396000002000F079FABE2000F082FA052000F075
:1039700073FAFE2000F070FA012000F06DFA0020CA
:1039800000F06AFA002000F067FA002000F064FA04
:10399000B82000F06DFA032000F05EFA012000F07C
:1039A0005BFABA2000F064FA012000F055FA6420B6
:1039B00000F01AF80020FDF771FC2846BDE8F05F22
:1039C000FDF754BC0246012000E05043491EC9B235
:1039D000FBD27047034808B50088ADF80000BDF879
:1039E000000008BD0008006C10B50246BE2000F0C3
:1039F0003FFA052000F030FA1046FCF7D0FD4FF0FA
:103A000066320B4BFCF743FDFCF7EAFD80B200F099
:103A100023FA012000F020FAFF2000F01DFA002018
:103A200000F01AFABDE81040002000F015BA0000BE
:103A30006666044070B55E4C00232146A2798988F1
:103A400041F66316012A01D01AB10CE0B14202D14D
:103A500009E0B14207D1082805D2DFE800F01618C6
:103A600012140C19100E082812D2DFE800F011040D
:103A700006080A0C0E1080230AE0402308E0C02349
:103A800006E0202304E0602302E0A02300E0E0231E
:103A900045F21055A94202D14FF4585000E03620AB
:103AA000A1F51342413A03D0A1F5EE42893A01D182
:103AB00043F00803194600F0F1F9A188B1420AD099
:103AC00098062088628802D5904202D303E0904293
:103AD00001D9228060806089A94240D100F0C8F9F4
:103AE000002000F0B9F96089401C80B200F0C0F9F4
:103AF000002000F0B1F96089801C80B200F0B8F9B4
:103B00002088401EC0F30F2000F0A6F96089C01C79
:103B100080B200F0ADF92078401EC0B200F09CF9F0
:103B2000A08900F0A5F9002000F096F9A089401CBA
:103B300080B200F09DF9002000F08EF9A089801C71
:103B400080B200F095F96088401EC0F30F2000F0AD
:103B500083F9A089C01C80B200F08AF921E000F04E
:103B600087F9002000F078F9002000F075F920882E
:103B7000401EC0F30F2000F06FF92078401EC0B245
:103B800000F06AF9A08900F073F9002000F064F9F0
:103B9000002000F061F96088401EC0F30F2000F0A3
:103BA0005BF9A078BDE87040401EC0B200F054B987
:103BB000D0090020F0B53B4A0D460446060A91881C
:103BC00010462F0A4089A1F5C853633B16D0A1F5D2
:103BD000AA43103B4CD000F04BF9304600F03CF9C2
:103BE000E0B200F039F9908900F042F9384600F06F
:103BF00033F9E8B2BDE8F04000F02EB9917931B365
:103C000000F036F9304600F027F9E0B200F024F970
:103C10001088401EC0F30F2000F01EF91078401EDF
:103C20005FFA80F000F018F9908900F021F9384629
:103C300000F012F9E8B200F00FF95088401EC0F30E
:103C40000F2000F009F99078401EC0B2D2E7118829
:103C5000091B491E8CB200F00BF9002000F0FCF8A3
:103C6000002000F0F9F8200A00F0F6F8E0B2D9E7F9
:103C700000F0FEF8304600F0EFF85089401C80B2AA
:103C800000F0F6F8E0B200F0E7F8908900F0F0F804
:103C9000384600F0E1F89089401C80B200F0E8F866
:103CA000A7E70000D00900202DE9FF4F1D460C4674
:103CB0008A46580700D0012000EBD5006908484328
:103CC000203A00F0FF09D0B20026DFF89CB0029045
:103CD00046E00C2D12D0102D15D0182D42D102988F
:103CE000224900EBC00000BF01EB80004FF000084C
:103CF000875D38060CD51E4800880DE002981D49E6
:103D000000EB4000F0E71C49029801EB0010EDE7E2
:103D10000D9830B916488088214682B20098FDF788
:103D200075FB7806070E641CBBF80200A4B2A04223
:103D300018D9A4EB0A00A84209D100985446401CA7
:103D400080B20090BBF8001081420BD906E008F168
:103D5000010000F0FF08B8F1080FCAD3761CF6B2D4
:103D60004E45B6D3BDE8FF8FD009002008580008A3
:103D700010000020A44D0008185200082DE9F84F4B
:103D8000044600F0FF0910190D46DDE90AB61FFAD6
:103D900080F8581987B24FF0000A12E0444503D367
:103DA00005EB0B004C4685B2BD420FD25B4629465F
:103DB0002046CDF800A0FFF777FF04EB5B0084B24C
:103DC000761C3278A2F120005E28E7D9BDE8F88F92
:103DD0002DE9FF4F81B04FF00008DDE90EBA1E4615
:103DE000814644460AF001054FEA5B072CE0301B90
:103DF000401EC1B20A20FFF7E5FD0399B1FBF0F0C8
:103E00000A21B0FBF1F201FB1200B8F1000F05D15D
:103E1000711E8C4202DA48B14FF001083030C2B254
:103E200007FB049080B25B46009508E05FEA0A60F9
:103E300007FB049080B25B4600950AD530220299B8
:103E4000FFF732FF641CE4B2B442D0D305B0BDE842
:103E5000F08F2022F3E7000001B5BDF80000ADF8B7
:103E60000000BDF800000149088008BD0008006C92
:103E700001B5BDF80000ADF80000BDF80000014933
:103E8000088008BDFE07006C0248034900890880CD
:103E900070470000D0090020FE07006C024A108025
:103EA000901C018070470000FE07006C10B58EB0BA
:103EB0001C216846FCF771F91C2107A8FCF76DF975
:103EC0001C484FF02041102201601B49416006212F
:103ED00081600021C160C0E904128161C1611302E7
:103EE0000162C0E909139302C0E90B1341638163C6
:103EF000022000900F20CDE9010203AC112384E8D9
:103F00000E0004240691CDE9074009AC092084E89D
:103F10000F000D9107AA69460648FDF75DF908B143
:103F2000FCF75CFC0548C16941F48061C1610EB0D9
:103F300010BD000088090020040100A0000001401D
:103F40002DE9F04786B00024524800940194029471
:103F50000394816941F040018161816901F0400170
:103F60000491816941F010018161816901F01001C2
:103F70000491816941F008018161816901F00801C2
:103F80000491816941F480718161816901F48071DA
:103F90000491816941F020018161816901F0200172
:103FA0000491816941F0040181618069DFF8E88052
:103FB00000F004000490002241F201014046FCF7A9
:103FC00008FEDFF8D8904FF4E077002239464846E3
:103FD000FCF7FFFDDFF8C8A0002240215046FCF7A7
:103FE000F8FD182000902F480125CDE9010569460C
:103FF0002D48FCF7EDFC02260095CDE901566946F7
:1040000040460396FCF7E4FC2803CDE90005CDE922
:10401000024669464046FCF7DBFCF801CDE90004A6
:10402000694640460294FCF7D3FC7801CDE90004D0
:1040300069461E480294FCF7CBFC0C20CDE9000435
:10404000694648460294FCF7C3FC00970396CDE905
:10405000015469464846FCF7BBFC4020CDE9000509
:10406000CDE9024669465046FCF7B2FC0022062123
:104070000920FCF71FFE0920FCF70EFE0022052197
:104080000A20FCF717FE0A20FCF706FE06B0BDE882
:10409000F087000000100240000C014000200140A9
:1040A00000100140000021100018014000140140E0
:1040B000FEE7FCF7F5FEFEE770477047FCF794BD9E
:1040C00030B58FB028216846FCF767F814210AA89C
:1040D000FCF763F801210804CDE9001000240294E4
:1040E00002250491CDE907504FF4E010099068468D
:1040F000FCF7E2FE08B172B6FEE70F20CDE90A0533
:104100004FF48060CDE90C4002210AA80E94FCF720
:1041100005FE08B172B6FEE7FCF796FE0FB030BDA3
:104120007047FEE70907090E002804DB00F1E020D4
:1041300080F80014704700F00F0000F1E02080F8D4
:10414000141D704702E008C8121F08C1002AFAD1E6
:1041500070477047002001E001C1121F002AFBD107
:10416000704700008EB000200B90FCF745FDFFF774
:10417000A7FFFFF7E5FEFFF799FEFDF7D3F9012052
:10418000FDF78CF801221146FE48FCF722FD0020C5
:104190004FF4F0784FF4167743463A4601460090C4
:1041A000FDF79CF9F84C4FF6FF70F02320603A467B
:1041B00019460020FDF7CEF87A104346002110463C
:1041C000FDF7C8F848F230404FF4D2752B46206016
:1041D0003A4619460020FDF7BDF84FF4B474234663
:1041E0003A4619460020FDF7B5F87B103A461946C5
:1041F0000020FDF7AFF8B4233A4619460020FDF73A
:10420000A9F878233A4619460020FDF7A3F83C2385
:104210003A4619460020FDF79DF84FF407774346CC
:1042200038463A460021FDF795F843461A460021E4
:104230001046FDF78FF82A46434600211046FDF749
:1042400089F82246434600211046FDF783F8F02204
:10425000434600211046FDF77DF8B4224346002175
:104260001046FDF777F87822434600211046FDF707
:1042700071F83C22434600211046FDF76BF8DFF849
:104280000CA3DFF80483F023BAF800000A904FF67D
:10429000FF704FF4167BC8F800005A4619460020FC
:1042A000FDF758F84FF4F0774FF496723B46002133
:1042B0001046FDF74FF8DFF8D8920122402148461A
:1042C000FCF787FC012280214846FCF782FC48F27B
:1042D00030404FF4D2742346C8F800005A461946BD
:1042E0000020FDF737F84FF4B4752B465A461946AF
:1042F0000020FDF72FF84FF496735A461946002018
:10430000FDF728F8B4235A4619460020FDF722F895
:1043100078235A4619460020FDF71CF83C235A46DC
:1043200019460020FDF716F84FF407703B46024689
:104330000021FDF70FF83B461A4600211046FDF715
:1043400009F822463B4600211046FDF703F82A46AD
:104350003B4600211046FCF7FDFFF0223B460021C2
:104360001046FCF7F7FFB4223B4600211046FCF74D
:10437000F1FF78223B4600211046FCF7EBFF3C2280
:104380003B4600211046FCF7E5FF00224021814812
:10439000FCF71FFC012211024846FCF71AFC002022
:1043A00004907D480024029027467C4DDFF8D4B16C
:1043B0004FF4805AC8F800404CE00020C9F80000D3
:1043C000032C47D30B9810B1012843D119E035F8DD
:1043D00014007F38FCF7D2F8DFF8C891704A4B46DA
:1043E000FCF755F80022704BFBF7AAFFFCF7F8F832
:1043F0001FFA80F8A6F17F00FCF7C0F8684A4B4628
:1044000018E035F814007F38FCF7B8F8DFF8909121
:10441000664B4A46FCF73BF80022634BFBF790FFE4
:10442000FCF7DEF81FFA80F8A6F17F00FCF7A6F88B
:104430004A465E4BFCF72BF800225B4BFBF780FFF4
:10444000FCF7CEF881B2601E82B2A01E80B2434655
:10445000FCF780FFDFF83481B8F80200012861D151
:1044600035F81460012251465846FCF7B2FB4FF470
:1044700000515846FCF7A8FBC00125F814004FF482
:1044800080415846FCF7A0FB014635F8140000EBCC
:10449000811025F814004FF400415846FCF794FBB6
:1044A00035F81410DFF8089101EB401025F81400DE
:1044B0004FF400614846FCF787FB35F814100022E2
:1044C00001EB001025F8140051465846FCF781FB1B
:1044D00051464846FCF778FB35F8141001EBC00054
:1044E00025F814004FF400514846FCF76DFB35F8F1
:1044F0001410DFF89C9001EB800025F814000421D3
:104500004846FCF761FB35F8141001EB400025F834
:10451000140008214846FCF757FB35F814100844EE
:1045200025F814001948408808B935F814600122AC
:1045300051465846FCF74DFB4FF400515846FCF7E6
:1045400043FBC00125F81400A8464FF480415846AB
:10455000FCF73AFB35F8141001EB801025F8140035
:104560004FF400415846FCF72FFB35F81410DFF8E4
:10457000409001EB401025F814004FF400614846CC
:1045800018E00000000C0140100000200000002096
:10459000002001400010014000007F43D6040020AD
:1045A00014AE47E17A14FE3F00006E407A140E40CC
:1045B00000140140FCF708FB35F81410002201EB51
:1045C000001025F8140051465846FCF702FB5146EE
:1045D0004846FCF7F9FA35F8141001EBC00025F84D
:1045E00014004FF400514846FCF7EEFA014635F846
:1045F0001400DFF8809400EB810025F814000421FA
:104600004846FCF7E1FA35F8141001EB400025F8B4
:10461000140008214846FCF7D7FA35F8141008446E
:1046200080B2A4F5007125F81400593973D04546BD
:10463000FBF79FFF0499FBF7F7FF04D235F814004E
:10464000FBF797FF049035F81400FBF792FF0299EF
:10465000FBF7E0FF04D235F81400FBF78AFF029065
:10466000DFF814944FF4FC61032CC9F8001049D30F
:104670000A9810B101281BD044E035F814007F38A7
:10468000FBF77CFFFD4AFE4BFBF701FF0022FD4BD1
:10469000FBF756FEFBF7A4FF80B2079005EB440042
:1046A00030F8020C7F38FBF769FFF44AF44B19E04D
:1046B00035F814007F38FBF761FFF04AF24BFBF747
:1046C000E6FE0022EF4BFBF73BFEFBF789FF80B2D3
:1046D000079005EB440030F8020C7F38FBF74EFFE3
:1046E000E64AE94BFBF7D3FE0022E64BFBF728FE38
:1046F000FBF776FF81B2601E82B2A01E80B2079BDC
:10470000FCF728FE641C7F1CBFB240F2B240A4B28A
:104710008742FFF452AED8494FF4FC60DB4C08608E
:1047200021460498FBF796FDD94D2946FBF7CAFDB3
:10473000049021460298FBF78DFD2946FBF7C2FD48
:1047400002901824D3A0CDE90040F0222346114660
:104750004FF41B70FFF712FB049810F1FF4F0AD3C0
:10476000CEA0CDE900401823F0224FF487714FF41A
:104770001B70FFF703FB00252F46DFF8249301E0B1
:10478000022D35D049460498FBF76AFD0490FBF7EB
:1047900013FF82B2C5EB0510CDE9004700F27B2084
:1047A00080B201234FF48771FFF712FB40F2992684
:1047B0006D1CADB2062DE3D3BAA0CDE9004018239D
:1047C000F0224FF496714FF41B70FFF7D7FA02985E
:1047D00010F1FF4F0AD3B1A0CDE900401823F02219
:1047E0004FF4A5714FF41B70FFF7C8FA00250CE0D9
:1047F000AEA0CDE900401823F0224FF48771304677
:10480000FFF7BCFAD4E7022D2FD0A5490298FBF799
:1048100027FD0290FBF7D0FE82B21824C5EB0510ED
:10482000CDE9004700F27B204FF4A57680B201234A
:104830003146FFF7CDFA6D1CADB2062DE3D3002251
:1048400040219B48FCF7C5F900224FF4807189484C
:10485000FCF7BFF99749002000244E880C90964839
:1048600008908548A146076047E090A0CDE9004048
:104870001823F022314640F29920FFF77FFADAE759
:104880000027CAF80070032C37D30B9810B1012809
:1048900033D109E035F814007F38FBF76FFE774F0E
:1048A000DFF8DCA13A4608E035F814007F38FBF762
:1048B00065FE724FDFF8D0A13A465346FBF7E7FD9D
:1048C0000022704BFBF73CFDFBF78AFE85B2A6F198
:1048D0007F00FBF753FE3A465346FBF7D8FD002214
:1048E000684BFBF72DFDFBF77BFE81B2601E82B2A9
:1048F000A01E80B22B46FCF72DFD704F7888012852
:1049000065D16C4D0103012235F814605846FCF75F
:1049100060F94FF400515846FCF756F9C00125F8EC
:1049200014004FF480415846FCF74EF9014638F820
:10493000140000EB811025F814004FF40041584694
:10494000FCF742F9014638F81400DFF874A100EBD7
:10495000411025F814004FF400615046FCF734F97B
:1049600038F81410002201EB001025F814004FF461
:1049700080515846FCF72DF94FF480515046FCF712
:1049800023F935F8141001EBC00025F814004FF49A
:1049900000515046FCF718F935F81410DFF8D4A090
:1049A00001EB800025F8140004215046FCF70CF9B7
:1049B00035F8141001EB400025F81400082150468A
:1049C000FCF702F935F81410084425F8140078882B
:1049D00010B9384830F814604FF4805A012251461B
:1049E0005846FCF7F6F84FF400515846FCF7ECF83F
:1049F000304DC0014FF4804125F814005846FCF7B3
:104A0000E3F835F8141001EB801025F814004FF48A
:104A100000415846FCF7D8F835F81410284F01EB40
:104A2000401025F814004FF400613846FCF7CCF82C
:104A300035F81410002201EB001025F8140051463F
:104A40005846FCF7C6F851463846FCF7BDF8014613
:104A500035F8140000EBC10025F81400791438462D
:104A6000FCF7B2F835F8141001EB800025F81400BB
:104A7000042127E0002001401000002014AE47E18F
:104A80007A14FE3F00006E407A140E400000FE4291
:104A90000080D444562B6D61783A00002D00000050
:104AA00000002041562D6D61783A00002E00000074
:104AB000001001402400002000007F43000000207F
:104AC00000140140A44F3846FCF77EF835F8141066
:104AD00001EB400025F8140008213846FCF774F873
:104AE00035F81410084480B2A4F5007125F81400BC
:104AF000593972D0FBF73DFD0499FBF795FD04D2BF
:104B000035F81400FBF735FD049035F81400FBF779
:104B100030FD0299FBF77EFD04D235F81400FBF757
:104B200028FD0290DFF834A24FF47841032CCAF834
:104B3000001047D30A9810B101281AD042E035F886
:104B400014007F38FBF71AFD854A864BFBF79FFC64
:104B50000022854BFBF7F4FBFBF742FD87B205EB28
:104B6000440030F8020C7F38FBF708FD7C4A7D4B8F
:104B700018E035F814007F38FBF700FD784A7B4BCE
:104B8000FBF785FC0022784BFBF7DAFBFBF728FDEF
:104B900087B205EB440030F8020C7F38FBF7EEFCDF
:104BA0006F4A724BFBF773FC00226F4BFBF7C8FB9D
:104BB000FBF716FD81B2601E82B2A01E80B23B469A
:104BC000FCF7C8FB641C09F101001FFA80F940F2F0
:104BD000B241A4B28945FFF453AE60484FF4784126
:104BE000634C016021460C98FBF734FB614D29466C
:104BF000FBF768FB824621460898FBF72BFB29460A
:104C0000FBF760FB834618255BA0CDE900504FF40D
:104C10001B742B46F02200212046FFF7AFF859A065
:104C2000CDE900501823F0221E212046FFF7A6F8F8
:104C3000AFF2A010CDE900501823F0223C2120460D
:104C4000FFF79CF81AF1FF4F09D3AFF2B010CDE98E
:104C500000501823F0225A212046FFF78FF8002435
:104C600040F299282746DFF8289101E0022C33D042
:104C700049465046FBF7F4FA8246FBF79DFC82B2A8
:104C8000C4EB0410CDE9005700F27B2080B2012371
:104C90005A21FFF79DF8641CA4B2062CE6D3AFF2AC
:104CA000FC10CDE900504FF41B741823F02278213A
:104CB0002046FFF763F81BF1FF4F09D3AFF2242022
:104CC000CDE900501823F02296212046FFF756F830
:104CD000C2460024B8460CE0AFF23020CDE90050C7
:104CE0001823F0225A214046FFF748F8D3E7022C58
:104CF00026D049465846FBF7B3FA8346FBF75CFCDF
:104D000082B2C4EB0410CDE9005800F27B2080B2DF
:104D100001239621FFF75CF85746641CA4B2062CC9
:104D2000E5D30A980C4C0B90002240212046FBF75B
:104D300050FF002280212046FBF74BFFFFF79FBA70
:104D4000AFF29820CDE900501823F0229621384682
:104D5000FFF714F8E1E700000020014010000020F8
:104D600014AE47E17A14FE3F00006E407A140E4004
:104D70000000FE420080D4444672657175656E6322
:104D8000793A00003439392E38354B487A00000022
:104D900000002041000000000000000001020304A8
:104DA00006070809000000000000000000000000E5
:104DB000000000003F400000000000000000300044
:104DC000400030004000000009000BC03D000BC057
:104DD0003D00090018C024407FE0224031800000DF
:104DE000180024C01B000D803240018003801C404D
:104DF00027401C80074000401000600000000000B9
:104E0000000000000000000000001F802040402043
:104E10000000402020401F80000000000900060024
:104E20001F80060009000000040004003F80040009
:104E300004000000001000600000000000000000FE
:104E4000040004000400040004000000000000400E
:104E50000000000000000000002001C00600380033
:104E6000400000001F802040204020401F800000A4
:104E7000000010403FC000400000000018C021406A
:104E8000224024401840000010802040244024404C
:104E90001B80000002000D0011003FC00140000017
:104EA0003C80244024402440238000001F80244074
:104EB00024403440038000003000200027C0380028
:104EC000200000001B802440244024401B80000060
:104ED0001C0022C0224022401F8000000000000071
:104EE0000840000000000000000000000460000016
:104EF00000000000000004000A0011002080404073
:104F000009000900090009000900000000004040F4
:104F1000208011000A000400180020002340240013
:104F2000180000001F802040274029401F4000003B
:104F3000004007C039000F0001C0004020403FC0C2
:104F4000244024401B8000001F802040204020403F
:104F50003080000020403FC0204020401F800000E3
:104F600020403FC024402E4030C0000020403FC0C1
:104F700024402E00300000000F001080204022400E
:104F80003380020020403FC0040004003FC02040A6
:104F9000204020403FC020402040000000602020F2
:104FA00020203FC02000200020403FC024400B00B4
:104FB00030C0204020403FC020400040004000C0A2
:104FC0003FC03C0003C03C003FC0000020403FC049
:104FD0000C4023003FC020001F8020402040204084
:104FE0001F80000020403FC0244024001800000023
:104FF0001F802140214020E01FA0000020403FC032
:105000002440260019C0004018C0244024402240FB
:1050100031800000300020403FC0204030000000C0
:1050200020003F80004000403F80200020003E00E4
:1050300001C0070038002000380007C03C0007C04E
:1050400038000000204039C0060039C02040000070
:105050002000384007C0384020000000304021C008
:105060002640384020C00000000000007FE04020C3
:1050700040200000000070000C0003800040000091
:105080000000402040207FE00000000000002000E1
:105090004000200000000000001000100010001070
:1050A00000100010000000004000000000000000A0
:1050B000000002800540054003C0004020003FC0C2
:1050C00004400440038000000000038004400440CA
:1050D0000640000000000380044024403FC0004020
:1050E000000003800540054003400000000004402C
:1050F0001FC0244024402000000002E0055005505D
:105100000650042020403FC00440040003C000407B
:105110000000044027C00040000000000010001004
:10512000041027E00000000020403FC001400700BD
:1051300004C00440204020403FC000400040000028
:1051400007C0040007C0040003C00000044007C0FB
:105150000440040003C000400000038004400440F9
:1051600003800000041007F0045004400380000096
:10517000000003800440045007F00010044007C002
:105180000240040004000000000006400540054005
:1051900004C00000000004001F8004400040000024
:1051A000040007800040044007C0004004000700DE
:1051B00004C0018006000400060001C0070001C011
:1051C00006000000044006C0010006C004400000C4
:1051D0000410071004E001800600040000000440F1
:1051E00005C00640044000000000000004007BE011
:1051F00040200000000000000000FFF00000000060
:10520000000040207BE0040000000000400080001F
:1052100040002000200040000000000000000000CE
:1052200000000000000000000000000000001FCC93
:10523000000C0000000000000000080030006000CA
:105240000800300060000000022003FC1E20022045
:1052500003FC1E200220000000000E1811043FFF76
:1052600010840C78000000000F0010840F3800C07C
:10527000077818840078000000780F8410C4112487
:105280000E9800E400840008080068007000000028
:10529000000000000000000000000000000007E027
:1052A00018182004400200000000400220041818D2
:1052B00007E00000000000000240024001800FF003
:1052C00001800240024000000080008000800FF852
:1052D00000800080008000000001000D000E000032
:1052E000000000000000000000000080008000803E
:1052F00000800080008000800000000C000C000096
:10530000000000000000000000000006001800601F
:105310000180060018002000000007F008081004B3
:105320001004080807F000000000080408041FFC2F
:10533000000400040000000000000E0C10141024F3
:10534000104411840E0C000000000C18100411040D
:10535000110412880C700000000000E003200424F7
:1053600008241FFC0024000000001F981084110472
:105370001104108810700000000007F00888110464
:10538000110418880070000000001C00100010FCC0
:1053900013001C001000000000000E38114410849F
:1053A000108411440E38000000000700088C1044DF
:1053B0001044088807F00000000000000000030C03
:1053C000030C0000000000000000000000010106C6
:1053D00000000000000000000000008001400220EA
:1053E00004100808100400000220022002200220FD
:1053F000022002200220000000001004080804100F
:10540000022001400080000000000E001200100C7D
:10541000106C10800F00000003E00C1813E414243B
:1054200017C4082807D000000004003C03C41C4037
:10543000074000E4001C000410041FFC11041104C8
:1054400011040E880070000003E00C181004100412
:10545000100410081C10000010041FFC100410049D
:105460001004080807F0000010041FFC11041104C8
:1054700017C410040818000010041FFC11041100C8
:1054800017C010000800000003E00C1810041004FE
:1054900010441C780040000010041FFC10840080A1
:1054A000008010841FFC10040000100410041FFC76
:1054B000100410040000000000030001100110019E
:1054C0001FFE10001000000010041FFC11040380D8
:1054D0001464181C1004000010041FFC10040004C5
:1054E00000040004000C000010041FFC1F0000FC5E
:1054F0001F001FFC1004000010041FFC0C0403001C
:1055000000E010181FFC100007F008081004100439
:105510001004080807F0000010041FFC108410801D
:10552000108010800F00000007F0081810241024CD
:10553000101C080A07F2000010041FFC11041100DF
:1055400011C011300E0C000400000E1C1104108458
:10555000108410441C3800001800100010041FFCB8
:10556000100410001800000010001FF810040004C0
:10557000000410041FF8100010001E0011E0001CB1
:10558000007013801C0010001FC0103C00E01F00C2
:1055900000E0103C1FC000001004180C163401C0BD
:1055A00001C01634180C100410001C00130400FC79
:1055B00013041C00100000000804101C1064108468
:1055C00013041C04101800000000000000007FFEFF
:1055D0004002400240020000000030000C00038046
:1055E0000060001C00030000000040024002400276
:1055F0007FFE0000000000000000000020004000CE
:1056000040004000200000000001000100010001F6
:1056100000010001000100010000400040002000E6
:105620000000000000000000000000980124014478
:105630000144014400FC000410001FFC0088010428
:105640000104008800700000000000700088010460
:1056500001040104008800000000007000880104BB
:10566000010411081FFC0004000000F8014401447B
:105670000144014400C800000000010401040FFCC3
:105680001104110411001800000000D6012901299D
:10569000012901C90106000010041FFC008401005B
:1056A0000100010400FC000400000104190419FCBD
:1056B00000040004000000000000000300010101DC
:1056C000190119FE0000000010041FFC0024004016
:1056D00001B4010C010400000000100410041FFCC0
:1056E0000004000400000000010401FC01040100AA
:1056F00001FC0104010000FC010401FC0084010024
:105700000100010400FC0004000000F80104010491
:105710000104010400F80000010101FF00850104FB
:10572000010400880070000000000070008801047F
:105730000104010501FF00010104010401FC0084D2
:105740000104010001800000000000CC01240124BC
:10575000012401240198000000000100010007F865
:105760000104010400000000010001F8000400042D
:105770000004010801FC0004010001800170000C1C
:10578000001001600180010001F0010C003001C037
:105790000030010C01F0010000000104018C0074D4
:1057A0000170018C01040000010101810171000EF2
:1057B000001801600180010000000184010C013427
:1057C00001440184010C0000000000000000000002
:1057D00001003EFC4002400200000000000000000A
:1057E000FFFF0000000000000000400240023EFCFD
:1057F0000100000000000000000060008000800048
:1058000040004000200020000000000000000000D8
:105810000000000000000000000000000000000088
:105820000000000000000000000000000000000078
:1058300000000000000000000000000F80380FFE94
:10584000380F803800000000000000000000000059
:105850000000000000000100000600000C000038FD
:1058600000003100000600000C000038000030008D
:10587000000000000000000061800067F807F98068
:105880000061800061800061800061800067F8072E
:10589000F98000618000000000000000000001C0ED
:1058A000E003E0F00630080418081FFFFE040E08AD
:1058B0000787F00381E000000000000001F000060F
:1058C0000C00040408060C7001F9C0000E00003B37
:1058D000E000EC18070808040C180003E0000000C2
:1058E0000001E00007F003F818041C08041708077B
:1058F000E1D003C0E00023B0003C08002008000015
:105900001000000000000001000031000032000023
:105910001C0000000000000000000000000000006B
:105920000000000000000000000000000000000077
:1059300000000000000000007F0001FFC00780F0B1
:105940000C001810000420000200000000000020DD
:1059500000021000040C00180780F001FFC0007F57
:105960000000000000000000000000000000000037
:10597000000000004200006600006600003C0000DD
:10598000180003FFC0001800003C0000660000661D
:1059900000004200000000000800000800000800AD
:1059A00000080000080001FFC00008000008000017
:1059B00008000008000008000000000000010000CE
:1059C0003100003200001C00000000000000000058
:1059D00000000000000000000000000000000000C7
:1059E0000800000800000800000800000800000887
:1059F0000000080000080000080000080000000087
:105A000000000000000000003800003800003800EE
:105A10000000000000000000000000000000000086
:105A20000000000000000000000600001C000070E4
:105A3000000180000E0000380000C0000700001CBC
:105A40000000300000000000000000007F8001FF27
:105A5000E00380700600180400080400080600181F
:105A600003807001FFE0007F800000000000000064
:105A7000000001000801000801000803FFF807FF0B
:105A8000F800000800000800000800000000000006
:105A900000000001C03802C0580400980401180436
:105AA0000218040418061C1803F81801E0F8000096
:105AB0000000000000000001C0E003C0F004000886
:105AC00004080804080806180803F41801E7F000A1
:105AD00001E0000000000000000000000300000DD5
