:020000040800F2
:10000000E00D0020490100086F390008F10D0008DB
:100010006D390008DF030008DF3900080000000028
:100020000000000000000000000000007739000818
:10003000E103000800000000753900087939000864
:100040006301000863010008630100086301000800
:1000500063010008630100086301000863010008F0
:1000600063010008630100086301000863010008E0
:1000700063010008630100086301000863010008D0
:1000800063010008630100086301000863010008C0
:1000900063010008630100086301000863010008B0
:1000A00063010008630100086301000863010008A0
:1000B0006301000863010008630100086301000890
:1000C0006301000863010008630100086301000880
:1000D0006301000863010008630100086301000870
:1000E0006301000863010008630100086301000860
:1000F0006301000863010008630100086301000850
:10010000630100086301000863010008630100083F
:10011000630100086301000863010008630100082F
:10012000630100086301000863010008630100081F
:10013000DFF810D000F032F900480047213A0008FB
:10014000AFF30080E00D00200648804706480047D6
:10015000FEE7FEE7FEE7FEE7FEE7FEE7FEE7FEE777
:10016000FEE7FEE7DD39000831010008202A04DB44
:10017000203A21FA02F00021704721FA02F3D04020
:10018000C2F120029140084319467047D2B201E003
:1001900000F8012B491EFBD270470022F6E710B58C
:1001A00013460A4604461946FFF7F0FF204610BDE5
:1001B0002DE9FE4F81EA030404F0004421F00041E0
:1001C00000944FF0000B23F0004350EA01045ED08E
:1001D00052EA03045BD0C3F30A54C1F30A552C441A
:1001E000A4F2F3340194A0FB0254C1F3130141F4CF
:1001F0008011C3F3130343F4801301FB024400FB9B
:10020000034E840A970A44EA815447EA8357A4FBC1
:10021000076802958D0A05FB07854FEA932C04FBBE
:100220000C542705029D4FEA065847EA1637B5EBEE
:1002300008056EEB070C870E920E47EA811742EA1B
:100240008312A7FB0201B6EB0B0164EB00042B0D3C
:1002500043EA0C335E1844EB1C50DA465146E7FB88
:100260000201C5F313044FEA0B3343EA14534FEA78
:100270000432019C43EA0603A4F10C040294009C9E
:10028000CDE900B400F03BF803B0BDE8F08F0020EA
:100290000146F9E70EB540F2334102910021CDE964
:1002A00000110A460B4600F02AF803B000BDC1F366
:1002B0000A5210B5C1F3130140F2FF3341F480112B
:1002C0009A4201DA002010BD40F233439A42A2F272
:1002D000334203DC5242FFF749FF10BD904010BD8E
:1002E00010B5141E73F1000408DA401C41F100013E
:1002F00092185B411A4301D120F0010010BD2DE995
:10030000F04D92469B4611B1B1FA81F202E0B0FA8B
:1003100080F22032904600F053F804460F4640EA3F
:100320000A0041EA0B0153465A46084313D01146CE
:1003300053EA010019D0C8F140025046FFF716FFFA
:1003400005460E4650465946424600F039F80843E5
:1003500005D0012004E020463946BDE8F08D00209C
:10036000054346EAE0762C4337430A986305E40ADE
:10037000A0EB08000022FD0A44EA47540A3002D5E7
:1003800000200146E9E7010510196941DDE908454A
:1003900000196941BDE8F04DA2E70000064C074D89
:1003A00006E0E06840F0010394E807009847103445
:1003B000AC42F6D3FFF7C0FE1C3F00083C3F0008EC
:1003C000202A04DB203A00FA02F100207047914015
:1003D000C2F1200320FA03F3194390407047FEE76F
:1003E000704772B6FEE7000030B5B3F5804F05D018
:1003F0006FF0704140F82210002030BD8C690B680E
:100400008D6823434C688989240144EA05242343E9
:1004100043EA014150F82230014C23401943E9E7F7
:100420000000F0CF10B50A6850F8223023F0010325
:1004300040F822308C68082C23D000234A682243DD
:10044000CC681C430B6922431A434B690E4C1A4378
:10045000CB691A430B6A1A434B6A1A438B6A1A43D5
:10046000CB6A1A430B6B1A438B6913434A6B0968B7
:100470001A4350F82130A343134340F821300020A1
:1004800010BD4023DAE700007FFF0F0030B5D1E94F
:10049000003443EA04138C688D89240244EA05443D
:1004A00023430C8A094D00EB820005EB04542343DF
:1004B0000C7D6D0105EB0464896923430B4341689E
:1004C00001F040410B434360002030BD0000F0FFCD
:1004D00070B5044600F054F90546601C02D004488B
:1004E0000078044400F04CF9401BA042FAD370BDE0
:1004F0001400002030B585B00020009001900290DB
:10050000039017480168002927D10121016015488F
:10051000416941F4807141614069022400F48070B6
:10052000049041F20100CDE90004032569460395DA
:100530000D4800F01FF84FF68070CDE900046946C1
:1005400003950A4800F016F84CF23370CDE9000428
:1005500069460395064800F00DF805B030BD00006F
:10056000000000200010024000200140001801405F
:10057000001401402DE9F84FDFF8C8910024A9F1DB
:10058000040B23460F2709F1040AABF1040ED1E056
:100590000125A54006EA0502AA4276D1DFF8A8C1E6
:1005A0004E68A6EB0C0866452BD00DDC032E34D02C
:1005B00005DC36B3012E19D0022E2FD11BE0112EEF
:1005C00016D0122E2AD119E0B8F5881F19D006DCF2
:1005D000B8F5803F15D0B8F5801F1FD111E0B8F5F0
:1005E000001F0ED0B8F5041F18D10AE0CB6815E043
:1005F000CB681B1D12E0CB6808330FE0CB680C33CF
:100600000CE08B682BB1012B4FF0080303D0456140
:1006100004E0042302E0056100E00023FF2A01D882
:10062000064601E000F104064FEA840501D9A5F170
:100630002005D6F8008007FA05FC28EA0C0803FA22
:1006400005F548EA0508C6F800804D68ED0070D54C
:100650003E4DAE6946F00106AE61AD6924F0030679
:1006600005F0010500953A4D06EB050CDCF8085045
:10067000A607360F07FA06F825EA0805DFF8D48042
:10068000404503D14FF0000825E052E0DFF8C88074
:10069000404502D14FF001081DE0DFF8C080404521
:1006A00002D14FF0020816E0DFF8B480404502D1D5
:1006B0004FF003080FE0DFF8AC80404502D14FF067
:1006C000040808E0DFF8A080404502D14FF005089B
:1006D00001E04FF0060808FA06F848EA0508CCF8E9
:1006E00008804D68D9F80060ED024D4601D51643EB
:1006F00000E096432E604D68DAF80060AD02554682
:1007000001D5164300E096432E604D68DBF800608B
:10071000AD035D4601D5164300E096432E604D685B
:10072000DEF80060ED03754601D5164300E0964300
:100730002E60641C0A681646E2407FF429AFBDE8CB
:10074000F88F000008040140000011100010024062
:100750000000014000080140000C01400010014071
:100760000014014000180140001C0140806808404E
:1007700000D0012070470AB1016170470904FBE70E
:10078000014880687047000014000020024881681A
:10079000027811448160704714000020074810B5AA
:1007A000016841F010010160032000F067F80020AB
:1007B00000F006F800F024F8002010BD00200240F0
:1007C00070B50D4D04464FF47A712878B1FBF0F006
:1007D0000A490968B1FBF0F000F0F6FA48B9102CAC
:1007E00007D200222146501E00F028F800206C603D
:1007F00070BD012070BD0000140000200800002022
:100800000C4808B5816941F001018161816901F0FD
:1008100001010091C16941F08051C161C06900F0DE
:10082000805000900448416821F0E06141F000717F
:10083000416008BD0010024000000140F0B40E4BC2
:100840001B680C46C3F30223C3F10705042D00D92E
:100850000425191D072901D2002300E0DB1E012613
:1008600006FA05F1491E214099409E40761E164029
:100870003143F0BC03F0B4B80CED00E0064900F0E1
:10088000070208684FF6FF03184040EA0220034AB7
:1008900010430860704700000CED00E00000FA050E
:1008A000704700002DE9F0470F46050061D0434E28
:1008B000306800F00700B84209D2306820F0070025
:1008C00038433060306800F00700B84251D12868E2
:1008D0003B4C810712D5400703D5606840F4E060C7
:1008E00060602878000703D5606840F4605060605D
:1008F0006068A96820F0F000084360602878C007AD
:1009000028D06868012810D02168022810D08907F3
:1009100000292EDA616821F0030101436160FFF7CD
:100920002FFF804641F288390DE021688903EFE707
:100930008901EDE7FFF724FFA0EB0801494502D943
:100940000320BDE8F0876068696800F00C00B0EB38
:10095000810FEFD1306800F00700B8420BD9306842
:1009600020F0070038433060306800F00700B842DC
:1009700001D00120E5E72878400705D56068E968DF
:1009800020F4E060084360602878000706D56068BE
:10099000296920F4605040EAC100606000F01EF850
:1009A0006168084AC1F30311515CC84006490860F8
:1009B00006480068FFF704FF0020C2E7002002405D
:1009C00000100240F83E0008080000201800002037
:1009D00001490120C8647047000042420E4A516834
:1009E0000E4801F00C03042B11D0082B0FD10C483A
:1009F000C1F38343C903C05C0AD55168084AC1F3F7
:100A00004041921E515C054A5043B0FBF1F07047E3
:100A100004494843704700000010024000127A0069
:100A20000A3F000800093D0010B5044CA06800060C
:100A300003D5FFF735FF8020A07210BD00100240E3
:100A40002DE9F84F040070D02078C04DC00749D080
:100A50006868C0F38100012807D06868C0F381008E
:100A6000022809D16868C00306D52868800339D5F3
:100A700060680028E7D035E06068B0F5803F0BD0B3
:100A800010B1B0F5A02F11D0286820F48030286074
:100A9000286820F4802002E0286840F48030286034
:100AA000606890B1FFF76CFE06460AE0286840F4E3
:100AB00080202860F0E700BFFFF762FE801B6428FB
:100AC00073D828688003F7D50CE0FFF759FE064677
:100AD00005E000BFFFF754FE801B6428F0D82868AB
:100AE0008003F7D420789A4E80074FF001094FF029
:100AF000000839D5686810F00C0F07D06868C0F39B
:100B00008100022809D16868C00306D428688007DC
:100B100014D52069012808D110E02069B0B1C6F8C9
:100B20000090FFF72DFE074605E00AE1FFF728FEDB
:100B3000C01B0228C4D828688007F7D528686169D7
:100B400020F0F80040EAC10028600DE0C6F80080FF
:100B5000FFF716FE074604E0FFF712FEC01B02284F
:100B600023D828688007F7D4207800072CD5794847
:100B7000A169D9B1C0F80090FFF702FE074604E072
:100B8000FFF7FEFDC01B02280FD8686A8007F7D563
:100B900071484FF4FA510068B0FBF1F0009000BFCB
:100BA0000098411E0091FAD20EE080E0C0F800806B
:100BB000FFF7E6FD074604E0FFF7E2FDC01B022851
:100BC00075D8686A8007F7D42078400760D5E8694F
:100BD0000027C00008D4E86940F08050E861E86967
:100BE000012700F0805000905C480168C90513D4CB
:100BF0000168834641F480710160FFF7C1FD8246C0
:100C000006E000BFFFF7BCFDA0EB0A0064284ED849
:100C1000DBF80000C005F5D5E06801280AD008B16E
:100C2000052813D0286A20F001002862286A20F0E5
:100C3000040002E0286A40F001002862E06841F206
:100C4000883B98B1FFF79CFD82460BE0286A40F094
:100C500004002862EEE700BFFFF792FDA0EB0A0157
:100C600059455AD8286A8007F6D50CE0FFF788FD69
:100C7000824605E0FFF784FDA0EB0A0159454CD8F8
:100C8000286A8007F6D41FB1E86920F08050E86137
:100C9000E06988B36968C1F38101022944D0022860
:100CA000C6F8608004D0FFF76BFD044638E034E0FE
:100CB000FFF766FD074604E0FFF762FDC01B022850
:100CC0002BD828688001F7D4206AB0F5803F05D181
:100CD0006868A16820F4003008436860D4E908011E
:100CE0000843696821F4741108436860C6F860908D
:100CF000FFF746FD044606E025E000BFFFF740FD94
:100D0000001B022809D828688001F7D51BE000BF26
:100D1000FFF736FD001B022802D90320BDE8F88F3B
:100D200028688001F4D40EE00128F7D06868226AB0
:100D300000F48031914204D1616A00F4701088425D
:100D400001D00120EAE70020E8E70000001002409F
:100D5000000042428004424208000020007000402F
:100D600070B515460E46040007D0A069B0F5807F27
:100D700003D094F8410010B107E0012070BD0020BD
:100D800084F84000204600F01DF804F108012068B6
:100D9000FFF748FB3146A2682068FFF777FBD4E9EC
:100DA00001022946236BFFF71FFBA168206850F85A
:100DB000212042F0010240F82120012084F8410066
:100DC000002070BDFFF796BB10B5401EB0F1807FCC
:100DD00001D3012010BD4FF0E02460610F216017A6
:100DE00002F0FEFD0020A06107202061002010BD60
:100DF000FEE7000070B509490646002408884D88C2
:100E000021464543204602F029FC02F0B9FC044883
:100E100001E00680641CAC42FBD370BDCC0900200D
:100E20000008006C2DE9F04F2B492C260A468871EA
:100E300092884FF4305A4FF4285B4FF4487541F6CE
:100E4000631E2B274FF02A0C4FF0F00845F2105983
:100E50004FF4A0744FF4F073B8B10C80A1F8028085
:100E60004A4532D1A1F808A0A1F80AB03802888119
:100E70000D804B80A2F5A640103801D10B804C802C
:100E8000BDE8F04F002002F029BBA1F800804C80A3
:100E90004A4507D1A1F808A0A1F80AB04FF42C5098
:100EA000888105E072450E8105D14F81A1F80CC003
:100EB0000B804D8002E0A1F80AC08F81A2F5A64008
:100EC0001038DDD10C804B80DAE70E81A1F80AC022
:100ED00072458F81CCD0CDE7CC0900202DE9FE4FA3
:100EE000161ACDE900104FF000085D1A47464FF082
:100EF000FF30002E02DD4FF0010102E003D14FF080
:100F000000018B4602E08346C6F10006002D02DD9B
:100F10004FF0010002E003D14FF00000824602E0F2
:100F20008246C5F10005AE4201DD344600E02C46A4
:100F3000601C4FF00009029018E0009881B20198FF
:100F400080B200F019F8B0442F44A04504DD0198A8
:100F5000A8EB040858440190A74203DD00983F1B0A
:100F60005044009009F101001FFA80F90299894567
:100F7000E3DDBDE8FE8F000000B502F06FFB02F07C
:100F8000FFFB024802490088088000BD0C000020D9
:100F90000008006C2DE9F0438146A2EB0900401CDB
:100FA0001E4685B20C46DFF83080079F0FE02146D1
:100FB000484602F053FB02F0E3FB0020414602E00A
:100FC0000F80401C80B2A842FAD3641CA4B2B44281
:100FD000EDD9BDE8F08300000008006C2DE9F05F5A
:100FE000D32002F0C1FB02F049FAFE4CA08002F0CF
:100FF00045FAA08002F042FA4FF6FF7505EA00209C
:10100000A08002F03BFAA18849F241380843A08051
:1010100041F6631947F2897645F2103A45F21057C6
:101020004FF4704B404571D0042002F09DFB02F05C
:1010300025FAA08002F022FAA08002F01FFA05EA49
:101040000020A08002F01AFAA1880843A0F505410B
:10105000A08052397DD0B04258D0D42002F084FB19
:1010600002F00CFAA08002F009FAA08002F006FA61
:1010700005EA0020A08002F001FAA1880843A080C0
:10108000504543D05521584602F084FBAA214FF227
:10109000010002F07FFB52214FF2020002F07AFBC6
:1010A00008214FF2030002F075FB01214FF204000A
:1010B00002F070FB4FF4454002F056FB02F0DEF9FF
:1010C00005EA0020A0804CF2015002F04DFB02F036
:1010D000D5F9A1880843A0800520FFF7F9F9A08879
:1010E000B84213D0A12002F03FFB02F0C7F9A08064
:1010F00002F0C4F905EA0020A08002F0BFF9A1883F
:101100000843A0F5AE41A08061397DD080B2404552
:101110007BD1CF2002F028FB002002F019FBC12078
:1011200002F016FB302002F013FBED2002F01CFB56
:10113000642002F00DFB032002F00AFB122002F0F3
:1011400007FB812002F004FBE82002F00DFB852064
:1011500000E0F5E002F0FCFA102002F0F9FA7A2043
:1011600002F0F6FACB2002F0FFFA392002F0F0FA92
:101170002C2002F0EDFA002002F0EAFA342002F00E
:10118000E7FA022002F0E4FAF72002F0EDFA20205C
:1011900002F0DEFAEA2002F0E7FA002002F0D8FAC4
:1011A000002002F0D5FAC02002F0DEFA1B2002F087
:1011B000CFFAC12002F0D8FA012002F0C9FAC52006
:1011C00002F0D2FA302002F0C3FA302002F0C0FA66
:1011D000C72002F0C9FAB72002F0BAFA362002F0AE
:1011E000C3FA482002F0B4FA3A2002F0BDFA5520C2
:1011F00002F0AEFAB12002F0B7FA002002F0A8FA2D
:101200001A2002F0A5FA01E09CE09FE0B62002F06F
:10121000ABFA0A2002F09CFAA22002F099FAF2201E
:1012200002F0A2FA002002F093FA262002F09CFAC3
:10123000012002F08DFAE02002F096FA0F2002F071
:1012400087FA2A2002F084FA282002F081FA082086
:1012500002F07EFA0E2002F07BFA082002F078FA03
:10126000542002F075FAA92002F072FA432002F02D
:101270006FFA0A2002F06CFA0F2002F069FA0020DF
:1012800002F066FA002002F063FA002002F060FA31
:10129000002002F05DFAE12002F066FA002002F080
:1012A00057FA152002F054FA172002F051FA0720DD
:1012B00002F04EFA112002F04BFA062002F048FA32
:1012C0002B2002F045FA562002F042FA3C2002F0B0
:1012D0003FFA052002F03CFA102002F039FA0F2004
:1012E00002F036FA3F2002F033FA3F2002F030FAE3
:1012F0000F2002F02DFA2B2002F036FA002002F027
:1013000027FA002002F024FA012002F021FA3F20FF
:1013100002F01EFA2A2002F027FA002002F018FA42
:10132000002002F015FA002002F012FAEF2002F07D
:101330000FFA112002F018FA7820FFF7C9F8DBE065
:10134000A68005E0A4F8049001F0D8BFB0427CD19B
:10135000112002F009FA7820FFF7BAF8362002F0DF
:1013600003FA002002F0F4F93A2002F0FDF905201A
:1013700002F0EEF9B22002F0F7F90C2002F0E8F9E1
:101380000C2002F0E5F9002002F0E2F9332002F02F
:10139000DFF9332002F0DCF9B72002F0E5F935205F
:1013A00002F0D6F9BB2002F0DFF9322002F0D0F9CA
:1013B000C02002F0D9F90C2002F0CAF9C22002F0D4
:1013C000D3F9012002F0C4F9C32002F0CDF91020B6
:1013D00002F0BEF9C42002F0C7F9202002F0B8F9EB
:1013E000C62001E0CC09002002F0BEF90F2002F077
:1013F000AFF9D02002F0B8F9A42002F0A9F9A12099
:1014000002F0A6F9E02002F0AFF9D02002F0A0F936
:10141000002002F09DF9022002F09AF9072002F064
:1014200097F90A2002F094F9282002F091F932206D
:1014300002F08EF9442002F08BF9422002F088F984
:10144000062002F085F90E2000E058E002F080F955
:10145000122002F07DF9142002F07AF9172002F030
:1014600077F9E12002F080F9D02002F071F9002034
:1014700002F06EF9022002F06BF9072002F068F921
:101480000A2002F065F9282002F062F9312002F00A
:101490005FF9542002F05CF9472002F059F90E2060
:1014A00002F056F91C2002F053F9172002F050F90F
:1014B0001B2002F04DF91E2002F04AF92A2002F00A
:1014C00053F9002002F044F9002002F041F9002015
:1014D00002F03EF9EF2002F03BF92B2002F044F934
:1014E000002002F035F9002002F032F9012002F06C
:1014F0002FF93F2002F02CF9292001F0FABE5045C7
:101500007ED1ED2002F030F9012002F021F9FE2019
:1015100002F01EF9EE2002F027F9DE2002F018F9A1
:10152000212002F015F9F12002F01EF9012002F04D
:101530000FF9DF2002F018F9102002F009F9C42099
:1015400002F012F98F2002F003F9C62002F00CF924
:10155000002002F0FDF8E22002F0FAF8E22002F0AA
:10156000F7F8E22002F0F4F8BF2002F0FDF8AA201C
:1015700002F0EEF8B02002F0F7F80D2002F0E8F8E3
:10158000002002F0E5F80D2002F0E2F8002002F061
:10159000DFF8112002F0DCF8002002F0D9F8192061
:1015A00002F0D6F8002002F0D3F8212002F0D0F8A3
:1015B000002002F0CDF82D2002F0CAF8002002F041
:1015C000C7F83D2002F0C4F8002002F0C1F85D2009
:1015D00002F0BEF8002002F0BBF85D2002F0B8F87F
:1015E000002002F0B5F8B12002F0BEF8802002F031
:1015F000AFF8002002F0ACF88B2002F0A9F800E070
:10160000FDE3002002F0A4F8962002F0A1F80020EB
:1016100002F09EF8B22002F0A7F8002002F098F83D
:10162000002002F095F8022002F092F8002002F06B
:101630008FF8032002F08CF8002002F089F8B32024
:1016400002F092F8002002F083F8002002F080F807
:10165000002002F07DF8002002F07AF8002002F06D
:1016600077F8002002F074F8002002F071F80020F2
:1016700002F06EF8002002F06BF8002002F068F82B
:10168000002002F065F8002002F062F8002002F06D
:101690005FF8002002F05CF8002002F059F800200A
:1016A00002F056F8002002F053F8002002F050F843
:1016B000002002F04DF8002002F04AF8002002F06D
:1016C00047F8002002F044F8002002F041F8002022
:1016D00002F03EF8B42002F047F88B2002F038F810
:1016E000002002F035F8962002F032F8002002F0D7
:1016F0002FF8A12002F02CF8002002F029F8B520E4
:1017000002F032F8022002F023F8002002F020F864
:10171000032002F01DF8002002F01AF8042002F065
:1017200017F8002002F014F8B62002F01DF800208F
:1017300002F00EF8002002F00BF8B72002F014F8C7
:10174000002002F005F8002002F002F83F2001F02E
:10175000FFFF002001F0FCFF5E2001F0F9FF0020F8
:1017600001F0F6FF642001F0F3FF002001F0F0FF2C
:101770008C2001F0EDFF002001F0EAFFAC2001F029
:10178000E7FF002001F0E4FFDC2001F0E1FF002092
:1017900001F0DEFF702001F0DBFF002001F0D8FF38
:1017A000902001F0D5FF002001F0D2FFEB2001F0E6
:1017B000CFFF002001F0CCFFDC2001F0C9FF0020AA
:1017C00001F0C6FFB82001F0CFFF002001F0C0FFFC
:1017D000002001F0BDFF002001F0BAFF002001F061
:1017E000B7FF002001F0B4FF002001F0B1FF00209E
:1017F00001F0AEFF002001F0ABFFBA2001F0B4FF12
:10180000242001F0A5FF002001F0A2FF002001F03C
:101810009FFF002001F09CFFC12001F0A5FF2020C8
:1018200001F096FF002001F093FF542001F090FF9B
:10183000002001F08DFFFF2001F08AFF002001F061
:1018400087FFC22001F090FF0A2001F081FF0020F5
:1018500001F07EFF042001F07BFF002001F078FF03
:10186000C32001F081FF3C2001F072FF002001F055
:101870006FFF3A2001F06CFF002001F069FF392072
:1018800001F066FF002001F063FF372001F060FFE8
:10189000002001F05DFF3C2001F05AFF002001F024
:1018A00057FF362001F054FF002001F051FF322095
:1018B00001F04EFF002001F04BFF2F2001F048FF08
:1018C000002001F045FF2C2001F042FF002001F034
:1018D0003FFF292001F03CFF002001F039FF2620C6
:1018E00001F036FF002001F033FF242001F030FF2B
:1018F000002001F02DFF242001F02AFF002001F03C
:1019000027FF232001F024FF002001F021FF3C20CD
:1019100001F01EFF002001F01BFF362001F018FF30
:10192000002001F015FF322001F012FF002001F02D
:101930000FFF2F2001F00CFF002001F009FF2C20E9
:1019400001F006FF002001F003FF292001F000FF55
:10195000002001F0FDFE262001F0FAFE002001F03B
:10196000F7FE242001F0F4FE002001F0F1FE242017
:1019700001F0EEFE002001F0EBFE232001F0E8FE76
:10198000002001F0E5FEC42001F0EEFE622001F02F
:10199000DFFE002001F0DCFE052001F0D9FE002072
:1019A00001F0D6FE842001F0D3FE002001F0D0FE2D
:1019B000F02001F0CDFE002001F0CAFE182001F059
:1019C000C7FE002001F0C4FEA42001F0C1FE0020EB
:1019D00001F0BEFE182001F0BBFE002001F0B8FEB1
:1019E000502001F0B5FE002001F0B2FE0C2001F005
:1019F000AFFE002001F0ACFE172001F0A9FE002090
:101A000001F0A6FE952001F0A3FE002001F0A0FE4B
:101A1000F32001F09DFE002001F09AFEE62001F087
:101A200097FE002001F094FEC52001F09DFE3220BB
:101A300001F08EFE002001F08BFE442001F088FEB4
:101A4000002001F085FE652001F082FE002001F0FB
:101A50007FFE762001F07CFE002001F079FE8820D8
:101A600001F076FE002001F073FEC62001F07CFE3E
:101A7000202001F06DFE002001F06AFE172001F029
:101A800067FE002001F064FE012001F061FE0020ED
:101A900001F05EFEC72001F067FE002001F058FE55
:101AA000002001F055FE002001F052FE002001F060
:101AB0004FFEC82001F058FE002001F049FE002032
:101AC00001F046FE002001F043FE002001F040FE40
:101AD000C92001F049FE002001F03AFE002001F08B
:101AE00037FE002001F034FE002001F031FE00201E
:101AF00001F02EFE002001F02BFE002001F028FE58
:101B0000002001F025FE002001F022FE002001F05F
:101B10001FFE002001F01CFE002001F019FE002035
:101B200001F016FE002001F013FE002001F010FE6F
:101B3000002001F00DFEE02001F016FE162001F05D
:101B400007FE002001F004FE1C2001F001FE002031
:101B500001F0FEFD212001F0FBFD002001F0F8FD69
:101B6000362001F0F5FD002001F0F2FD462001F0E5
:101B7000EFFD002001F0ECFD522001F0E9FD002016
:101B800001F0E6FD642001F0E3FD002001F0E0FD3E
:101B90007A2001F0DDFD002001F0DAFD8B2001F05C
:101BA000D7FD002001F0D4FD992001F0D1FD0020E7
:101BB00001F0CEFDA82001F0CBFD002001F0C8FD12
:101BC000B92001F0C5FD002001F0C2FDC42001F0E4
:101BD000BFFD002001F0BCFDCA2001F0B9FD0020CE
:101BE00001F0B6FDD22001F0B3FD002001F0B0FD00
:101BF000D92001F0ADFD002001F0AAFDE02001F0A8
:101C0000A7FD002001F0A4FDF32001F0A1FD0020BC
:101C100001F09EFDE12001F0A7FD162001F098FDE6
:101C2000002001F095FD1C2001F092FD002001F044
:101C30008FFD222001F08CFD002001F089FD36206F
:101C400001F086FD002001F083FD452001F080FDBC
:101C5000002001F07DFD522001F07AFD002001F00E
:101C600077FD642001F074FD002001F071FD7A2001
:101C700001F06EFD002001F06BFD8B2001F068FD8E
:101C8000002001F065FD992001F062FD002001F0C7
:101C90005FFDA82001F05CFD002001F059FDB92096
:101CA00001F056FD002001F053FDC42001F050FD6D
:101CB000002001F04DFDCA2001F04AFD002001F096
:101CC00047FDD22001F044FD002001F041FDD82065
:101CD00001F03EFD002001F03BFDE02001F038FD69
:101CE000002001F035FDF32001F032FD002001F06D
:101CF0002FFDE22001F038FD052001F029FD002034
:101D000001F026FD0B2001F023FD002001F020FD55
:101D10001B2001F01DFD002001F01AFD342001F010
:101D200017FD002001F014FD442001F011FD0020FA
:101D300001F00EFD4F2001F00BFD002001F008FD29
:101D4000612001F005FD002001F002FD792001F085
:101D5000FFFC002001F0FCFC882001F0F9FC0020D1
:101D600001F0F6FC972001F0F3FC002001F0F0FCFC
:101D7000A62001F0EDFC002001F0EAFCB72001F004
:101D8000E7FC002001F0E4FCC22001F0E1FC0020AF
:101D900001F0DEFCC72001F0DBFC002001F0D8FCE4
:101DA000D12001F0D5FC002001F0D2FCD62001F0BA
:101DB000CFFC002001F0CCFCDD2001F0C9FC0020AC
:101DC00001F0C6FCF32001F0C3FC002001F0C0FCD0
:101DD000E32001F0C9FC052001F0BAFC002001F06D
:101DE000B7FC0A2001F0B4FC002001F0B1FC1C207B
:101DF00001F0AEFC002001F0ABFC332000E0FAE281
:101E000001F0A6FC002001F0A3FC442001F0A0FC9E
:101E1000002001F09DFC502001F09AFC002001F010
:101E200097FC622001F094FC002001F091FC7820E6
:101E300001F08EFC002001F08BFC882001F088FC72
:101E4000002001F085FC972001F082FC002001F0C9
:101E50007FFCA62001F07CFC002001F079FCB7207B
:101E600001F076FC002001F073FCC22001F070FC50
:101E7000002001F06DFCC72001F06AFC002001F099
:101E800067FCD12001F064FC002001F061FCD5204A
:101E900001F05EFC002001F05BFCDD2001F058FC4D
:101EA000002001F055FCF32001F052FC002001F06D
:101EB0004FFCE42001F058FC012001F049FC002017
:101EC00001F046FC012001F043FC002001F040FC41
:101ED000022001F03DFC002001F03AFC2A2001F034
:101EE00037FC002001F034FC3C2001F031FC0020E4
:101EF00001F02EFC4B2001F02BFC002001F028FC0F
:101F00005D2001F025FC002001F022FC742001F08E
:101F10001FFC002001F01CFC842001F019FC0020B3
:101F200001F016FC932001F013FC002001F010FCDE
:101F3000A22001F00DFC002001F00AFCB32001F00A
:101F400007FC002001F004FCBE2001F001FC002091
:101F500001F0FEFBC42001F0FBFB002001F0F8FBC8
:101F6000CD2001F0F5FB002001F0F2FBD32001F0C1
:101F7000EFFB002001F0ECFBDD2001F0E9FB00208D
:101F800001F0E6FBF32001F0E3FB002001F0E0FBB1
:101F9000E52001F0E9FB002001F0DAFB002001F070
:101FA000D7FB002001F0D4FB002001F0D1FB022080
:101FB00001F0CEFB002001F0CBFB292001F0C8FB93
:101FC000002001F0C5FB3C2001F0C2FB002001F025
:101FD000BFFB4B2001F0BCFB002001F0B9FB5D20F2
:101FE00001F0B6FB002001F0B3FB742001F0B0FB60
:101FF000002001F0ADFB842001F0AAFB002001F0DD
:10200000A7FB932001F0A4FB002001F0A1FBA2207C
:1020100001F09EFB002001F09BFBB32001F098FB38
:10202000002001F095FBBE2001F092FB002001F0A2
:102030008FFBC42001F08CFB002001F089FBCD2038
:1020400001F086FB002001F083FBD32001F080FB30
:10205000002001F07DFBDC2001F07AFB002001F084
:1020600077FBF32001F074FB002001F071FBE62008
:1020700001F07AFB112001F06BFB002001F068FBFE
:10208000342001F065FB002001F062FB562001F0D6
:102090005FFB002001F05CFB762001F059FB002083
:1020A00001F056FB772001F053FB002001F050FBBC
:1020B000662001F04DFB002001F04AFB882001F072
:1020C00047FB002001F044FB992001F041FB002078
:1020D00001F03EFBBB2001F03BFB002001F038FB90
:1020E000992001F035FB002001F032FB662001F061
:1020F0002FFB002001F02CFB552001F029FB0020D4
:1021000001F026FB552001F023FB002001F020FB0D
:10211000452001F01DFB002001F01AFB432001F0D7
:1021200017FB002001F014FB442001F011FB0020FC
:1021300001F00EFBE72001F017FB322001F008FB55
:10214000002001F005FB552001F002FB002001F00A
:10215000FFFA762001F0FCFA002001F0F9FA66207F
:1021600001F0F6FA002001F0F3FA672001F0F0FA2E
:10217000002001F0EDFA672001F0EAFA002001F0FA
:10218000E7FA872001F0E4FA002001F0E1FA992053
:1021900001F0DEFA002001F0DBFABB2001F0D8FAF2
:1021A000002001F0D5FA992001F0D2FA002001F0C8
:1021B000CFFA772001F0CCFA002001F0C9FA4420D0
:1021C00001F0C6FA002001F0C3FA562001F0C0FA6F
:1021D000002001F0BDFA232001F0BAFA002001F03E
:1021E000B7FA332001F0B4FA002001F0B1FA45202B
:1021F00001F0AEFA002001F0ABFAE82001F0B4FAE9
:10220000002001F0A5FA002001F0A2FA992001F0C7
:102210009FFA002001F09CFA872001F099FA002033
:1022200001F096FA882001F093FA002001F090FA6C
:10223000772001F08DFA002001F08AFA662001F083
:1022400087FA002001F084FA882001F081FA00204A
:1022500001F07EFAAA2001F07BFA002001F078FA62
:10226000BB2001F075FA002001F072FA992001F00C
:102270006FFA002001F06CFA662001F069FA002084
:1022800001F066FA552001F063FA002001F060FACF
:10229000552001F05DFA002001F05AFA442001F0C7
:1022A00057FA002001F054FA442001F051FA0020BE
:1022B00001F04EFA552001F04BFA002001F048FAE7
:1022C000E92001F051FAAA2001F042FA002001F0C1
:1022D0003FFA002001F03CFA002001F039FA00201A
:1022E00001F042FAAA2001F033FACF2001F03CFAC3
:1022F000002001F02DFA002001F02AFA002001F060
:1023000027FA002001F024FA002001F021FA002031
:1023100001F01EFA002001F01BFA002001F018FA6B
:10232000002001F015FA002001F012FA002001F05F
:102330000FFA002001F00CFA002001F009FA002049
:1023400001F006FA002001F003FA002001F000FA83
:10235000002001F0FDF9F02001F006FA002001F064
:10236000F7F9502001F0F4F9002001F0F1F9002014
:1023700001F0EEF9002001F0EBF9F32001F0F4F99F
:10238000002001F0E5F9F92001F0EEF9062001F056
:10239000DFF9102001F0DCF9292001F0D9F9002043
:1023A00001F0D6F93A2001F0DFF9552001F0D0F91B
:1023B000112001F0D9F96420FEF78AF8292001F0F4
:1023C000D3F9352001F0D0F9002001F0C1F95120F6
:1023D00001F0CAF9FF2001F0BBF9532001F0C4F964
:1023E0002C2001F0B5F9552001F0BEF9822001F052
:1023F000AFF92C20FDE3B8427DD15521584601F0BC
:10240000C9F94FF20103AA21184601F0C3F94FF2AE
:1024100002045221204601F0BDF9661C0821304615
:1024200001F0B8F9A71C0121384601F0B3F90D21DC
:102430004FF4304001F0AEF90D214BF2010001F0F4
:10244000A9F90D214BF2020001F0A4F94FF436482E
:102450003421404601F09EF934214BF2016001F035
:1024600099F934214BF2026001F094F94FF43149AB
:102470000D21484601F08EF94BF2011A0D2150460C
:1024800001F088F90D214BF2021001F083F934219B
:102490004FF4374001F07EF934214BF2017001F026
:1024A00079F934214BF2027001F074F900214FF4F4
:1024B000324001F06FF900214BF2012001F06AF97E
:1024C00000214BF2022001F065F924214FF438403D
:1024D00001F060F924214BF6010001F05BF92421A1
:1024E0004BF6020001F056F901214FF43F4001F094
:1024F00051F90F2100E0FDE34FF4334001F04AF9B8
:102500000F214BF2013001F045F90F214BF202305F
:1025100001F040F934214FF4394001F03BF9342106
:102520004BF6011001F036F934214BF6021001F0A0
:1025300031F908214FF4354001F02CF908214BF214
:10254000015001F027F908214BF2025001F022F965
:1025500003214FF4424001F01DF924214FF43A4089
:1025600001F018F924214BF6012001F013F9242180
:102570004BF6022001F00EF900214FF43C4001F02F
:1025800009F978214BF6014001F004F900214BF6DE
:10259000024001F0FFF800214FF43D4001F0FAF84D
:1025A00078214BF6015001F0F5F800214BF602506E
:1025B00001F0F0F800214FF43E4001F0EBF8642107
:1025C0004BF6016001F0E6F800214FF4514001F0B4
:1025D000E1F833214DF2011001F0DCF800214DF259
:1025E000021001F0D7F834214DF2031001F0D2F8B7
:1025F00000214DF2041001F0CDF83A214DF2051002
:1026000001F0C8F800214DF2061001F0C3F84A218C
:102610004DF2071001F0BEF800214DF2081001F054
:10262000B9F85C214DF2091001F0B4F800214DF227
:102630000A1001F0AFF881214DF20B1001F0AAF859
:1026400000214DF20C1001F0A5F8A6214DF20D105D
:1026500001F0A0F800214DF20E1001F09BF8E521E9
:102660004DF20F1001F096F801214DF2101001F01B
:1026700091F813214DF2111001F08CF801214DF267
:10268000121001F087F854214DF2131001F082F876
:1026900001214DF2141001F07DF882214DF2151048
:1026A00001F078F801214DF2161001F073F8CA21FB
:1026B0004DF2171001F06EF802214DF2181001F0E2
:1026C00069F800214DF2191001F064F802214DF271
:1026D0001A1001F05FF801214DF21B1001F05AF8B9
:1026E00002214DF21C1001F055F834214DF21D105D
:1026F00001F050F802214DF21E1001F04BF8672155
:102700004DF21F1001F046F802214DF2201001F0A9
:1027100041F884214DF2211001F03CF802214DF2E4
:10272000221001F037F8A4214DF2231001F032F805
:1027300002214DF2241001F02DF8B7214DF22510A1
:1027400001F028F802214DF2261001F023F8CF21E4
:102750004DF2271001F01EF802214DF2281001F071
:1027600019F8DE214DF2291001F014F802214DF282
:102770002A1001F00FF8F2214DF22B1001F00AF8A7
:1027800002214DF22C1001F005F8FE214DF22D1022
:1027900001F000F803214DF22E1000F0FBFF102194
:1027A0004DF22F1000F0F6FF03214DF2301000F033
:1027B000F1FF33214DF2311000F0ECFF03214DF217
:1027C000321000F0E7FF6D214DF2331000F0E2FF10
:1027D00000214FF4524000F0DDFF33214DF2012083
:1027E00000F0D8FF00214DF2022000F0D3FF342189
:1027F0004DF2032000F0CEFF00214DF2042000F046
:10280000C9FF3A214DF2052000F0C4FF00214DF22E
:10281000062000F0BFFF4A214DF2072000F0BAFF6A
:1028200000214DF2082000F0B5FF5C214DF2092097
:1028300000F0B0FF00214DF20A2000F0ABFF812133
:102840004DF20B2000F0A6FF00214DF20C2000F00D
:10285000A1FFA6214DF20D2000F09CFF00214DF2BA
:102860000E2000F097FFE5214DF20F2000F092FFBF
:1028700001214DF2102000F08DFF13214DF21120A7
:1028800000F088FF01214DF2122000F083FF542157
:102890004DF2132000F07EFF01214DF2142000F0D4
:1028A00079FF82214DF2152000F074FF01214DF2D5
:1028B000162000F06FFFCA214DF2172000F06AFFCA
:1028C00002214DF2182000F065FF00214DF2192081
:1028D00000F060FF02214DF21A2000F05BFF0121A1
:1028E0004DF21B2000F056FF02214DF21C2000F09B
:1028F00051FF34214DF21D2000F04CFF02214DF21A
:102900001E2000F047FF67214DF21F2000F042FF1C
:1029100002214DF2202000F03DFF84214DF22120C4
:1029200000F038FF02214DF2222000F033FFA421F5
:102930004DF2232000F02EFF02214DF2242000F062
:1029400029FFB7214DF2252000F024FF02214DF28E
:10295000262000F01FFFCF214DF2272000F01AFFA4
:1029600002214DF2282000F015FFDE214DF2292032
:1029700000F010FF02214DF22A2000F00BFFF2219F
:102980004DF22B2000F006FF02214DF22C2000F02A
:1029900001FFFE214DF22D2000F0FCFE03214DF23F
:1029A0002E2000F0F7FE10214DF22F2000F0F2FE55
:1029B00003214DF2302000F0EDFE33214DF23120A5
:1029C00000F0E8FE03214DF2322000F0E3FE6D211D
:1029D0004DF2332000F0DEFE00214FF4534000F0B2
:1029E000D9FE33214DF2013000F0D4FE00214DF22A
:1029F000023000F0CFFE34214DF2033000F0CAFE69
:102A000000214DF2043000F0C5FE3A214DF20530B0
:102A100000F0C0FE00214DF2063000F0BBFE4A215E
:102A20004DF2073000F0B6FE00214DF2083000F004
:102A3000B1FE5C214DF2093000F0ACFE00214DF2F8
:102A40000A3000F0A7FE81214DF20B3000F0A2FE0B
:102A500000214DF20C3000F09DFEA6214DF20D300C
:102A600000F098FE00214DF20E3000F093FEE521BB
:102A70004DF20F3000F08EFE01214DF2103000F0CB
:102A800089FE13214DF2113000F084FE01214DF238
:102A9000123000F07FFE54214DF2133000F07AFE28
:102AA00001214DF2143000F075FE82214DF21530F7
:102AB00000F070FE01214DF2163000F06BFECA21CD
:102AC0004DF2173000F066FE02214DF2183000F092
:102AD00061FE00214DF2193000F05CFE02214DF242
:102AE0001A3000F057FE01214DF21B3000F052FE6B
:102AF00002214DF21C3000F04DFE34214DF21D300C
:102B000000F048FE02214DF21E3000F043FE672126
:102B10004DF21F3000F03EFE02214DF2203000F059
:102B200039FE84214DF2213000F034FE02214DF2B5
:102B3000223000F02FFEA4214DF2233000F02AFEB7
:102B400002214DF2243000F025FEB7214DF2253050
:102B500000F020FE02214DF2263000F01BFECF21B6
:102B60004DF2273000F016FE02214DF2283000F021
:102B700011FEDE214DF2293000F00CFE02214DF253
:102B80002A3000F007FEF2214DF22B3000F002FE59
:102B900002214DF22C3000F0FDFDFE214DF22D30D2
:102BA00000F0F8FD03214DF22E3000F0F3FD10216E
:102BB0004DF22F3000F0EEFD03214DF2303000F0E9
:102BC000E9FD33214DF2313000F0E4FD03214DF2F7
:102BD000323000F0DFFD6D214DF2333000F0DAFDD0
:102BE00000214FF4544000F0D5FD33214DF2014057
:102BF00000E07EE300F0CEFD00214DF2024000F047
:102C0000C9FD34214DF2034000F0C4FD00214DF216
:102C1000044000F0BFFD3A214DF2054000F0BAFD3E
:102C200000214DF2064000F0B5FD4A214DF207406B
:102C300000F0B0FD00214DF2084000F0ABFD5C213A
:102C40004DF2094000F0A6FD00214DF20A4000F0CF
:102C5000A1FD81214DF20B4000F09CFD00214DF2C1
:102C60000C4000F097FDA6214DF20D4000F092FDC2
:102C700000214DF20E4000F08DFDE5214DF20F4098
:102C800000F088FD01214DF2104000F083FD13217A
:102C90004DF2114000F07EFD01214DF2124000F096
:102CA00079FD54214DF2134000F074FD01214DF2E5
:102CB000144000F06FFD82214DF2154000F06AFDD6
:102CC00001214DF2164000F065FDCA214DF217407A
:102CD00000F060FD02214DF2184000F05BFD002184
:102CE0004DF2194000F056FD02214DF21A4000F05D
:102CF00051FD00E000E301214DF21B4000F04AFDD0
:102D000002214DF21C4000F045FD34214DF21D40E2
:102D100000F040FD02214DF21E4000F03BFD672116
:102D20004DF21F4000F036FD02214DF2204000F030
:102D300031FD84214DF2214000F02CFD02214DF2A5
:102D4000224000F027FDA4214DF2234000F022FD97
:102D500002214DF2244000F01DFDB7214DF2254027
:102D600000F018FD02214DF2264000F013FDCF21A6
:102D70004DF2274000F00EFD02214DF2284000F0F8
:102D800009FDDE214DF2294000F004FD02214DF243
:102D90002A4000F0FFFCF2214DF22B4000F0FAFC3B
:102DA00002214DF22C4000F0F5FCFE214DF22D40A9
:102DB00000F0F0FC03214DF22E4000F0EBFC10215E
:102DC0004DF22F4000F0E6FC03214DF2304000F0C0
:102DD000E1FC33214DF2314000F0DCFC03214DF2E7
:102DE000324000F0D7FC6D214DF2334000F0D2FCB0
:102DF00000214FF4554000F0CDFC33214DF201503D
:102E000000F0C8FC00214DF2025000F0C3FC342158
:102E10004DF2035000F0BEFC00214DF2045000F0D2
:102E2000B9FC3A214DF2055000F0B4FC00214DF2FE
:102E3000065000F0AFFC4A214DF2075000F0AAFC0A
:102E400000214DF2085000F0A5FC5C214DF2095024
:102E500000F0A0FC00214DF20A5000F09BFC812103
:102E60004DF20B5000F096FC00214DF20C5000F09A
:102E700091FCA6214DF20D5000F08CFC00214DF28A
:102E80000E5000F087FCE5214DF20F5000F082FC5F
:102E900001214DF2105000F07DFC13214DF2115034
:102EA00000F078FC01214DF2125000F073FC542127
:102EB0004DF2135000F06EFC01214DF2145000F061
:102EC00069FC82214DF2155000F064FC01214DF2A5
:102ED000165000F05FFCCA214DF2175000F05AFC6A
:102EE00002214DF2185000F055FC00214DF219500E
:102EF00000F050FC02214DF21A5000F04BFC012171
:102F00004DF21B5000F046FC02214DF21C5000F027
:102F100041FC34214DF21D5000F03CFC02214DF2E9
:102F20001E5000F037FC67214DF21F5000F032FCBC
:102F300002214DF2205000F02DFC84214DF2215051
:102F400000F028FC02214DF2225000F023FCA421C5
:102F50004DF2235000F01EFC02214DF2245000F0EF
:102F600019FCB7214DF2255000F014FC02214DF25E
:102F7000265000F00FFCCF214DF2275000F00AFC44
:102F800002214DF2285000F005FCDE214DF22950BF
:102F900000F000FC02214DF22A5000F0FBFBF22170
:102FA0004DF22B5000F0F6FB02214DF22C5000F0B8
:102FB000F1FBFE214DF22D5000F0ECFB03214DF210
:102FC0002E5000F0E7FB10214DF22F5000F0E2FBF5
:102FD00003214DF2305000F0DDFB33214DF2315032
:102FE00000F0D8FB03214DF2325000F0D3FB6D21ED
:102FF0004DF2335000F0CEFB00214FF4564000F06C
:10300000C9FB33214DF2016000F0C4FB00214DF2F9
:10301000026000F0BFFB34214DF2036000F0BAFB08
:1030200000214DF2046000F0B5FB3A214DF205603D
:1030300000F0B0FB00214DF2066000F0ABFB4A212E
:103040004DF2076000F0A6FB00214DF2086000F091
:10305000A1FB5C214DF2096000F09CFB00214DF2C8
:103060000A6000F097FB81214DF20B6000F092FBAB
:1030700000214DF20C6000F08DFBA6214DF20D6099
:1030800000F088FB00214DF20E6000F083FBE5218B
:103090004DF20F6000F07EFB01214DF2106000F058
:1030A00079FB13214DF2116000F074FB01214DF208
:1030B000126000F06FFB54214DF2136000F06AFBC8
:1030C00001214DF2146000F065FB82214DF2156084
:1030D00000F060FB01214DF2166000F05BFBCA219D
:1030E0004DF2176000F056FB02214DF2186000F01F
:1030F00051FB00214DF2196000F04CFB02214DF212
:103100001A6000F047FB01214DF21B6000F042FB0A
:1031100002214DF21C6000F03DFB34214DF21D6098
:1031200000F038FB02214DF21E6000F033FB6721F6
:103130004DF21F6000F02EFB02214DF2206000F0E6
:1031400029FB84214DF2216000F024FB02214DF285
:10315000226000F01FFBA4214DF2236000F01AFB57
:1031600002214DF2246000F015FBB7214DF22560DD
:1031700000F010FB02214DF2266000F00BFBCF2186
:103180004DF2276000F006FB02214DF2286000F0AE
:1031900001FBDE214DF2296000F0FCFA02214DF224
:1031A0002A6000F0F7FAF2214DF22B6000F0F2FAFB
:1031B00002214DF22C6000F0EDFAFE214DF22D605F
:1031C00000F0E8FA03214DF22E6000F0E3FA10213E
:1031D0004DF22F6000F0DEFA03214DF2306000F076
:1031E000D9FA33214DF2316000F0D4FA03214DF2C7
:1031F000326000F0CFFA6D214DF2336000F0CAFA70
:103200005521584600F0C6FAAA21184600F0C2FA25
:103210005221204600F0BEFA0821304600F0BAFAEA
:103220000021384600F0B6FACC21484600F0B2FA48
:103230000021504600F0AEFA0521404600F0AAFAFF
:1032400070214FF4374000F0A5FA70214BF2017065
:1032500000F0A0FA01214FF4384000F09BFA03215E
:103260004BF6010000F096FA03214BF6020000F045
:1032700091FA03214BF6030000F08CFA02214FF47F
:103280003C4000F087FA00214BF6014000F082FA42
:1032900000214BF6024000F07DFAD0214FF4494066
:1032A00000F078FA02214CF6011000F073FA502178
:1032B0004CF6021000F06EFA50214CF6031000F0AC
:1032C00069FA50214CF6041000F064FA00214FF422
:1032D000545000F05FFA55214FF4685000F05AFA4C
:1032E0004FF4885000F040FA0120FDF7F1F84FF458
:1032F000245000F039FAB9E04845FCD1E22000F052
:1033000033FA1D2000F024FA022000F021FA0420F4
:1033100000F01EFA0120FDF7DBF8E02000F024FAAF
:10332000012000F015FA0A20FDF7D2F8E02000F0A5
:103330001BFA032000F00CFA0C20FDF7C9F801205D
:1033400000F012FA0A20FDF7C3F8E62000F00CFAAC
:103350002F2000F0FDF9FF2000F0FAF9FF2000F027
:10336000F7F9B02000F000FA202000F0F1F9002079
:1033700000F0EEF9032000F0EBF940F21F3000F00E
:10338000E7F9012000F0E4F940F2DF1000F0E0F985
:10339000002000F0DDF9B42000F0E6F9042000F090
:1033A000D7F940F21F4000F0D3F9002000F0D0F927
:1033B0002E2000F0CDF9002000F0CAF9002000F026
:1033C000C7F9002000F0C4F9002000F0C1F9B620D0
:1033D00000F0CAF9022000F0BBF94FF4037000F0CE
:1033E000B7F9002000F0B4F9172000F0B1F915206A
:1033F00000F0AEF9002000F0ABF9002000F0A8F9D1
:10340000F02000F0B1F9032000F0A2F9292000F02B
:10341000ABF9D02000F0A8F9002000F099F9BE2007
:1034200000F0A2F9052000F093F9FE2000F090F9D9
:10343000012000F08DF9002000F08AF9002000F052
:1034400087F9002000F084F9B82000F08DF90320FE
:1034500000F07EF9012000F07BF9BA2000F084F939
:10346000012000F075F9642000F012F80020FDF74B
:10347000D9FC2846BDE8F05FFDF7BCBC034808B5A1
:103480000088ADF80000BDF8000008BD0008006C21
:1034900010B50246BE2000F067F9052000F058F98B
:1034A0001046FCF7F7FE4FF066320B4BFCF780FE40
:1034B000FCF7FDFE80B200F04BF9012000F048F966
:1034C000FF2000F045F9002000F042F9BDE810406F
:1034D000002000F03DB900006666044070B55E4C07
:1034E00000232146A279898841F66316012A01D07A
:1034F0001AB10CE0B14202D109E0B14207D108286B
:1035000005D2DFE800F0161812140C19100E082866
:1035100012D2DFE800F0110406080A0C0E10802316
:103520000AE0402308E0C02306E0202304E06023F3
:1035300002E0A02300E0E02345F21055A94202D1A9
:103540004FF4585000E03620A1F51342413A03D021
:10355000A1F5EE42893A01D143F00803194600F083
:1035600019F9A188B1420AD098062088628802D54C
:10357000904202D303E0904201D9228060806089AA
:10358000A94240D100F0F0F8002000F0E1F8608995
:10359000401C80B200F0E8F8002000F0D9F8608903
:1035A000801C80B200F0E0F82088401EC0F30F209D
:1035B00000F0CEF86089C01C80B200F0D5F8207809
:1035C000401EC0B200F0C4F8A08900F0CDF8002081
:1035D00000F0BEF8A089401C80B200F0C5F80020C1
:1035E00000F0B6F8A089801C80B200F0BDF86088B9
:1035F000401EC0F30F2000F0ABF8A089C01C80B2C1
:1036000000F0B2F821E000F0AFF8002000F0A0F8E0
:10361000002000F09DF82088401EC0F30F2000F02D
:1036200097F82078401EC0B200F092F8A08900F010
:103630009BF8002000F08CF8002000F089F86088EA
:10364000401EC0F30F2000F083F8A078BDE8704062
:10365000401EC0B200F07CB8CC090020F0B53B4A57
:103660000D460446060A918810462F0A4089A1F5A6
:10367000C853633B16D0A1F5AA43103B4CD000F0D1
:1036800073F8304600F064F8E0B200F061F8908919
:1036900000F06AF8384600F05BF8E8B2BDE8F040A8
:1036A00000F056B8917931B300F05EF8304600F082
:1036B0004FF8E0B200F04CF81088401EC0F30F2025
:1036C00000F046F81078401E5FFA80F000F040F8F5
:1036D000908900F049F8384600F03AF8E8B200F076
:1036E00037F85088401EC0F30F2000F031F8907872
:1036F000401EC0B2D2E71188091B491E8CB200F0EF
:1037000033F8002000F024F8002000F021F8200A0F
:1037100000F01EF8E0B2D9E700F026F8304600F0DD
:1037200017F85089401C80B200F01EF8E0B200F09B
:103730000FF8908900F018F8384600F009F89089E1
:10374000401C80B200F010F8A7E70000CC09002070
:1037500001B5BDF80000ADF80000BDF8000001495A
:10376000088008BD0008006C01B5BDF80000ADF888
:103770000000BDF800000149088008BDFE07006C8C
:10378000024803490089088070470000CC090020E6
:10379000FE07006C024A1080901C018070470000F8
:1037A000FE07006C10B58EB01C216846FCF7F5FCD6
:1037B0001C2107A8FCF7F1FC1C484FF02041102207
:1037C00001601B494160062181600021C160C0E9A0
:1037D00004128161C16113020162C0E909139302FD
:1037E000C0E90B1341638163022000900F20CDE9F3
:1037F000010203AC112384E80E0004240691CDE9F4
:10380000074009AC092084E80F000D9107AA69461A
:103810000648FDF7A5FA08B1FCF7E3FD0548C169C4
:1038200041F48061C1610EB010BD00008409002028
:10383000040100A0000001402DE9F04786B00024FB
:1038400045480094019402940394816941F0100169
:103850008161816901F010010491816941F00801E1
:103860008161816901F008010491816941F48071ED
:103870008161816901F480710491816941F04001A5
:103880008161816901F040010491816941F0200169
:103890008161816901F020010491816941F0040195
:1038A00081618069DFF8B48000F004000490002298
:1038B00041F201014046FCF75EFFDFF8A4904FF4AF
:1038C000E077002239464846FCF755FFDFF894A020
:1038D000002240215046FCF74EFF012502260095AC
:1038E000CDE90156694640460396FCF743FE28039E
:1038F000CDE90005CDE9024669464046FCF73AFEAF
:10390000F801CDE90004694640460294FCF732FE16
:103910007801CDE90004694613480294FCF72AFEB9
:103920000C20CDE90004694648460294FCF722FECB
:1039300000970396CDE9015469464846FCF71AFE04
:103940004020CDE90005CDE9024669465046FCF726
:1039500011FE06B0BDE8F08700100240000C0140E7
:10396000002001400010014000140140FEE7FDF777
:103970005BF8FEE770477047FCF708BF30B58FB0C3
:1039800028216846FCF709FC14210AA8FCF705FC6D
:1039900001210804CDE900100024029402250491BD
:1039A000CDE907504FF4E01009906846FDF748F85C
:1039B00008B172B6FEE70F20CDE90A054FF480602A
:1039C000CDE90C4002210AA80E94FCF76BFF08B168
:1039D00072B6FEE7FCF7FCFF0FB030BD7047FEE7A4
:1039E0000907090E002804DB00F1E02080F800142C
:1039F000704700F00F0000F1E02080F8141D7047C0
:103A000002E008C8121F08C1002AFAD170477047A7
:103A1000002001E001C1121F002AFBD17047000005
:103A200008B5FCF7BBFEFFF7A9FFFFF705FFFFF79F
:103A3000B9FEFDF7D3FA0120FDF7F4F90122114692
:103A4000FE48FCF798FE00204FF4F0784FF416790A
:103A500043464A4601460090FDF79CFAF84E4FF661
:103A6000FF75F0234A46194600203560FDF736FA07
:103A70004FF49672434600211046FDF72FFA4FF49B
:103A8000D27748F2304A3B464A4619460020C6F8EB
:103A900000A0FDF723FA4FF4B47423464A461946B2
:103AA0000020FDF71BFA4FF496734A461946002092
:103AB000FDF714FAB4234A4619460020FDF70EFA22
:103AC00078234A4619460020FDF708FA3C234A4667
:103AD00019460020FDF702FA4FF40779434648469D
:103AE0004A460021FDF7FAF943461A4600211046DE
:103AF000FDF7F4F93A46434600211046FDF7EEF98A
:103B00002246434600211046FDF7E8F9F0224346DD
:103B100000211046FDF7E2F9B42243460021104689
:103B2000FDF7DCF97822434600211046FDF7D6F96F
:103B30003C22434600211046FDF7D0F9F0234FF414
:103B400016794A46194600203560FDF7C7F94FF44B
:103B5000967B4FF4F0775A463B4600211046FDF71E
:103B6000BDF9DFF8E0A2012240215046FCF703FE38
:103B7000012280215046FCF7FEFD48F230404FF410
:103B8000D274234630604A4619460020FDF7A6F954
:103B90004FF4B47843464A4619460020FDF79EF993
:103BA0005B464A4619460020FDF798F9B4234A4679
:103BB00019460020FDF792F978234A46194600205D
:103BC000FDF78CF93C234A4619460020FDF786F99B
:103BD0004FF407703B4602460021FDF77FF93B4654
:103BE0001A4600211046FDF779F922463B4600218E
:103BF0001046FDF773F942463B4600211046FDF79B
:103C00006DF9F0223B4600211046FDF767F9B4221A
:103C10003B4600211046FDF761F978223B46002122
:103C20001046FDF75BF93C223B4600211046FDF7AC
:103C300055F9002240218448FCF79DFD00224FF4F5
:103C400080715046FCF797FDDFF8008200244FF4A6
:103C50008057DFF8FCB110E0032C0ED30020306059
:103C600038F8140005EA4003601E82B2009805EAA5
:103C70004001A01E80B2FDF731F938F81400DFF8DA
:103C8000BC910090012239464846FCF774FD4FF480
:103C9000005A51464846FCF769FDC00128F8140057
:103CA0004FF480414846FCF761FD38F8141001EBF1
:103CB000801028F814004FF400414846FCF756FDE8
:103CC00038F8141001EB401028F814004FF400618C
:103CD0005846FCF74BFD38F81410002201EB001099
:103CE00028F8140039464846FCF745FD3946584641
:103CF000FCF73CFD38F8141001EBC00028F8140064
:103D000051465846FCF732FD38F8141001EB80009C
:103D100028F8140004214B48FCF728FD38F814104B
:103D200001EB400028F8140008214648FCF71EFD6E
:103D300038F81410084480B228F81400B0F5F07F69
:103D400000D028B908EB440030F8020C28F8140021
:103D5000032C12D34FF47840306038F8140005EA91
:103D60004003601E82B208EB440030F8020C05EA02
:103D70004001A01E80B2FDF7B1F8641CA4B2B4F5F6
:103D8000167F7FF669AF002240212F48FCF7F3FC35
:103D9000012211022B48FCF7EEFC00242D4F0FE00E
:103DA000022C0DD30020306037F8140005EA4801DA
:103DB00005EA4003601E82B2A01E80B2FDF78EF8B5
:103DC000DFF878B04FF4805A37F81480012251465A
:103DD0005846FCF7D0FC4FF400515846FCF7C6FC9F
:103DE000C00127F814004FF480415846FCF7BEFC90
:103DF00037F8141001EB801027F814004FF400413D
:103E00005846FCF7B3FC37F81410DFF8449001EB88
:103E1000401027F814004FF400614846FCF7A6FC58
:103E200037F81410002201EB001027F81400514657
:103E30005846FCF7A0FC514648460DE0000C0140F6
:103E40000C00002000200140001001402000002054
:103E500000140140D2040020FCF788FC37F814104D
:103E600001EBC00027F814004FF400514846FCF75E
:103E70007DFC37F81410DFF87C9001EB800027F808
:103E8000140004214846FCF771FC37F8141001EBCC
:103E9000400027F8140008214846FCF767FC37F873
:103EA0001410022C084480B227F8140010D305EA3D
:103EB0004003601E82B24FF4FC6107EB44003160A6
:103EC00030F8020C05EA4001A01E80B2FDF706F8AA
:103ED000641CA4B2B4F5167F7FF662AF054C0022D5
:103EE00040212046FCF747FC002280212046FCF7B9
:103EF00042FC23E60020014000000000000000001A
:103F0000010203040607080901020203040506076B
:103F100008090A0B0C0D0E0F101000003C3F0008A2
:103F20000000002020000000003A00085C3F00086C
:103F300020000020C00D0000103A00080000000022
:103F4000000000000024F400000000FFFFFFFFFF5E
:0C3F500001000000100000000000000054
:0400000508000131BD
:00000001FF
