:020000040800F2
:100000007804002049010008E7390008090E0008BB
:10001000E5390008DF030008573A00080000000037
:10002000000000000000000000000000EF390008A0
:10003000E103000800000000ED390008F139000874
:100040006301000863010008630100086301000800
:1000500063010008630100086301000863010008F0
:1000600063010008630100086301000863010008E0
:1000700063010008630100086301000863010008D0
:1000800063010008630100086301000863010008C0
:1000900063010008630100086301000863010008B0
:1000A00063010008630100086301000863010008A0
:1000B0006301000863010008630100086301000890
:1000C0006301000863010008630100086301000880
:1000D0006301000863010008630100086301000870
:1000E0006301000863010008630100086301000860
:1000F0006301000863010008630100086301000850
:10010000630100086301000863010008630100083F
:10011000630100086301000863010008630100082F
:10012000630100086301000863010008630100081F
:10013000DFF810D000F032F900480047993A000883
:10014000AFF3008078040020064880470648004747
:10015000FEE7FEE7FEE7FEE7FEE7FEE7FEE7FEE777
:10016000FEE7FEE7553A000831010008202A04DBCB
:10017000203A21FA02F00021704721FA02F3D04020
:10018000C2F120029140084319467047D2B201E003
:1001900000F8012B491EFBD270470022F6E710B58C
:1001A00013460A4604461946FFF7F0FF204610BDE5
:1001B0002DE9FE4F81EA030404F0004421F00041E0
:1001C00000944FF0000B23F0004350EA01045ED08E
:1001D00052EA03045BD0C3F30A54C1F30A552C441A
:1001E000A4F2F3340194A0FB0254C1F3130141F4CF
:1001F0008011C3F3130343F4801301FB024400FB9B
:10020000034E840A970A44EA815447EA8357A4FBC1
:10021000076802958D0A05FB07854FEA932C04FBBE
:100220000C542705029D4FEA065847EA1637B5EBEE
:1002300008056EEB070C870E920E47EA811742EA1B
:100240008312A7FB0201B6EB0B0164EB00042B0D3C
:1002500043EA0C335E1844EB1C50DA465146E7FB88
:100260000201C5F313044FEA0B3343EA14534FEA78
:100270000432019C43EA0603A4F10C040294009C9E
:10028000CDE900B400F03BF803B0BDE8F08F0020EA
:100290000146F9E70EB540F2334102910021CDE964
:1002A00000110A460B4600F02AF803B000BDC1F366
:1002B0000A5210B5C1F3130140F2FF3341F480112B
:1002C0009A4201DA002010BD40F233439A42A2F272
:1002D000334203DC5242FFF749FF10BD904010BD8E
:1002E00010B5141E73F1000408DA401C41F100013E
:1002F00092185B411A4301D120F0010010BD2DE995
:10030000F04D92469B4611B1B1FA81F202E0B0FA8B
:1003100080F22032904600F053F804460F4640EA3F
:100320000A0041EA0B0153465A46084313D01146CE
:1003300053EA010019D0C8F140025046FFF716FFFA
:1003400005460E4650465946424600F039F80843E5
:1003500005D0012004E020463946BDE8F08D00209C
:10036000054346EAE0762C4337430A986305E40ADE
:10037000A0EB08000022FD0A44EA47540A3002D5E7
:1003800000200146E9E7010510196941DDE908454A
:1003900000196941BDE8F04DA2E70000064C074D89
:1003A00006E0E06840F0010394E807009847103445
:1003B000AC42F6D3FFF7C0FECC520008EC52000866
:1003C000202A04DB203A00FA02F100207047914015
:1003D000C2F1200320FA03F3194390407047FEE76F
:1003E000704772B6FEE7000030B5B3F5804F05D018
:1003F0006FF0704140F82210002030BD8C690B680E
:100400008D6823434C688989240144EA05242343E9
:1004100043EA014150F82230014C23401943E9E7F7
:100420000000F0CF10B50A6850F8223023F0010325
:1004300040F822308C68082C23D000234A682243DD
:10044000CC681C430B6922431A434B690E4C1A4378
:10045000CB691A430B6A1A434B6A1A438B6A1A43D5
:10046000CB6A1A430B6B1A438B6913434A6B0968B7
:100470001A4350F82130A343134340F821300020A1
:1004800010BD4023DAE700007FFF0F0030B5D1E94F
:10049000003443EA04138C688D89240244EA05443D
:1004A00023430C8A094D00EB820005EB04542343DF
:1004B0000C7D6D0105EB0464896923430B4341689E
:1004C00001F040410B434360002030BD0000F0FFCD
:1004D00070B5044600F050F90546601C02D004488F
:1004E0000078044400F048F9401BA042FAD370BDE4
:1004F0001400002030B585B00020009001900290DB
:10050000039017480168002927D10121016015488F
:10051000416941F4807141614069022400F48070B6
:10052000049041F20100CDE90004032569460395DA
:100530000D4800F01FF84FF68070CDE900046946C1
:1005400003950A4800F016F84CF23370CDE9000428
:1005500069460395064800F00DF805B030BD00006F
:10056000000000200010024000200140001801405F
:10057000001401402DE9F84FDFF8C891002409F17B
:10058000040A0AF1040B23460F270BF1040ED1E0F5
:100590000125A54006EA0502AA4276D1DFF8A8C1E6
:1005A0004E68A6EB0C0866452BD00DDC032E34D02C
:1005B00005DC36B3012E19D0022E2FD11BE0112EEF
:1005C00016D0122E2AD119E0B8F5881F19D006DCF2
:1005D000B8F5803F15D0B8F5801F1FD111E0B8F5F0
:1005E000001F0ED0B8F5041F18D10AE0CB6815E043
:1005F000CB681B1D12E0CB6808330FE0CB680C33CF
:100600000CE08B682BB1012B4FF0080303D0456140
:1006100004E0042302E0056100E00023FF2A01D882
:10062000064601E000F104064FEA840501D9A5F170
:100630002005D6F8008007FA05FC28EA0C0803FA22
:1006400005F548EA0508C6F800804D68ED0070D54C
:100650003E4DAE6946F00106AE61AD6924F0030679
:1006600005F0010500953A4D06EB050CDCF8085045
:10067000A607360F07FA06F825EA0805DFF8D48042
:10068000404503D14FF0000825E052E0DFF8C88074
:10069000404502D14FF001081DE0DFF8C080404521
:1006A00002D14FF0020816E0DFF8B480404502D1D5
:1006B0004FF003080FE0DFF8AC80404502D14FF067
:1006C000040808E0DFF8A080404502D14FF005089B
:1006D00001E04FF0060808FA06F848EA0508CCF8E9
:1006E00008804D68D9F80060ED034D4601D51643EA
:1006F00000E096432E604D68DAF80060AD03554681
:1007000001D5164300E096432E604D68DBF800608B
:10071000ED025D4601D5164300E096432E604D681C
:10072000DEF80060AD02754601D5164300E0964341
:100730002E60641C0A681646E2407FF429AFBDE8CB
:10074000F88F00000004014000001110001002406A
:100750000000014000080140000C01400010014071
:100760000014014000180140001C01400AB1016161
:1007700070470904FBE700000148806870470000EB
:10078000140000200248816802781144816070479B
:1007900014000020074810B5016841F01001016005
:1007A000032000F067F8002000F006F800F024F8BD
:1007B000002010BD0020024070B50D4D04464FF4DE
:1007C0007A712878B1FBF0F00A490968B1FBF0F0C2
:1007D00000F006FB48B9102C07D200222146501E1B
:1007E00000F028F800206C6070BD012070BD000092
:1007F00014000020080000200C4808B5816941F071
:1008000001018161816901F001010091C16941F03B
:100810008051C161C06900F0805000900448416877
:1008200021F0E06141F00071416008BD001002401C
:1008300000000140F0B40E4B1B680C46C3F30223CA
:10084000C3F10705042D00D90425191D072901D27C
:10085000002300E0DB1E012606FA05F1491E2140B7
:1008600099409E40761E16403143F0BC03F0F4B828
:100870000CED00E0064900F0070208684FF6FF03A0
:10088000184040EA0220034A104308607047000005
:100890000CED00E00000FA05704700002DE9F0477C
:1008A0000F46050061D0434E306800F00700B842A3
:1008B00009D2306820F0070038433060306800F01B
:1008C0000700B84251D128683B4C810712D5400738
:1008D00003D5606840F4E06060602878000703D5C5
:1008E000606840F4605060606068A96820F0F000C3
:1008F000084360602878C00728D06868012810D0B5
:100900002168022810D0890700292EDA616821F0B9
:10091000030101436160FFF72FFF804641F28839F0
:100920000DE021688903EFE78901EDE7FFF724FF78
:10093000A0EB0801494502D90320BDE8F0876068B3
:10094000696800F00C00B0EB810FEFD1306800F067
:100950000700B8420BD9306820F0070038433060F8
:10096000306800F00700B84201D00120E5E72878A0
:10097000400705D56068E96820F4E06008436060DE
:100980002878000706D56068296920F4605040EA9D
:10099000C100606000F01EF86168084AC1F30311ED
:1009A000515CC8400649086006480068FFF704FF2C
:1009B0000020C2E70020024000100240FC3A00087C
:1009C000080000201800002001490120C864704779
:1009D0000000424212A185B00FC98DE80F0014A09B
:1009E000144A006804905168134801F00C03042B6A
:1009F00010D0082B0ED1C1F38343C9031DF80300A7
:100A00000AD5516804AAC1F34041515C0A4A5043D7
:100A1000B0FBF1F005B0704708494843FAE7000021
:100A200002030405060708090A0B0C0D0E0F10102F
:100A3000010200000010024000127A0000093D008F
:100A400010B5044CA068000603D5FFF725FF8020F1
:100A5000A07210BD001002402DE9F84F040070D0C4
:100A60002078C04DC00749D06868C0F381000128D4
:100A700007D06868C0F38100022809D16868C00304
:100A800006D52868800339D560680028E7D035E0AE
:100A90006068B0F5803F0BD010B1B0F5A02F11D039
:100AA000286820F480302860286820F4802002E044
:100AB000286840F480302860606890B1FFF75CFEE1
:100AC00006460AE0286840F480202860F0E700BF6E
:100AD000FFF752FE801B642873D828688003F7D57F
:100AE0000CE0FFF749FE064605E000BFFFF744FEB5
:100AF000801B6428F0D828688003F7D420789A4EA9
:100B000080074FF001094FF0000839D5686810F0F0
:100B10000C0F07D06868C0F38100022809D168680B
:100B2000C00306D42868800714D52069012808D19D
:100B300010E02069B0B1C6F80090FFF71DFE07462F
:100B400005E00AE1FFF718FEC01B0228C4D8286898
:100B50008007F7D52868616920F0F80040EAC100F5
:100B600028600DE0C6F80080FFF706FE074604E0A7
:100B7000FFF702FEC01B022823D828688007F7D49D
:100B8000207800072CD57948A169D9B1C0F8009028
:100B9000FFF7F2FD074604E0FFF7EEFDC01B022859
:100BA0000FD8686A8007F7D571484FF4FA5100688A
:100BB000B0FBF1F0009000BF0098411E0091FAD206
:100BC0000EE080E0C0F80080FFF7D6FD074604E0A5
:100BD000FFF7D2FDC01B022875D8686A8007F7D4DA
:100BE0002078400760D5E8690027C00008D4E8698C
:100BF00040F08050E861E869012700F080500090E3
:100C00005C480168C90513D40168834641F48071CA
:100C10000160FFF7B1FD824606E000BFFFF7ACFDC3
:100C2000A0EB0A0064284ED8DBF80000C005F5D51B
:100C3000E06801280AD008B1052813D0286A20F0FE
:100C400001002862286A20F0040002E0286A40F0CF
:100C500001002862E06841F2883B98B1FFF78CFD03
:100C600082460BE0286A40F004002862EEE700BFED
:100C7000FFF782FDA0EB0A0159455AD8286A800780
:100C8000F6D50CE0FFF778FD824605E0FFF774FD2E
:100C9000A0EB0A0159454CD8286A8007F6D41FB149
:100CA000E86920F08050E861E06988B36968C1F3C1
:100CB0008101022944D00228C6F8608004D0FFF7E1
:100CC0005BFD044638E034E0FFF756FD074604E0DC
:100CD000FFF752FDC01B02282BD828688001F7D4EB
:100CE000206AB0F5803F05D16868A16820F4003023
:100CF00008436860D4E908010843696821F4741165
:100D000008436860C6F86090FFF736FD044606E0C9
:100D100025E000BFFFF730FD001B022809D8286836
:100D20008001F7D51BE000BFFFF726FD001B02285E
:100D300002D90320BDE8F88F28688001F4D40EE0C2
:100D40000128F7D06868226A00F48031914204D10A
:100D5000616A00F47010884201D00120EAE70020A7
:100D6000E8E70000001002400000424280044242D6
:100D7000080000200070004070B515460E460400C3
:100D800007D0A069B0F5807F03D094F8410010B17E
:100D900007E0012070BD002084F84000204600F0EC
:100DA0001DF804F108012068FFF73CFB3146A268FA
:100DB0002068FFF76BFBD4E901022946236BFFF79C
:100DC00013FBA168206850F8212042F0010240F88E
:100DD0002120012084F84100002070BDFFF78ABB6C
:100DE00010B5401EB0F1807F01D3012010BD4FF03F
:100DF000E02460610F21601702F02EFE0020A06148
:100E000007202061002010BDFEE7000070B50949F1
:100E10000646002408884D8821464543204602F0B6
:100E200011FC02F035FD044801E00680641CAC4270
:100E3000FBD370BD680000200008006C2DE9F04F66
:100E40002B492C260A46887192884FF4305A4FF469
:100E5000285B4FF4487541F6631E2B274FF02A0C90
:100E60004FF0F00845F210594FF4A0744FF4F073AE
:100E7000B8B10C80A1F802804A4532D1A1F808A08F
:100E8000A1F80AB0380288810D804B80A2F5A640F7
:100E9000103801D10B804C80BDE8F04F002002F0EB
:100EA00011BBA1F800804C804A4507D1A1F808A0E9
:100EB000A1F80AB04FF42C50888105E072450E81EC
:100EC00005D14F81A1F80CC00B804D8002E0A1F844
:100ED0000AC08F81A2F5A6401038DDD10C804B806E
:100EE000DAE70E81A1F80AC072458F81CCD0CDE738
:100EF000680000202DE9F0419046304A0D46044636
:100F0000060A918810462F0A4089A1F5AA43103B92
:100F10000FD0A1F5C853633B24D002F0ADFC30469E
:100F200002F09EFCE0B202F09BFC908902F0A4FC6F
:100F300036E002F0A1FC304602F092FC5089401CE1
:100F400080B202F099FCE0B202F08AFC908902F0D3
:100F500093FC384602F084FC9089401C80B202F079
:100F60008BFC20E0917919B91188091B491E8CB2BC
:100F700002F082FC260A304602F072FCE0B202F077
:100F80006FFC304602F06CFCE0B202F069FC908924
:100F900002F072FC384602F063FCE8B202F060FC3A
:100FA000384602F05DFCE8B202F05AFC04491089B0
:100FB0000880891CA1F80080BDE8F081680000204D
:100FC000FE07006C2DE9F05FD32002F055FC02F023
:100FD00049FAFE4CA08002F045FAA08002F042FAE5
:100FE0004FF6FF7505EA0020A08002F03BFAA188C9
:100FF00049F241380843A08041F6631947F28976E7
:1010000045F2103A45F210574FF4704B404571D0FD
:10101000042002F031FC02F025FAA08002F022FA4E
:10102000A08002F01FFA05EA0020A08002F01AFA60
:10103000A1880843A0F50541A08052397DD0B04277
:1010400058D0D42002F018FC02F00CFAA08002F074
:1010500009FAA08002F006FA05EA0020A08002F05A
:1010600001FAA1880843A080504543D05521584635
:1010700002F018FCAA214FF2010002F013FC5221E9
:101080004FF2020002F00EFC08214FF2030002F0C2
:1010900009FC01214FF2040002F004FC4FF445402A
:1010A00002F0EAFB02F0DEF905EA0020A0804CF233
:1010B000015002F0E1FB02F0D5F9A1880843A080BD
:1010C0000520FFF705FAA088B84213D0A12002F04E
:1010D000D3FB02F0C7F9A08002F0C4F905EA0020B2
:1010E000A08002F0BFF9A1880843A0F5AE41A0801E
:1010F00061397DD080B240457BD1CF2002F0BCFB6E
:10110000002002F0ADFBC12002F0AAFB302002F06B
:10111000A7FBED2002F0B0FB642002F0A1FB03204E
:1011200002F09EFB122002F09BFB812002F098FB54
:10113000E82002F0A1FB852000E0F5E002F090FB42
:10114000102002F08DFB7A2002F08AFBCB2002F007
:1011500093FB392002F084FB2C2002F081FB00205D
:1011600002F07EFB342002F07BFB022002F078FBD1
:10117000F72002F081FB202002F072FBEA2002F04F
:101180007BFB002002F06CFB002002F069FBC0201A
:1011900002F072FB1B2002F063FBC12002F06CFB2B
:1011A000012002F05DFBC52002F066FB302002F05A
:1011B00057FB302002F054FBC72002F05DFBB72044
:1011C00002F04EFB362002F057FB482002F048FBAD
:1011D0003A2002F051FB552002F042FBB12002F010
:1011E0004BFB002002F03CFB1A2002F039FB01E02F
:1011F0009CE09FE0B62002F03FFB0A2002F030FBAB
:10120000A22002F02DFBF22002F036FB002002F0BB
:1012100027FB262002F030FB012002F021FBE0201A
:1012200002F02AFB0F2002F01BFB2A2002F018FB21
:10123000282002F015FB082002F012FB0E2002F01D
:101240000FFB082002F00CFB542002F009FBA92040
:1012500002F006FB432002F003FB0A2002F000FB31
:101260000F2002F0FDFA002002F0FAFA002002F04E
:10127000F7FA002002F0F4FA002002F0F1FAE1207F
:1012800002F0FAFA002002F0EBFA152002F0E8FA78
:10129000172002F0E5FA072002F0E2FA112002F02E
:1012A000DFFA062002F0DCFA2B2002F0D9FA5620F1
:1012B00002F0D6FA3C2002F0D3FA052002F0D0FA70
:1012C000102002F0CDFA0F2002F0CAFA3F2002F0FF
:1012D000C7FA3F2002F0C4FA0F2002F0C1FA2B2017
:1012E00002F0CAFA002002F0BBFA002002F0B8FABD
:1012F000012002F0B5FA3F2002F0B2FA2A2002F0F3
:10130000BBFA002002F0ACFA002002F0A9FA00209B
:1013100002F0A6FAEF2002F0A3FA112002F0ACFAD4
:101320007820FFF7D5F8DBE0A68005E0A4F804906C
:1013300001F0D8BFB0427CD1112002F09DFA782094
:10134000FFF7C6F8362002F097FA002002F088FA7C
:101350003A2002F091FA052002F082FAB22002F05F
:101360008BFA0C2002F07CFA0C2002F079FA0020B3
:1013700002F076FA332002F073FA332002F070FAAA
:10138000B72002F079FA352002F06AFABB2002F0A9
:1013900073FA322002F064FAC02002F06DFA0C20D9
:1013A00002F05EFAC22002F067FA012002F058FA59
:1013B000C32002F061FA102002F052FAC42002F0B9
:1013C0005BFA202002F04CFAC62001E06800002001
:1013D00002F052FA0F2002F043FAD02002F04CFA49
:1013E000A42002F03DFAA12002F03AFAE02002F037
:1013F00043FAD02002F034FA002002F031FA022041
:1014000002F02EFA072002F02BFA0A2002F028FA46
:10141000282002F025FA322002F022FA442002F0BD
:101420001FFA422002F01CFA062002F019FA0E20E0
:1014300000E058E002F014FA122002F011FA142031
:1014400002F00EFA172002F00BFAE12002F014FA73
:10145000D02002F005FA002002F002FA022002F089
:10146000FFF9072002F0FCF90A2002F0F9F9282020
:1014700002F0F6F9312002F0F3F9542002F0F0F90D
:10148000472002F0EDF90E2002F0EAF91C2002F0EC
:10149000E7F9172002F0E4F91B2002F0E1F91E2021
:1014A00002F0DEF92A2002F0E7F9002002F0D8F974
:1014B000002002F0D5F9002002F0D2F9EF2002F06E
:1014C000CFF92B2002F0D8F9002002F0C9F9002052
:1014D00002F0C6F9012002F0C3F93F2002F0C0F982
:1014E000292001F0FABE50457ED1ED2002F0C4F96A
:1014F000012002F0B5F9FE2002F0B2F9EE2002F070
:10150000BBF9DE2002F0ACF9212002F0A9F9F120AC
:1015100002F0B2F9012002F0A3F9DF2002F0ACF9E9
:10152000102002F09DF9C42002F0A6F98F2002F0ED
:1015300097F9C62002F0A0F9002002F091F9E2200C
:1015400002F08EF9E22002F08BF9E22002F088F935
:10155000BF2002F091F9AA2002F082F9B02002F037
:101560008BF90D2002F07CF9002002F079F90D20B2
:1015700002F076F9002002F073F9112002F070F900
:10158000002002F06DF9192002F06AF9002002F043
:1015900067F9212002F064F9002002F061F92D20A2
:1015A00002F05EF9002002F05BF93D2002F058F9EC
:1015B000002002F055F95D2002F052F9002002F0FF
:1015C0004FF95D2002F04CF9002002F049F9B120FA
:1015D00002F052F9802002F043F9002002F040F9B5
:1015E0008B2002F03DF900E0FDE3002002F038F925
:1015F000962002F035F9002002F032F9B22002F014
:101600003BF9002002F02CF9002002F029F9022019
:1016100002F026F9002002F023F9032002F020F95D
:10162000002002F01DF9B32002F026F9002002F09C
:1016300017F9002002F014F9002002F011F900203F
:1016400002F00EF9002002F00BF9002002F008F978
:10165000002002F005F9002002F002F9002002F05B
:10166000FFF8002002F0FCF8002002F0F9F800205A
:1016700002F0F6F8002002F0F3F8002002F0F0F893
:10168000002002F0EDF8002002F0EAF8002002F05D
:10169000E7F8002002F0E4F8002002F0E1F8002072
:1016A00002F0DEF8002002F0DBF8002002F0D8F8AB
:1016B000002002F0D5F8002002F0D2F8B42002F0A9
:1016C000DBF88B2002F0CCF8002002F0C9F896205D
:1016D00002F0C6F8002002F0C3F8A12002F0C0F822
:1016E000002002F0BDF8B52002F0C6F8022002F09A
:1016F000B7F8002002F0B4F8032002F0B1F800209F
:1017000002F0AEF8042002F0ABF8002002F0A8F8D6
:10171000B62002F0B1F8002002F0A2F8002002F09A
:101720009FF8B72002F0A8F8002002F099F80020F6
:1017300002F096F83F2002F093F8002002F090F8B3
:101740005E2002F08DF8002002F08AF8642002F09A
:1017500087F8002002F084F88C2002F081F8002045
:1017600002F07EF8AC2002F07BF8002002F078F85E
:10177000DC2002F075F8002002F072F8702002F010
:101780006FF8002002F06CF8902002F069F8002059
:1017900002F066F8EB2002F063F8002002F060F837
:1017A000DC2002F05DF8002002F05AF8B82002F0C8
:1017B00063F8002002F054F8002002F051F80020F5
:1017C00002F04EF8002002F04BF8002002F048F83A
:1017D000002002F045F8002002F042F8002002F05C
:1017E0003FF8BA2002F048F8242002F039F800202F
:1017F00002F036F8002002F033F8002002F030F852
:10180000C12002F039F8202002F02AF8002002F06E
:1018100027F8542002F024F8002002F021F8FF20DD
:1018200002F01EF8002002F01BF8C22002F024F89B
:101830000A2002F015F8002002F012F8042002F04D
:101840000FF8002002F00CF8C32002F015F83C203D
:1018500002F006F8002002F003F83A2002F000F847
:10186000002001F0FDFF392001F0FAFF002001F017
:10187000F7FF372001F0F4FF002001F0F1FF3C20DA
:1018800001F0EEFF002001F0EBFF362001F0E8FF51
:10189000002001F0E5FF322001F0E2FF002001F01E
:1018A000DFFF2F2001F0DCFF002001F0D9FF2C200A
:1018B00001F0D6FF002001F0D3FF292001F0D0FF76
:1018C000002001F0CDFF262001F0CAFF002001F02A
:1018D000C7FF242001F0C4FF002001F0C1FF242035
:1018E00001F0BEFF002001F0BBFF232001F0B8FF94
:1018F000002001F0B5FF3C2001F0B2FF002001F014
:10190000AFFF362001F0ACFF002001F0A9FF32202C
:1019100001F0A6FF002001F0A3FF2F2001F0A0FF9F
:10192000002001F09DFF2C2001F09AFF002001F023
:1019300097FF292001F094FF002001F091FF26205D
:1019400001F08EFF002001F08BFF242001F088FFC2
:10195000002001F085FF242001F082FF002001F02B
:101960007FFF232001F07CFF002001F079FFC420DD
:1019700001F082FF622001F073FF002001F070FF90
:10198000052001F06DFF002001F06AFF842001F0C6
:1019900067FF002001F064FFF02001F061FF0020EC
:1019A00001F05EFF182001F05BFF002001F058FFFE
:1019B000A42001F055FF002001F052FF182001F093
:1019C0004FFF002001F04CFF502001F049FF0020A4
:1019D00001F046FF0C2001F043FF002001F040FF22
:1019E000172001F03DFF002001F03AFF952001F0A3
:1019F00037FF002001F034FFF32001F031FF002019
:101A000001F02EFFE62001F02BFF002001F028FF5F
:101A1000C52001F031FF322001F022FF002001F04B
:101A20001FFF442001F01CFF002001F019FF65207A
:101A300001F016FF002001F013FF762001F010FFE7
:101A4000002001F00DFF882001F00AFF002001F0C6
:101A500007FFC62001F010FF202001F001FF002049
:101A600001F0FEFE172001F0FBFE002001F0F8FE61
:101A7000012001F0F5FE002001F0F2FEC72001F088
:101A8000FBFE002001F0ECFE002001F0E9FE00204A
:101A900001F0E6FE002001F0E3FEC82001F0ECFEBC
:101AA000002001F0DDFE002001F0DAFE002001F050
:101AB000D7FE002001F0D4FEC92001F0DDFE002099
:101AC00001F0CEFE002001F0CBFE002001F0C8FEA8
:101AD000002001F0C5FE002001F0C2FE002001F050
:101AE000BFFE002001F0BCFE002001F0B9FE002086
:101AF00001F0B6FE002001F0B3FE002001F0B0FEC0
:101B0000002001F0ADFE002001F0AAFE002001F04F
:101B1000A7FE002001F0A4FE002001F0A1FEE020BD
:101B200001F0AAFE162001F09BFE002001F098FEB5
:101B30001C2001F095FE002001F092FE212001F012
:101B40008FFE002001F08CFE362001F089FE00207F
:101B500001F086FE462001F083FE002001F080FEA9
:101B6000522001F07DFE002001F07AFE642001F099
:101B700077FE002001F074FE7A2001F071FE002053
:101B800001F06EFE8B2001F06BFE002001F068FE7C
:101B9000992001F065FE002001F062FEA82001F00E
:101BA0005FFE002001F05CFEB92001F059FE00202C
:101BB00001F056FEC42001F053FE002001F050FE5B
:101BC000CA2001F04DFE002001F04AFED22001F0B3
:101BD00047FE002001F044FED92001F041FE002024
:101BE00001F03EFEE02001F03BFE002001F038FE57
:101BF000F32001F035FE002001F032FEE12001F07B
:101C00003BFE162001F02CFE002001F029FE1C20D6
:101C100001F026FE002001F023FE222001F020FE2C
:101C2000002001F01DFE362001F01AFE002001F018
:101C300017FE452001F014FE002001F011FE522095
:101C400001F00EFE002001F00BFE642001F008FE02
:101C5000002001F005FE7A2001F002FE002001F0D4
:101C6000FFFD8B2001F0FCFD002001F0F9FD992023
:101C700001F0F6FD002001F0F3FDA82001F0F0FDD9
:101C8000002001F0EDFDB92001F0EAFD002001F097
:101C9000E7FDC42001F0E4FD002001F0E1FDCA20D1
:101CA00001F0DEFD002001F0DBFDD22001F0D8FDC7
:101CB000002001F0D5FDD82001F0D2FD002001F078
:101CC000CFFDE02001F0CCFD002001F0C9FDF320A4
:101CD00001F0C6FD002001F0C3FDE22001F0CCFDC3
:101CE000052001F0BDFD002001F0BAFD0B2001F040
:101CF000B7FD002001F0B4FD1B2001F0B1FD002074
:101D000001F0AEFD342001F0ABFD002001F0A8FD94
:101D1000442001F0A5FD002001F0A2FD4F2001F0BC
:101D20009FFD002001F09CFD612001F099FD002045
:101D300001F096FD792001F093FD002001F090FD67
:101D4000882001F08DFD002001F08AFD972001F030
:101D500087FD002001F084FDA62001F081FD002018
:101D600001F07EFDB72001F07BFD002001F078FD41
:101D7000C22001F075FD002001F072FDC72001F0C6
:101D80006FFD002001F06CFDD12001F069FD002005
:101D900001F066FDD62001F063FD002001F060FD3A
:101DA000DD2001F05DFD002001F05AFDF32001F07F
:101DB00057FD002001F054FDE32001F05DFD0520FA
:101DC00001F04EFD002001F04BFD0A2001F048FD1E
:101DD000002001F045FD1C2001F042FD002001F033
:101DE0003FFD332000E0FAE201F03AFD002001F06F
:101DF00037FD442001F034FD002001F031FD50207A
:101E000001F02EFD002001F02BFD622001F028FDE5
:101E1000002001F025FD782001F022FD002001F0D6
:101E20001FFD882001F01CFD002001F019FD972006
:101E300001F016FD002001F013FDA62001F010FDB9
:101E4000002001F00DFDB72001F00AFD002001F097
:101E500007FDC22001F004FD002001F001FDC720B4
:101E600001F0FEFC002001F0FBFCD12001F0F8FCA9
:101E7000002001F0F5FCD52001F0F2FC002001F07B
:101E8000EFFCDD2001F0ECFC002001F0E9FCF32088
:101E900001F0E6FC002001F0E3FCE42001F0ECFCA2
:101EA000012001F0DDFC002001F0DAFC012001F04E
:101EB000D7FC002001F0D4FC022001F0D1FC00206E
:101EC00001F0CEFC2A2001F0CBFC002001F0C8FC80
:101ED0003C2001F0C5FC002001F0C2FC4B2001F0C9
:101EE000BFFC002001F0BCFC5D2001F0B9FC00202B
:101EF00001F0B6FC742001F0B3FC002001F0B0FC4E
:101F0000842001F0ADFC002001F0AAFC932001F038
:101F1000A7FC002001F0A4FCA22001F0A1FC0020FD
:101F200001F09EFCB32001F09BFC002001F098FC26
:101F3000BE2001F095FC002001F092FCC42001F0CD
:101F40008FFC002001F08CFCCD2001F089FC0020EA
:101F500001F086FCD32001F083FC002001F080FC1E
:101F6000DD2001F07DFC002001F07AFCF32001F07F
:101F700077FC002001F074FCE52001F07DFC0020DE
:101F800001F06EFC002001F06BFC002001F068FC09
:101F9000002001F065FC022001F062FC002001F04D
:101FA0005FFC292001F05CFC002001F059FC3C2082
:101FB00001F056FC002001F053FC4B2001F050FCD6
:101FC000002001F04DFC5D2001F04AFC002001F0F2
:101FD00047FC742001F044FC002001F041FC842007
:101FE00001F03EFC002001F03BFC932001F038FCA6
:101FF000002001F035FCA22001F032FC002001F0AD
:102000002FFCB32001F02CFC002001F029FCBE20A5
:1020100001F026FC002001F023FCC42001F020FC8C
:10202000002001F01DFCCD2001F01AFC002001F081
:1020300017FCD32001F014FC002001F011FCDC207F
:1020400001F00EFC002001F00BFCF32001F008FC75
:10205000002001F005FCE62001F00EFC112001F04B
:10206000FFFB002001F0FCFB342001F0F9FB002015
:1020700001F0F6FB562001F0F3FB002001F0F0FB2D
:10208000762001F0EDFB002001F0EAFB772001F063
:10209000E7FB002001F0E4FB662001F0E1FB0020FB
:1020A00001F0DEFB882001F0DBFB002001F0D8FB13
:1020B000992001F0D5FB002001F0D2FBBB2001F0FC
:1020C000CFFB002001F0CCFB992001F0C9FB0020E0
:1020D00001F0C6FB662001F0C3FB002001F0C0FB4D
:1020E000552001F0BDFB002001F0BAFB552001F0A6
:1020F000B7FB002001F0B4FB452001F0B1FB00204C
:1021000001F0AEFB432001F0ABFB002001F0A8FB87
:10211000442001F0A5FB002001F0A2FBE72001F024
:10212000ABFB322001F09CFB002001F099FB552015
:1021300001F096FB002001F093FB762001F090FB6C
:10214000002001F08DFB662001F08AFB002001F0E9
:1021500087FB672001F084FB002001F081FB6720F2
:1021600001F07EFB002001F07BFB872001F078FB73
:10217000002001F075FB992001F072FB002001F0B6
:102180006FFBBB2001F06CFB002001F069FB992084
:1021900001F066FB002001F063FB772001F060FB9B
:1021A000002001F05DFB442001F05AFB002001F00B
:1021B00057FB562001F054FB002001F051FB232077
:1021C00001F04EFB002001F04BFB332001F048FBF7
:1021D000002001F045FB452001F042FB002001F00A
:1021E0003FFBE82001F048FB002001F039FB002014
:1021F00001F036FB992001F033FB002001F030FBA9
:10220000872001F02DFB002001F02AFB882001F03F
:1022100027FB002001F024FB772001F021FB0020A8
:1022200001F01EFB662001F01BFB002001F018FBF3
:10223000882001F015FB002001F012FBAA2001F01C
:102240000FFB002001F00CFBBB2001F009FB00207C
:1022500001F006FB992001F003FB002001F000FBD8
:10226000662001F0FDFA002001F0FAFA552001F095
:10227000F7FA002001F0F4FA552001F0F1FA0020FD
:1022800001F0EEFA442001F0EBFA002001F0E8FA48
:10229000442001F0E5FA002001F0E2FA552001F0B7
:1022A000DFFA002001F0DCFAE92001F0E5FAAA20CB
:1022B00001F0D6FA002001F0D3FA002001F0D0FAA4
:1022C000002001F0CDFA002001F0D6FAAA2001F09A
:1022D000C7FACF2001F0D0FA002001F0C1FA0020A7
:1022E00001F0BEFA002001F0BBFA002001F0B8FABC
:1022F000002001F0B5FA002001F0B2FA002001F050
:10230000AFFA002001F0ACFA002001F0A9FA002099
:1023100001F0A6FA002001F0A3FA002001F0A0FAD3
:10232000002001F09DFA002001F09AFA002001F04F
:1023300097FA002001F094FA002001F091FAF020C1
:1023400001F09AFA002001F08BFA502001F088FA8F
:10235000002001F085FA002001F082FA002001F04F
:102360007FFAF32001F088FA002001F079FAF920D1
:1023700001F082FA062001F073FA102001F070FAE1
:10238000292001F06DFA002001F06AFA3A2001F0EC
:1023900073FA552001F064FA112001F06DFA6420FF
:1023A000FEF796F8292001F067FA352001F064FA6B
:1023B000002001F055FA512001F05EFAFF2001F0F3
:1023C0004FFA532001F058FA2C2001F049FA552019
:1023D00001F052FA822001F043FA2C20FDE3B842CA
:1023E0007DD15521584601F05DFA4FF20103AA2133
:1023F000184601F057FA4FF202045221204601F02C
:1024000051FA661C0821304601F04CFAA71C012144
:10241000384601F047FA0D214FF4304001F042FAFE
:102420000D214BF2010001F03DFA0D214BF20200AB
:1024300001F038FA4FF436483421404601F032FAC0
:1024400034214BF2016001F02DFA34214BF202608D
:1024500001F028FA4FF431490D21484601F022FAE3
:102460004BF2011A0D21504601F01CFA0D214BF2DE
:10247000021001F017FA34214FF4374001F012FA3C
:1024800034214BF2017001F00DFA34214BF202704D
:1024900001F008FA00214FF4324001F003FA002164
:1024A0004BF2012001F0FEF900214BF2022001F075
:1024B000F9F924214FF4384001F0F4F924214BF6C6
:1024C000010001F0EFF924214BF6020001F0EAF9D6
:1024D00001214FF43F4001F0E5F90F2100E0FDE359
:1024E0004FF4334001F0DEF90F214BF2013001F0DF
:1024F000D9F90F214BF2023001F0D4F934214FF415
:10250000394001F0CFF934214BF6011001F0CAF93E
:1025100034214BF6021001F0C5F908214FF4354083
:1025200001F0C0F908214BF2015001F0BBF908217C
:102530004BF2025001F0B6F903214FF4424001F092
:10254000B1F924214FF43A4001F0ACF924214BF6C3
:10255000012001F0A7F924214BF6022001F0A2F995
:1025600000214FF43C4001F09DF978214BF60140E9
:1025700001F098F900214BF6024001F093F9002197
:102580004FF43D4001F08EF978214BF6015001F0F7
:1025900089F900214BF6025001F084F900214FF433
:1025A0003E4001F07FF964214BF6016001F07AF9B9
:1025B00000214FF4514001F075F933214DF2011023
:1025C00001F070F900214DF2021001F06BF9342195
:1025D0004DF2031001F066F900214DF2041001F0F4
:1025E00061F93A214DF2051001F05CF900214DF23C
:1025F000061001F057F94A214DF2071001F052F987
:1026000000214DF2081001F04DF95C214DF2091046
:1026100001F048F900214DF20A1001F043F981213F
:102620004DF20B1001F03EF900214DF20C1001F0BB
:1026300039F9A6214DF20D1001F034F900214DF2C7
:102640000E1001F02FF9E5214DF20F1001F02AF9DB
:1026500001214DF2101001F025F913214DF2111056
:1026600001F020F901214DF2121001F01BF9542163
:102670004DF2131001F016F901214DF2141001F082
:1026800011F982214DF2151001F00CF901214DF2E2
:10269000161001F007F9CA214DF2171001F002F9E6
:1026A00002214DF2181001F0FDF800214DF2191031
:1026B00001F0F8F802214DF21A1001F0F3F80121AF
:1026C0004DF21B1001F0EEF802214DF21C1001F04A
:1026D000E9F834214DF21D1001F0E4F802214DF229
:1026E0001E1001F0DFF867214DF21F1001F0DAF83B
:1026F00002214DF2201001F0D5F884214DF2211075
:1027000001F0D0F802214DF2221001F0CBF8A42103
:102710004DF2231001F0C6F802214DF2241001F011
:10272000C1F8B7214DF2251001F0BCF802214DF29D
:10273000261001F0B7F8CF214DF2271001F0B2F8C2
:1027400002214DF2281001F0ADF8DE214DF22910E2
:1027500001F0A8F802214DF22A1001F0A3F8F221AD
:102760004DF22B1001F09EF802214DF22C1001F0D9
:1027700099F8FE214DF22D1001F094F803214DF24D
:102780002E1001F08FF810214DF22F1001F08AF871
:1027900003214DF2301001F085F833214DF2311054
:1027A00001F080F803214DF2321001F07BF86D2129
:1027B0004DF2331001F076F800214FF4524001F051
:1027C00071F833214DF2012001F06CF800214DF237
:1027D000022001F067F834214DF2032001F062F885
:1027E00000214DF2042001F05DF83A214DF2052060
:1027F00001F058F800214DF2062001F053F84A216B
:102800004DF2072001F04EF800214DF2082001F0B2
:1028100049F85C214DF2092001F044F800214DF205
:102820000A2001F03FF881214DF20B2001F03AF827
:1028300000214DF20C2001F035F8A6214DF20D20BB
:1028400001F030F800214DF20E2001F02BF8E521C7
:102850004DF20F2001F026F801214DF2102001F079
:1028600021F813214DF2112001F01CF801214DF245
:10287000122001F017F854214DF2132001F012F844
:1028800001214DF2142001F00DF882214DF21520A6
:1028900001F008F801214DF2162001F003F8CA21D9
:1028A0004DF2172000F0FEFF02214DF2182000F03B
:1028B000F9FF00214DF2192000F0F4FF02214DF242
:1028C0001A2000F0EFFF01214DF21B2000F0EAFF7B
:1028D00002214DF21C2000F0E5FF34214DF21D20B5
:1028E00000F0E0FF02214DF21E2000F0DBFF672127
:1028F0004DF21F2000F0D6FF02214DF2202000F003
:10290000D1FF84214DF2212000F0CCFF02214DF2B5
:10291000222000F0C7FFA4214DF2232000F0C2FFC7
:1029200002214DF2242000F0BDFFB7214DF22520F9
:1029300000F0B8FF02214DF2262000F0B3FFCF21B6
:102940004DF2272000F0AEFF02214DF2282000F0CA
:10295000A9FFDE214DF2292000F0A4FF02214DF253
:102960002A2000F09FFFF2214DF22B2000F09AFF69
:1029700002214DF22C2000F095FFFE214DF22D207A
:1029800000F090FF03214DF22E2000F08BFF10216C
:102990004DF22F2000F086FF03214DF2302000F091
:1029A00081FF33214DF2312000F07CFF03214DF2F5
:1029B000322000F077FF6D214DF2332000F072FFDE
:1029C00000214FF4534000F06DFF33214DF20130F0
:1029D00000F068FF00214DF2023000F063FF342167
:1029E0004DF2033000F05EFF00214DF2043000F0A4
:1029F00059FF3A214DF2053000F054FF00214DF20D
:102A0000063000F04FFF4A214DF2073000F04AFF38
:102A100000214DF2083000F045FF5C214DF20930F5
:102A200000F040FF00214DF20A3000F03BFF812111
:102A30004DF20B3000F036FF00214DF20C3000F06B
:102A400031FFA6214DF20D3000F02CFF00214DF298
:102A50000E3000F027FFE5214DF20F3000F022FF8D
:102A600001214DF2103000F01DFF13214DF2113005
:102A700000F018FF01214DF2123000F013FF542135
:102A80004DF2133000F00EFF01214DF2143000F032
:102A900009FF82214DF2153000F004FF01214DF2B3
:102AA000163000F0FFFECA214DF2173000F0FAFE9A
:102AB00002214DF2183000F0F5FE00214DF21930E0
:102AC00000F0F0FE02214DF21A3000F0EBFE012181
:102AD0004DF21B3000F0E6FE02214DF21C3000F0FA
:102AE000E1FE34214DF21D3000F0DCFE02214DF2FA
:102AF0001E3000F0D7FE67214DF21F3000F0D2FEED
:102B000002214DF2203000F0CDFE84214DF2213023
:102B100000F0C8FE02214DF2223000F0C3FEA421D5
:102B20004DF2233000F0BEFE02214DF2243000F0C1
:102B3000B9FEB7214DF2253000F0B4FE02214DF26E
:102B4000263000F0AFFECF214DF2273000F0AAFE74
:102B500002214DF2283000F0A5FEDE214DF2293091
:102B600000F0A0FE02214DF22A3000F09BFEF2217F
:102B70004DF22B3000F096FE02214DF22C3000F089
:102B800091FEFE214DF22D3000F08CFE03214DF21E
:102B90002E3000F087FE10214DF22F3000F082FE23
:102BA00003214DF2303000F07DFE33214DF2313003
:102BB00000F078FE03214DF2323000F073FE6D21FB
:102BC0004DF2333000F06EFE00214FF4544000F01F
:102BD00069FE33214DF2014000E07EE300F062FE29
:102BE00000214DF2024000F05DFE34214DF2034021
:102BF00000F058FE00214DF2044000F053FE3A214F
:102C00004DF2054000F04EFE00214DF2064000F06E
:102C100049FE4A214DF2074000F044FE00214DF2EA
:102C2000084000F03FFE5C214DF2094000F03AFE02
:102C300000214DF20A4000F035FE81214DF20B409B
:102C400000F030FE00214DF20C4000F02BFEA621DA
:102C50004DF20D4000F026FE00214DF20E4000F036
:102C600021FEE5214DF20F4000F01CFE01214DF246
:102C7000104000F017FE13214DF2114000F012FE3B
:102C800001214DF2124000F00DFE54214DF213408F
:102C900000F008FE01214DF2144000F003FE8221F5
:102CA0004DF2154000F0FEFD01214DF2164000F0FE
:102CB000F9FDCA214DF2174000F0F4FD02214DF25A
:102CC000184000F0EFFD00214DF2194000F0EAFD40
:102CD00002214DF21A4000F0E5FD00E000E3012181
:102CE0004DF21B4000F0DEFD02214DF21C4000F0D1
:102CF000D9FD34214DF21D4000F0D4FD02214DF2EA
:102D00001E4000F0CFFD67214DF21F4000F0CAFDCC
:102D100002214DF2204000F0C5FD84214DF22140FA
:102D200000F0C0FD02214DF2224000F0BBFDA421C5
:102D30004DF2234000F0B6FD02214DF2244000F098
:102D4000B1FDB7214DF2254000F0ACFD02214DF25E
:102D5000264000F0A7FDCF214DF2274000F0A2FD54
:102D600002214DF2284000F09DFDDE214DF2294068
:102D700000F098FD02214DF22A4000F093FDF2216F
:102D80004DF22B4000F08EFD02214DF22C4000F060
:102D900089FDFE214DF22D4000F084FD03214DF20E
:102DA0002E4000F07FFD10214DF22F4000F07AFD03
:102DB00003214DF2304000F075FD33214DF23140DA
:102DC00000F070FD03214DF2324000F06BFD6D21EB
:102DD0004DF2334000F066FD00214FF4554000F005
:102DE00061FD33214DF2015000F05CFD00214DF2F8
:102DF000025000F057FD34214DF2035000F052FD17
:102E000000214DF2045000F04DFD3A214DF20550E5
:102E100000F048FD00214DF2065000F043FD4A212C
:102E20004DF2075000F03EFD00214DF2085000F039
:102E300039FD5C214DF2095000F034FD00214DF2C6
:102E40000A5000F02FFD81214DF20B5000F02AFDB9
:102E500000214DF20C5000F025FDA6214DF20D5041
:102E600000F020FD00214DF20E5000F01BFDE52189
:102E70004DF20F5000F016FD01214DF2105000F000
:102E800011FD13214DF2115000F00CFD01214DF206
:102E9000125000F007FD54214DF2135000F002FDD6
:102EA00001214DF2145000F0FDFC82214DF215502D
:102EB00000F0F8FC01214DF2165000F0F3FCCA219D
:102EC0004DF2175000F0EEFC02214DF2185000F0C8
:102ED000E9FC00214DF2195000F0E4FC02214DF212
:102EE0001A5000F0DFFC01214DF21B5000F0DAFC1B
:102EF00002214DF21C5000F0D5FC34214DF21D5042
:102F000000F0D0FC02214DF21E5000F0CBFC6721F6
:102F10004DF21F5000F0C6FC02214DF2205000F08F
:102F2000C1FC84214DF2215000F0BCFC02214DF285
:102F3000225000F0B7FCA4214DF2235000F0B2FC67
:102F400002214DF2245000F0ADFCB7214DF2255086
:102F500000F0A8FC02214DF2265000F0A3FCCF2186
:102F60004DF2275000F09EFC02214DF2285000F057
:102F700099FCDE214DF2295000F094FC02214DF223
:102F80002A5000F08FFCF2214DF22B5000F08AFC09
:102F900002214DF22C5000F085FCFE214DF22D5007
:102FA00000F080FC03214DF22E5000F07BFC10213C
:102FB0004DF22F5000F076FC03214DF2305000F01E
:102FC00071FC33214DF2315000F06CFC03214DF2C5
:102FD000325000F067FC6D214DF2335000F062FC7E
:102FE00000214FF4564000F05DFC33214DF20160AA
:102FF00000F058FC00214DF2026000F053FC342137
:103000004DF2036000F04EFC00214DF2046000F030
:1030100049FC3A214DF2056000F044FC00214DF2DC
:10302000066000F03FFC4A214DF2076000F03AFCD8
:1030300000214DF2086000F035FC5C214DF2096082
:1030400000F030FC00214DF20A6000F02BFC8121E1
:103050004DF20B6000F026FC00214DF20C6000F0F8
:1030600021FCA6214DF20D6000F01CFC00214DF268
:103070000E6000F017FCE5214DF20F6000F012FC2D
:1030800001214DF2106000F00DFC13214DF2116092
:1030900000F008FC01214DF2126000F003FC542105
:1030A0004DF2136000F0FEFB01214DF2146000F0C0
:1030B000F9FB82214DF2156000F0F4FB01214DF285
:1030C000166000F0EFFBCA214DF2176000F0EAFB3A
:1030D00002214DF2186000F0E5FB00214DF219606D
:1030E00000F0E0FB02214DF21A6000F0DBFB012151
:1030F0004DF21B6000F0D6FB02214DF21C6000F087
:10310000D1FB34214DF21D6000F0CCFB02214DF2C9
:103110001E6000F0C7FB67214DF21F6000F0C2FB8C
:1031200002214DF2206000F0BDFB84214DF22160B0
:1031300000F0B8FB02214DF2226000F0B3FBA421A5
:103140004DF2236000F0AEFB02214DF2246000F04E
:10315000A9FBB7214DF2256000F0A4FB02214DF23E
:10316000266000F09FFBCF214DF2276000F09AFB14
:1031700002214DF2286000F095FBDE214DF229601E
:1031800000F090FB02214DF22A6000F08BFBF2214F
:103190004DF22B6000F086FB02214DF22C6000F016
:1031A00081FBFE214DF22D6000F07CFB03214DF2EE
:1031B0002E6000F077FB10214DF22F6000F072FBC3
:1031C00003214DF2306000F06DFB33214DF2316090
:1031D00000F068FB03214DF2326000F063FB6D21CB
:1031E0004DF2336000F05EFB5521584600F05AFB6B
:1031F000AA21184600F056FB5221204600F052FB4F
:103200000821304600F04EFB0021384600F04AFB12
:10321000CC21484600F046FB0021504600F042FB1E
:103220000521404600F03EFB70214FF4374000F08E
:1032300039FB70214BF2017000F034FB01214FF497
:10324000384000F02FFB03214BF6010000F02AFB71
:1032500003214BF6020000F025FB03214BF603008F
:1032600000F020FB02214FF43C4000F01BFB00214A
:103270004BF6014000F016FB00214BF6024000F037
:1032800011FBD0214FF4494000F00CFB02214CF619
:10329000011000F007FB50214CF6021000F002FB79
:1032A00050214CF6031000F0FDFA50214CF60410AA
:1032B00000F0F8FA00214FF4545000F0F3FA5521D1
:1032C0004FF4685000F0EEFA4FF4885000F0D4FA52
:1032D0000120FDF7FDF84FF4245000F0CDFAB9E0DD
:1032E0004845FCD1E22000F0C7FA1D2000F0B8FAF2
:1032F000022000F0B5FA042000F0B2FA0120FDF738
:10330000E7F8E02000F0B8FA012000F0A9FA0A205E
:10331000FDF7DEF8E02000F0AFFA032000F0A0FA9D
:103320000C20FDF7D5F8012000F0A6FA0A20FDF7E1
:10333000CFF8E62000F0A0FA2F2000F091FAFF204D
:1033400000F08EFAFF2000F08BFAB02000F094FA23
:10335000202000F085FA002000F082FA032000F01F
:103360007FFA40F21F3000F07BFA012000F078FA7B
:1033700040F2DF1000F074FA002000F071FAB4207F
:1033800000F07AFA042000F06BFA40F21F4000F0DF
:1033900067FA002000F064FA2E2000F061FA0020A5
:1033A00000F05EFA002000F05BFA002000F058FA0E
:1033B000002000F055FAB62000F05EFA022000F07E
:1033C0004FFA4FF4037000F04BFA002000F048FA77
:1033D000172000F045FA152000F042FA002000F016
:1033E0003FFA002000F03CFAF02000F045FA0320FC
:1033F00000F036FA292000F03FFAD02000F03CFA25
:10340000002000F02DFABE2000F036FA052000F072
:1034100027FAFE2000F024FA012000F021FA002013
:1034200000F01EFA002000F01BFA002000F018FA4D
:10343000B82000F021FA032000F012FA012000F079
:103440000FFABA2000F018FA012000F009FA6420FF
:1034500000F012F80020FDF7F1FC2846BDE8F05F0F
:10346000FDF7D4BC034808B50088ADF80000BDF8EE
:10347000000008BD0008006C10B50246BE2000F038
:10348000FBF9052000F0ECF91046FCF703FF4FF0C4
:1034900066320B4BFCF78CFEFCF709FF80B200F0A4
:1034A000DFF9012000F0DCF9FF2000F0D9F900205D
:1034B00000F0D6F9BDE81040002000F0D1B90000BE
:1034C0006666044070B55E4C00232146A279898867
:1034D00041F66316012A01D01AB10CE0B14202D1C3
:1034E00009E0B14207D1082805D2DFE800F016183C
:1034F00012140C19100E082812D2DFE800F0110483
:1035000006080A0C0E1080230AE0402308E0C023BE
:1035100006E0202304E0602302E0A02300E0E02393
:1035200045F21055A94202D14FF4585000E0362020
:10353000A1F51342413A03D0A1F5EE42893A01D1F7
:1035400043F00803194600F0ADF9A188B1420AD052
:1035500098062088628802D5904202D303E0904208
:1035600001D9228060806089A94240D100F084F9AD
:10357000002000F075F96089401C80B200F07CF9F1
:10358000002000F06DF96089801C80B200F074F9B1
:103590002088401EC0F30F2000F062F96089C01C33
:1035A00080B200F069F92078401EC0B200F058F9EE
:1035B000A08900F061F9002000F052F9A089401CB8
:1035C00080B200F059F9002000F04AF9A089801C6F
:1035D00080B200F051F96088401EC0F30F2000F067
:1035E0003FF9A089C01C80B200F046F921E000F04C
:1035F00043F9002000F034F9002000F031F9208870
:10360000401EC0F30F2000F02BF92078401EC0B2FE
:1036100000F026F9A08900F02FF9002000F020F931
:10362000002000F01DF96088401EC0F30F2000F05C
:1036300017F9A078BDE87040401EC0B200F010B984
:1036400068000020F0B53B4A0D460446060A918802
:1036500010462F0A4089A1F5C853633B16D0A1F547
:10366000AA43103B4CD000F007F9304600F0F8F8C0
:10367000E0B200F0F5F8908900F0FEF8384600F06E
:10368000EFF8E8B2BDE8F04000F0EAB8917931B364
:1036900000F0F2F8304600F0E3F8E0B200F0E0F8B5
:1036A0001088401EC0F30F2000F0DAF81078401E9A
:1036B0005FFA80F000F0D4F8908900F0DDF8384629
:1036C00000F0CEF8E8B200F0CBF85088401EC0F30E
:1036D0000F2000F0C5F89078401EC0B2D2E71188E4
:1036E000091B491E8CB200F0C7F8002000F0B8F8A2
:1036F000002000F0B5F8200A00F0B2F8E0B2D9E7F7
:1037000000F0BAF8304600F0ABF85089401C80B2A7
:1037100000F0B2F8E0B200F0A3F8908900F0ACF845
:10372000384600F09DF89089401C80B200F0A4F863
:10373000A7E70000680000202DE9FF4F1D460C465A
:103740008A46580700D0012000EBD500690848439D
:10375000203A00F0FF09D0B20026DFF89CB00290BA
:1037600046E00C2D12D0102D15D0182D42D1029804
:10377000224900EBC00000BF01EB80004FF00008C1
:10378000875D38060CD51E4800880DE002981D495B
:1037900000EB4000F0E71C49029801EB0010EDE758
:1037A0000D9830B916488088214682B20098FDF7FE
:1037B000A1FB7806070E641CBBF80200A4B2A0426D
:1037C00018D9A4EB0A00A84209D100985446401C1D
:1037D00080B20090BBF8001081420BD906E008F1DE
:1037E000010000F0FF08B8F1080FCAD3761CF6B24A
:1037F0004E45B6D3BDE8FF8F680000207045000835
:103800000C0000200C3B0008803F00082DE9F84F19
:10381000044600F0FF0910190D46DDE90AB61FFA4B
:1038200080F8581987B24FF0000A12E0444503D3DC
:1038300005EB0B004C4685B2BD420FD25B462946D4
:103840002046CDF800A0FFF777FF04EB5B0084B2C1
:10385000761C3278A2F120005E28E7D9BDE8F88F07
:1038600001B5BDF80000ADF80000BDF80000014949
:10387000088008BD0008006C01B5BDF80000ADF877
:103880000000BDF800000149088008BDFE07006C7B
:103890000248034900890880704700006800002042
:1038A000FE07006C024A1080901C018070470000E7
:1038B000FE07006C10B58EB01C216846FCF76DFC4D
:1038C0001C2107A8FCF769FC1C484FF0204110227E
:1038D00001601B494160062181600021C160C0E98F
:1038E00004128161C16113020162C0E909139302EC
:1038F000C0E90B1341638163022000900F20CDE9E2
:10390000010203AC112384E80E0004240691CDE9E2
:10391000074009AC092084E80F000D9107AA694609
:103920000648FDF729FA08B1FCF75BFD0548C169B7
:1039300041F48061C1610EB010BD00002000002084
:10394000040100A00000014010B586B000200090E6
:103950000190029003902148816941F0100181613A
:10396000816901F010010491816941F008018161D0
:10397000816901F008010491816941F480718161DC
:10398000816901F480710491816941F04001816194
:10399000816901F040010491816941F02001816158
:1039A000816901F020010491816941F00401816184
:1039B00080690B4C00F00400049000220121204695
:1039C000FCF7D4FE012100910191022102910391A3
:1039D00069462046FCF7CEFD06B010BD001002403F
:1039E000000C0140FEE7FDF72BF8FEE7704770473B
:1039F000FCF7C8BE30B58FB028216846FCF7CDFB78
:103A000014210AA8FCF7C9FB01210804CDE9001024
:103A10000024029402250491CDE907504FF4E010F0
:103A200009906846FDF718F808B172B6FEE70F2056
:103A3000CDE90A054FF48060CDE90C4002210AA8C7
:103A40000E94FCF72BFF08B172B6FEE7FCF7BCFF43
:103A50000FB030BD7047FEE70907090E002804DBF0
:103A600000F1E02080F80014704700F00F0000F132
:103A7000E02080F8141D704702E008C8121F08C13A
:103A8000002AFAD170477047002001E001C1121FDF
:103A9000002AFBD1704700001CB5FCF77BFEFFF746
:103AA000A9FFFFF751FFFFF705FFFDF78BFA012094
:103AB000FDF7C4F90B494FF4784001220860114624
:103AC0000948FCF753FE4FF6FF70FDF79FF91020F1
:103AD00006A1CDE900010346C8225A211E20FFF7A6
:103AE00095FEFEE70C000020000C014041544F4DB4
:103AF00040414C49454E54454B0000000000000039
:103B0000000000000102030406070809000000008D
:103B10000000000000000000000000003F40000026
:103B200000000000000030004000300040000000B5
:103B300009000BC03D000BC03D00090018C0244027
:103B40007FE0224031800000180024C01B000D805F
:103B50003240018003801C4027401C800740004009
:103B600010006000000000000000000000000000E5
:103B700000001F80204040200000402020401F8087
:103B800000000000090006001F8006000900000078
:103B9000040004003F8004000400000000100060E6
:103BA0000000000000000000040004000400040005
:103BB00004000000000000400000000000000000C1
:103BC000002001C006003800400000001F80204097
:103BD000204020401F800000000010403FC00040F7
:103BE0000000000018C0214022402440184000007E
:103BF00010802040244024401B80000002000D0063
:103C000011003FC0014000003C802440244024407B
:103C1000238000001F8024402440344003800000A3
:103C20003000200027C03800200000001B80244006
:103C3000244024401B8000001C0022C0224022405F
:103C40001F8000000000000008400000000000008D
:103C500000000000046000000000000000000400FC
:103C60000A001100208040400900090009000900F5
:103C70000900000000004040208011000A000400FC
:103C80001800200023402400180000001F8020405E
:103C9000274029401F400000004007C039000F00A6
:103CA00001C0004020403FC0244024401B80000051
:103CB0001F802040204020403080000020403FC036
:103CC000204020401F80000020403FC024402E4064
:103CD00030C0000020403FC024402E0030000000D3
:103CE0000F001080204022403380020020403FC05F
:103CF000040004003FC02040204020403FC020403E
:103D0000204000000060202020203FC02000200034
:103D100020403FC024400B0030C0204020403FC026
:103D200020400040004000C03FC03C0003C03C00B9
:103D30003FC0000020403FC00C4023003FC0200097
:103D40001F802040204020401F80000020403FC0B6
:103D500024402400180000001F802140214020E062
:103D60001FA0000020403FC02440260019C0004092
:103D700018C0244024402240318000003000204000
:103D80003FC020403000000020003F800040004045
:103D90003F80200020003E0001C0070038002000C6
:103DA000380007C03C0007C038000000204039C080
:103DB000060039C0204000002000384007C03840CD
:103DC00020000000304021C02640384020C00000C4
:103DD000000000007FE04020402000000000700054
:103DE0000C000380004000000000402040207FE0E5
:103DF0000000000000002000400020000000000043
:103E00000010001000100010001000100000000052
:103E10004000000000000000000002800540054056
:103E200003C0004020003FC0044004400380000065
:103E300000000380044004400640000000000380AE
:103E4000044024403FC0004000000380054005407E
:103E500003400000000004401FC024402440200014
:103E6000000002E0055005500650042020403FC0ED
:103E70000440040003C000400000044027C000408C
:103E80000000000000100010041027E000000000F7
:103E900020403FC00140070004C0044020402040B3
:103EA0003FC000400040000007C0040007C00400FD
:103EB00003C00000044007C00440040003C00040E9
:103EC000000003800440044003800000041007F059
:103ED00004500440038000000000038004400450AC
:103EE00007F00010044007C0024004000400000076
:103EF000000006400540054004C00000000004002A
:103F00001F8004400040000004000780004004407F
:103F100007C000400400070004C001800600040040
:103F2000060001C0070001C006000000044006C0F2
:103F3000010006C0044000000410071004E00180E6
:103F4000060004000000044005C0064004400000D4
:103F50000000000004007BE04020000000000000A2
:103F60000000FFF000000000000040207BE00400A3
:103F700000000000400080004000200020004000C1
:103F80000000000000000000000000000000000031
:103F90000000000000001FCC000C0000000000002A
:103FA00000000800300060000800300060000000E1
:103FB000022003FC1E20022003FC1E200220000021
:103FC00000000E1811043FFF10840C780000000060
:103FD0000F0010840F3800C00778188400780000A4
:103FE00000780F8410C411240E9800E400840008A7
:103FF00008006800700000000000000000000000E1
:1040000000000000000007E0181820044002000033
:10401000000040022004181807E000000000000023
:104020000240024001800FF0018002400240000087
:104030000080008000800FF8008000800080000079
:104040000001000D000E0000000000000000000054
:1040500000000080008000800080008000800080E0
:104060000000000C000C0000000000000000000038
:104070000000000600180060018006001800200003
:10408000000007F0080810041004080807F00000FA
:104090000000080408041FFC0004000400000000E5
:1040A00000000E0C10141024104411840E0C00009B
:1040B00000000C1810041104110412880C70000088
:1040C000000000E00320042408241FFC002400005A
:1040D00000001F9810841104110410881070000053
:1040E000000007F00888110411041888007000000F
:1040F00000001C00100010FC13001C001000000049
:1041000000000E3811441084108411440E38000051
:1041100000000700088C10441044088807F00000D5
:10412000000000000000030C030C00000000000071
:104130000000000000010106000000000000000077
:104140000000008001400220041008081004000054
:104150000220022002200220022002200220000071
:104160000000100408080410022001400080000034
:1041700000000E001200100C106C10800F000000E8
:1041800003E00C1813E4142417C4082807D0000017
:104190000004003C03C41C40074000E4001C000471
:1041A00010041FFC1104110411040E88007000009B
:1041B00003E00C1810041004100410081C10000078
:1041C00010041FFC100410041004080807F000007D
:1041D00010041FFC1104110417C410040818000077
:1041E00010041FFC1104110017C01000080000008B
:1041F00003E00C181004100410441C780040000068
:1042000010041FFC10840080008010841FFC100428
:104210000000100410041FFC100410040000000033
:1042200000030001100110011FFE1000100000002B
:1042300010041FFC110403801464181C10040000F7
:1042400010041FFC1004000400040004000C000013
:1042500010041FFC1F0000FC1F001FFC10040000C6
:1042600010041FFC0C04030000E010181FFC1000D9
:1042700007F00808100410041004080807F00000F4
:1042800010041FFC10841080108010800F000000AC
:1042900007F0081810241024101C080A07F2000068
:1042A00010041FFC1104110011C011300E0C000489
:1042B00000000E1C11041084108410441C380000EF
:1042C0001800100010041FFC10041000180000005B
:1042D00010001FF810040004000410041FF8100060
:1042E00010001E0011E0001C007013801C00100064
:1042F0001FC0103C00E01F0000E0103C1FC0000089
:104300001004180C163401C001C01634180C100427
:1043100010001C00130400FC13041C00100000001B
:104320000804101C1064108413041C0410180000EE
:104330000000000000007FFE40024002400200003A
:10434000000030000C0003800060001C000300002F
:1043500000004002400240027FFE0000000000001A
:10436000000000002000400040004000200000004D
:104370000001000100010001000100010001000135
:10438000000040004000200000000000000000008D
:1043900000000098012401440144014400FC000491
:1043A00010001FFC00880104010400880070000058
:1043B000000000700088010401040104008800006E
:1043C0000000007000880104010411081FFC0004B3
:1043D000000000F8014401440144014400C8000009
:1043E0000000010401040FFC110411041100180065
:1043F000000000D601290129012901C90106000098
:1044000010041FFC008401000100010400FC0004F2
:1044100000000104190419FC00040004000000005D
:104420000000000300010101190119FE0000000055
:1044300010041FFC0024004001B4010C0104000022
:104440000000100410041FFC000400040000000021
:10445000010401FC0104010001FC0104010000FC55
:10446000010401FC008401000100010400FC0004BF
:10447000000000F8010401040104010400F8000038
:10448000010101FF008501040104008800700000A3
:1044900000000070008801040104010501FF000113
:1044A0000104010401FC00840104010001800000FA
:1044B000000000CC01240124012401240198000003
:1044C00000000100010007F80104010400000000E1
:1044D000010001F8000400040004010801FC0004CC
:1044E000010001800170000C0010016001800100DA
:1044F00001F0010C003001C00030010C01F001009E
:1045000000000104018C00740170018C01040000A2
:10451000010101810171000E00180160018001009C
:1045200000000184010C013401440184010C0000ED
:10453000000000000000000001003EFC40024002BC
:104540000000000000000000FFFF0000000000006D
:104550000000400240023EFC01000000000000009C
:10456000000060008000800040004000200020002B
:10457000000000000000000000000000000000003B
:10458000000000000000000000000000000000002B
:10459000000000000000000000000000000000001B
:1045A0000000000F80380FFE380F80380000000038
:1045B00000000000000000000000000000000100FA
:1045C000000600000C00003800003100000600006A
:1045D0000C00003800003000000000000000000067
:1045E00061800067F807F9800061800061800061E8
:1045F000800061800067F807F9800061800000009A
:1046000000000000000001C0E003E0F006300804F4
:1046100018081FFFFE040E080787F00381E0000062
:104620000000000001F000060C00040408060C70F5
:1046300001F9C0000E00003BE000EC180708080478
:104640000C180003E00000000001E00007F003F890
:1046500018041C0804170807E1D003C0E00023B0C9
:10466000003C0800200800001000000000000001CD
:1046700000003100003200001C00000000000000BB
:10468000000000000000000000000000000000002A
:10469000000000000000000000000000000000001A
:1046A0007F0001FFC00780F00C00181000042000FC
:1046B000020000000000002000021000040C00189E
:1046C0000780F001FFC0007F000000000000000034
:1046D0000000000000000000000000004200006632
:1046E00000006600003C0000180003FFC000180036
:1046F000003C000066000066000042000000000070
:10470000080000080000080000080000080001FF81
:10471000C0000800000800000800000800000800B1
:1047200000000000000100003100003200001C0009
:104730000000000000000000000000000000000079
:104740000000000000000000080000080000080051
:104750000008000008000008000008000008000031
:104760000800000800000000000000000000000039
:104770003800003800003800000000000000000091
:104780000000000000000000000000000000000029
:10479000000600001C000070000180000E000038C0
:1047A0000000C0000700001C0000300000000000F6
:1047B000000000007F8001FFE00380700600180405
:1047C000000804000806001803807001FFE0007F65
:1047D0008000000000000000000001000801000847
:1047E00001000803FFF807FFF800000800000800B8
:1047F000000800000000000000000001C03802C0F6
:1048000058040098040118040218040418061C181F
:1048100003F81801E0F800000000000000000001AB
:10482000C0E003C0F00400080408080408080618E3
:104830000803F41801E7F00001E0000000000000A8
:10484000000000000300000D0000110000610000E6
:10485000810803010807FFF80FFFF80001080001B5
:10486000080000000000000000E007FCD006080877
:10487000061008061008061008061838060FF0067D
:1048800007C0000000000000000000003F8001FFA2
:10489000E00384300208180410080410080410080B
:1048A000071810030FF00007C00000000000000010
:1048B000000003C0000700000600000600F806071D
:1048C000F806180006E000070000060000000000DF
:1048D00000000001E1E003F7F006341004180804BA
:1048E0001808040C08040C0806161803F3F001C19C
:1048F000E000000000000000F80003FC3003063870
:104900000402080402080402080404100308F00169
:10491000FFC0007F00000000000000000000000059
:10492000000000000000000070380070380070388F
:104930000000000000000000000000000000000077
:10494000000000000000000000000000301A0030ED
:104950001C0000000000000000000000000000003B
:104960000000000000000008000014000022000009
:104970004100008080010040020020040010080077
:1049800008000000000000002100002100002100BC
:104990000021000021000021000021000021000072
:1049A00021000021000000000000000000000800BD
:1049B0000804001002002001004000808000410037
:1049C00000220000140000080000000000000003A6
:1049D000C00004C000040000080038080F380808B0
:1049E000380810000C300007E00003C00000000091
:1049F000000000003F8000FFE0038070020F1006FF
:104A0000708804C088048308047F8802C090030172
:104A10002000FE400000080000180001F8003E08D9
:104A200001C20007020007E20000FE00001FC800EC
:104A300001F800003800000804000807FFF807FF2D
:104A4000F8040808040808040808040808061808F8
:104A500003F41801E7F00001E0000000000000008E
:104A60003F8001FFE003807002001804000804008A
:104A7000080400080400100600200780C0000000A1
:104A800004000807FFF807FFF80400080400080402
:104A9000000804001802001003807001FFE0007F8E
:104AA0008000000004000807FFF807FFF80408086A
:104AB000040808040808040808043E08040008065E
:104AC000001801006000000004000807FFF807FF5D
:104AD000F8040808040800040800040800043E0064
:104AE0000600000600000180000000000000000039
:104AF0003F8001FFE00380700600180400080402F4
:104B0000080402080203F00783F00002000002001C
:104B100004000807FFF807FFF80408080008000071
:104B2000080000080000080004080807FFF807FF55
:104B3000F804000800000000000004000804000859
:104B400004000807FFF807FFF80400080400080441
:104B50000008000000000000000000000006000047
:104B60000700000104000104000104000307FFFE28
:104B700007FFFC0400000400000400000400080714
:104B8000FFF807FFF8040C08001800003E0004C7F7
:104B9000800503C80600F804003804001800000867
:104BA00004000807FFF807FFF804000800000800E9
:104BB00000080000080000080000080000180000BD
:104BC0006000000004000807FFF807800807FC00E9
:104BD000007FC00003F80007C000780007800807C6
:104BE000FFF807FFF804000804000807FFF80700B3
:104BF0000803C00000E000003800001E00000700AD
:104C00000001C00400F007FFF804000000000000ED
:104C10007F8001FFE0038070060018040008040094
:104C20000806001803003001FFE0007F800000004C
:104C300004000807FFF807FFF80404080404000450
:104C40000400040400040400060C0003F80001F052
:104C500000000000000000007F8001FFE003807082
:104C60000600880400880400C806003C03003E01DA
:104C7000FFE6007F8400000004000807FFF807FF3C
:104C8000F8040808040800040C00040F00040BC01A
:104C90000610F003F03801E00800000800000001F1
:104CA000E0F803F030063010041808041808040C6B
:104CB00008040C080206180207F00781E000000053
:104CC0000180000600000400000400000400080742
:104CD000FFF807FFF80400080400000400000600C5
:104CE0000001800004000007FFE007FFF004001847
:104CF0000000080000080000080000080000080488
:104D0000001007FFE004000004000006000007E0B8
:104D10000007FE00041FE00001F80000380001E079
:104D2000043E0007C0000600000400000400000765
:104D3000E00007FFC0041FF80007C007F80007FFE6
:104D400080043FF80007C004F800070000040000DA
:104D500000000004000806001807C07805F1C8002C
:104D60003E00001F800463E80780F8060018040076
:104D70000800000004000006000007800007E008AB
:104D8000047C08001FF80007F800180804E0080772
:104D900000000600000400000000000100080600FA
:104DA000380400F80403E8040F08047C0805F00840
:104DB00007C00807001804006000000000000000A1
:104DC00000000000000000000000003FFFFE200087
:104DD0000220000220000220000220000200000049
:104DE00000000000000008000007000000C00000F4
:104DF00038000006000001C000003000000E000076
:104E0000010000000000000000002000022000025D
:104E10002000022000022000023FFFFE00000000F0
:104E20000000000000000000000000000000000082
:104E300000080000100000300000200000300000DA
:104E40001000000800000000000000000000010049
:104E5000000100000100000100000100000100004D
:104E6000010000010000010000010000010000013C
:104E700000000000000000000020000020000010E2
:104E80000000100000000000000000000000000012
:104E9000000000000000000000F00019F8001B18DE
:104EA000002208002608002408002410003FF80013
:104EB0001FF800000800001800000004000007FFB1
:104EC000F80FFFF000181800100800200800200854
:104ED000003018001FF0000FC000000000000000AC
:104EE00007C0001FF0001830002008002008002034
:104EF00008003C08001C10000060000000000000DA
:104F00000000000007C0001FF00038180020080053
:104F1000200800200804101007FFF80FFFF0000021
:104F2000100000000000000000000007C0001FF09B
:104F30000012300022180022080022080032080067
:104F40001E10000E200000000000000020000020C5
:104F50000800200801FFF803FFF8062008042008D5
:104F600004200807200003000000000000000000EB
:104F7000000E000E6E001FF30031B10020B10020C2
:104F8000B1003191001F13002E1E00200E003000D2
:104F900000000004000807FFF80FFFF800100800E9
:104FA0002000002000002008003FF8001FF800004B
:104FB0000800000000000000000000200800200899
:104FC000002008063FF8063FF8000008000008002F
:104FD00000080000000000000000000000000000C9
:104FE00003000003002001002001002003063FFE13
:104FF000063FFC000000000000000000000000046C
:10500000000807FFF80FFFF8000188000300002FD9
:10501000C00038F800203800200800000800000018
:105020000000000000000400080400080400080755
:10503000FFF80FFFF800000800000800000800005B
:1050400000000000002008003FF8003FF8001008B2
:10505000002000003FF8003FF8001008002000008A
:105060003FF8003FF8000008000000002008003F63
:10507000F8003FF800100800100000200000200891
:10508000003FF8001FF800000800000000000000CA
:1050900007C0000FF0001830003008002008002082
:1050A00008003008001830000FF00007C0000000B2
:1050B000000000002001003FFF003FFF0010110032
:1050C0002009002008002008003038001FF0000FE1
:1050D000C00000000000000007C0001FF0003818EA
:1050E000002008002008002009001011001FFF0008
:1050F0003FFF000001000000002008002008002001
:1051000008003FF8003FF8000808001008002008D9
:10511000002000003000003000000000000000000F
:105120000000000C78001E1800330800230800213E
:10513000080021880021980030F00038600000004D
:1051400000000000200000200000200000FFF0030D
:10515000FFF80020080020080020080000300000B0
:1051600000000000000000002000003FF0007FF879
:10517000000018000008000008002010003FF800A0
:105180007FF0000010000000000000002000003050
:1051900000003C00003F800023F000007800007019
:1051A000002380003C0000300000200000200000B0
:1051B0003C00003FE00023F80000E0002700003E34
:1051C00000003FE00021F80001E0003E0000200068
:1051D000000000002008002008003838003E680069
:1051E00027800003C8002CF8003838002018002061
:1051F00008000000000000002000003003003C0117
:10520000003F830023EC000070002380003C00007E
:105210002000002000000000000000000000003816
:10522000080020380020F80023E8002F88003E08FE
:105230000038080020180000700000000000000086
:105240000000000000000000000000000800001442
:10525000001FF7FC300006200002000000000000E4
:10526000000000000000000000000000000000003E
:105270000000FFFFFF000000000000000000000031
:1052800000000000000000000000200002300006C6
:105290001FF7FC00140000080000000000000000E0
:1052A0000000000000000000000000180000600086
:1052B0000040000040000020000010000008000036
:1052C0000400000400000C0000100000EC52000874
:1052D0000000002020000000783A00080C5300086D
:1052E0002000002058040000883A00080000000058
:1052F000000000000024F400000000FFFFFFFFFF9B
:0C53000001000000100000000000000090
:0400000508000131BD
:00000001FF
